S0240000626C696E6B5F6B65726E656C5F6672656572746F735F70726F6A6563742E733337C1
S31508000000000400206D070008AB530008AB53000836
S31508000010AB530008AB530008AB530008AB530008BA
S31508000020AB530008AB530008AB530008CD77000864
S31508000030AB530008AB5300087177000865790008D0
S31508000040AB530008AB530008AB530008AB5300088A
S31508000050AB530008AB530008AB530008AB5300087A
S31508000060AB530008AB530008AB530008AB5300086A
S31508000070AB530008AB530008AB530008AB5300085A
S31508000080AB530008AB530008AB530008AB5300084A
S31508000090AB5300089D110008AB530008AB5300088A
S315080000A0AB5300088D0D00086D0D0008AB53000812
S315080000B0AB530008AB530008AB530008AB5300081A
S315080000C0AB530008AB530008AB530008AB5300080A
S315080000D0AB530008AB530008AB530008AB530008FA
S315080000E0AB530008AB530008AB530008AB530008EA
S315080000F0AB530008AB530008AB530008AB530008DA
S31508000100AB530008AB530008AB530008AB530008C9
S31508000110AB530008AB530008AB530008AB530008B9
S31508000120AB530008AB530008AB530008AB530008A9
S31508000130AB530008AB530008AB530008AB53000899
S31508000140AB530008AB530008AB5300080779000807
S31508000150AB530008AB530008AB530008AB53000879
S31508000160AB530008AB530008AB530008AB53000869
S31508000170013800D0FCE770470348044B834202D09D
S31508000180034B03B118477047D41D0020D41D002027
S3150800019000000000064B0749C91A891048BF0131FB
S315080001A0491003D0044B0BB101481847704700BFEC
S315080001B0D41D0020D41D00200000000010B5064CF8
S315080001C0237843B9FFF7D8FF044B13B10448AFF3BC
S315080001D000800123237010BD001B002000000000D2
S315080001E0AC8A000808B5054B1BB105490548AFF3AD
S315080001F00080BDE80840FFF7CDBF00BF0000000043
S3150800020000040020AC8A0008A3F5803A704700BFB6
S31508000210174B002B08BF134B9D46FFF7F5FF002130
S315080002208B460F461348144A121A05F038FC0E4B33
S31508000230002B00D098470D4B002B00D09847002084
S31508000240002104000D000D48002802D00C48AFF329
S31508000250008005F04FF82000290005F0C8FB04F0DF
S31508000260A9FF00BF00000800000000000000000011
S315080002700004002000040020001C002000000000EC
S31508000280000000002DE9F0414FF0FF34624F634E45
S31508000290634D8CB02246386803A906F099F8012800
S315080002A0804640F0A78002225E4904A805F0E5FBD7
S315080002B0002866D18923286807A98DF80030079693
S315080002C0CDF820D0ADF8248000F0DCFDE0B90A2096
S315080002D006F0D2FD01AB08934FF002080623286802
S315080002E007A9ADF82430ADF81E8000F0CBFD034613
S315080002F050B94FF07E52059202464B4805A9006850
S31508000300CDF8188005F0C6FF0222484904A805F072
S31508000310B4FB30B10222464904A805F0AEFB00281A
S31508000320B8D1642006F0A8FD0223ADF81E3001AB53
S3150800033008930623286807A9ADF8243000F0A2FD23
S3150800034003460028A6D1BDF804109FED3A7A49BAAB
S315080003508AB207EE902AF8EE677ADFED376A67EE1B
S31508000360877A87EEA67ADFED357A77EE677A0246E0
S3150800037006902D4805A90068CDED057A05F08AFF97
S3150800038088E70222294904A805F077FB60B9FD230E
S3150800039007968DF80030CDF820D0ADF8248028686F
S315080003A007A900F06FFDAFE70222214904A805F06E
S315080003B064FBA8B9039949B14FF47A704FF47A727D
S315080003C0002381FB000104F065FD0446FD238DF83A
S315080003D0003001230796CDF820D0ADF82430DEE7AB
S315080003E00222174904A805F048FB002808BF4FF069
S315080003F0FF3489E7631C3FF44DAFFD238DF80030C9
S315080004000123286807A90796CDF820D0ADF824302F
S3150800041000F038FD0A2085E76C0A002088000100F4
S31508000420141C0020787D0008740A00207B7D0008D3
S315080004307E7D000800002F4300FF7F4700003442FE
S31508000440817D00081FB50B4BA02202930A4B0B496E
S31508000450019301230A480093002306F05FFA30B996
S315080004605A21084805B05DF804EB04F0ACBF05B0A6
S315080004705DF804FB1804002070040020847D000841
S31508000480850200088F7D0008F0B5ABB000F04AF988
S31508000490574D584928600AA805F01EFB0AA805F01A
S315080004A013FB0AA90246286801F01EFB52490AA84E
S315080004B005F012FB0AA805F007FB0AA902462868F8
S315080004C001F012FB00244D4E4D4F01220DF107019C
S315080004D0286801F0D7FA012228680DF1070101F012
S315080004E003FB9DF807300A2B01D00D2B77D104F1B9
S315080004F0A8030DEB030400230222314606A804F8DC
S31508000500903C05F0BAFA0446D8B9314603A805F076
S31508000510E3FA3C4802A923464FF0FF3200680294EA
S3150800052005F0B8FE314604A805F0D6FA0594234628
S315080005304FF0FF32344804A9006805F0ABFE0024EA
S31508000540C3E70322394606A805F097FA044628B9F0
S315080005502E4905A805F0C0FA049417E003222C4991
S3150800056006A805F08AFA044608B92849DBE70322F3
S31508000570284906A805F081FA044668B9264905A857
S3150800058005F0AAFA07A805F074FA049023464FF076
S31508000590FF321C4804A9CFE70322204906A805F024
S315080005A06CFA044640B91C4904A805F095FA07A850
S315080005B005F05FFA0590BAE70322194906A805F07F
S315080005C05CFA044608B91749C3E70322164906A880
S315080005D005F053FA04460028B1D11249A3E70E2CB8
S315080005E0ADD004F1A8026A4402F8903C01346CE7E5
S315080005F0700A00209F7D0008AA7D0008787D000803
S31508000600DF7D00086C0A0020680A00207B7D000850
S31508000610E37D0008E77D00087E7D0008EB7D000885
S31508000620EF7D0008817D0008F37D00081FB50024D2
S315080006300821134B134A0520009405F0B9FF124B05
S3150800064008211860114A124B0520009405F0B0FFE6
S31508000650104BA0221860104B10490293104B1148FA
S31508000660019301230093234606F058F930B9672110
S315080006700D4804B0BDE8104004F0A5BE04B010BD96
S31508000680180A0020291B00206C0A0020011B0020E4
S31508000690C8090020680A0020F0060020847D0008AA
S315080006A04807002089040008F77D000808B50448B3
S315080006B007F0B7F8BDE80840024800F077BB00BF6E
S315080006C014850008001C002008B5044804F07DFEC7
S315080006D0BDE80840024804F078BE00BF247E000842
S315080006E00C7E0008014804F0D4BE00BF3C7E00081A
S315080006F018B1034B1860002070472520704700BFCB
S31508000700780A002010B5054C0549206801F03EF826
S315080007102068BDE81040FFF7EBBF00BF441D00206E
S31508000720181C0020014B1868704700BF780A002083
S3150800073008B5034807F075F8BDE8084004F011BE8F
S3150800074014850008014807F06CB800BF1485000836
S315080007500348044A0449121A921004F027BE00BF3F
S315080007607001000870010008001C002008B5154B30
S3150800077083F30A8800F030F8FFF7EAFF124B1349B3
S315080007808B4212D30020124B12498B4218D3FFF723
S315080007903FFD186850F82240586840F82240013258
S315080007A098688242F5D30C33EAE70022F8E71C681A
S315080007B044F8220001325C68A242F8D30833E4E721
S315080007C00022F8E700000020B48A0008C08A000862
S315080007D0C08A0008C08A00084FF48041124B134AA9
S315080007E070B59A60D3F88820114D42F47002C3F8A8
S315080007F08820104A05F5005491664FF0FF322266AC
S315080008000D4A62660222C3F8D020BFF34F8FBFF3AA
S315080008106F8F4FF44036002003F094FF0020E66007
S3150800082003F028FF2E6170BD00ED00E0000000080F
S315080008300080004400900050F7FF3700014B186015
S31508000840704700BF4C1D0020054B1860054B1B6FF9
S3150800085003F00703032B01D105F06CB9704700BFFD
S31508000860541D00200080005030B5056887B0AB885D
S3150800087004461E48ADF80C3006F0D3FF00220121CD
S3150800088003A800F083F80DF10B0103A800F04AF95C
S315080008909DF80B3083F001032B70AB79022B19D12D
S315080008A04FF0FF330022CDE904330094104B04A91E
S315080008B003A800F0FFF9049B009401330C4B0CD1FC
S315080008C0042205A903A800F05FF918B16F210948A9
S315080008D004F079FD002007B030BD012205A903A860
S315080008E000F052F90028F5D07E21F0E714850008BB
S315080008F0D7530008547E00082DE9F04104460C251C
S315080009004FF00108124E0CB314F001000BD0002072
S3150800091024F0010405FB00625768002FF3D09168A4
S31508000920C0B2B847EFE72246013020284FEA520204
S3150800093001D0D307F8D508FA00F20F2824EA0204F2
S31508000940E8D9103805FB0062B432E5E7BDE8F08166
S31508000950E00A002008B50C4806F063FF192003F0EA
S31508000960A3FE28B1192003F0EDFE192003F082FE3C
S315080009701A2003F099FE28B11A2003F0E3FE1A2084
S3150800098003F078FE002008BD148500082DE9F04123
S315080009900E469046044638B993211A4804F013FDCA
S315080009A022252846BDE8F0810F290CD8037883B1A3
S315080009B0012B03D0022B0CD0032B04D13F236278E2
S315080009C0D340DB0708D497210E4804F0FCFC212508
S315080009D0E7E740F2FF33F2E70B4BD3F810532DB19C
S315080009E09B21084804F0EFFC0225DAE706F00EFF23
S315080009F0074642462046314603F0C0FA384606F016
S31508000A0000FFCEE7B87E000800C0035038B504469C
S31508000A1028B91348E42104F0D6FC222038BD03780F
S31508000A2083B1012B03D0022B0CD0032B04D13F2317
S31508000A306278D340DB0708D40948E82104F0C3FCF0
S31508000A402120EBE740F2FF33F2E706F0DFFE05462A
S31508000A50204605F045F9284606F0D3FE0020DDE7D6
S31508000A60B87E000838B5044628B91448FC2104F0B5
S31508000A70AAFC222038BD03788BB1012B03D0022BA8
S31508000A800DD0032B04D13F236278D340DB0709D46A
S31508000A900A484FF4807104F096FC2120EAE740F2F8
S31508000AA0FF33F1E706F0B2FE0546204603F08AF961
S31508000AB0284606F0A6FE0020DCE700BFB87E000840
S31508000AC070B50D46044600B131B9154840F22D11EE
S31508000AD004F079FC222070BD03788BB1012B03D07A
S31508000AE0022B0DD0032B04D13F236278D340DB07BA
S31508000AF009D40B4840F2311104F065FC2120EAE7DD
S31508000B0040F2FF33F1E706F081FE0646204603F081
S31508000B10AFF92870304606F074FE0020DBE700BF08
S31508000B20B87E000870B50D46044600B131B91548BF
S31508000B304FF4A37104F047FC222070BD03788BB1F3
S31508000B40012B03D0022B0DD0032B04D13F2362784F
S31508000B50D340DB0709D40B484FF4A57104F033FCE6
S31508000B602120EAE740F2FF33F1E706F04FFE06469A
S31508000B70204603F051F92870304606F042FE002060
S31508000B80DBE700BFB87E00082DE9F0410D461646A2
S31508000B909846044600B139B92F484FF4E07104F07D
S31508000BA012FC2220BDE8F081027872B1012A19D020
S31508000BB0022A0AD0032A15D0FF2A0CD04FF4E27174
S31508000BC0254804F000FC2120ECE740F2FF33627868
S31508000BD0D340DA07F2D5022E07D9042E05D04FF4F2
S31508000BE0E471EDE73F236278F2E706F00FFE23781B
S31508000BF00746FF2B05D032462046296803F026FA19
S31508000C0028602B68013309D12378FF2B06D1134BB3
S31508000C106078D3F8241404F0F3FD286029684B1C87
S31508000C2014D00C230E4A03FB0122069BC2F804804B
S31508000C3093602378FF2B04D001230A4A8B40C2F81D
S31508000C402434384606F0DDFD0020ABE7384606F0CA
S31508000C50D8FD2D20A6E700BFB87E000800C00350C7
S31508000C60E00A002000D003500F2810B5044606D924
S31508000C700D4840F2F11104F0A6FB212010BD06F044
S31508000C80C5FD0123094AA340C2F82034C2F824341A
S31508000C900C22074B02FB04330024C3E9014406F087
S31508000CA0B0FD2046EAE700BFB87E000800E0035022
S31508000CB0E00A00202DE9F0410D4690461F460446FD
S31508000CC000B139B926484FF40B7104F07CFB222099
S31508000CD0BDE8F081017871B1012938D002290AD01E
S31508000CE0032934D0FF290CD01D4840F2312104F0E5
S31508000CF06AFB2120ECE740F2FF336278D340DA073B
S31508000D00F2D506F083FD23780646FF2B05D042462A
S31508000D102046296803F08AFA28602A68531C19D0E5
S31508000D200C23104903FB0211069BC1F8B870C1F8E1
S31508000D30BC302378FF2B05D00123103293400A4A92
S31508000D40C2F82434304606F05CFD0020C0E73F2395
S31508000D506278D3E7304606F054FD2D20B8E700BF89
S31508000D60B87E0008E00A002000D0035008B503F05A
S31508000D70ABF8054B00F0553020F05020C3F820049E
S31508000D80BDE80840FFF7B8BD00E0035008B503F01A
S31508000D909BF8054B00F0AA3020F0A020C3F82004E9
S31508000DA0BDE80840FFF7A8BD00E0035070B504464B
S31508000DB086B018B9AC212E4804F005FB2368B3F1B8
S31508000DC0B64F07D02B4A93424BD12B4806F029FD44
S31508000DD0012503E0294806F024FD0025A388012201
S31508000DE0ADF80030E3880A216846ADF80430FFF70D
S31508000DF0CDFD01220A2101A8FFF7C8FD0A2668468B
S31508000E00FFF730FE642003F0F9FF6846FFF7FEFDA2
S31508000E10642003F0F3FF013EF1D10323184A02EBE5
S31508000E200511C1F8E834607923794F3543EA004360
S31508000E30C1F8EC34E179A3792D0143EA0143535112
S31508000E4040F20113ADF80830E36820680493A368FC
S31508000E5002A90393237C8DF8143002F02BFD06B00B
S31508000E6070BDD121024806B0BDE8704004F0ABBAA7
S31508000E70117F0008008006500C85000810850008C0
S31508000E8000C0035038B5054602F058FE044C012848
S31508000E9001D1013C00D138BD284602F03DFDF6E7F8
S31508000EA0E193040013B504460A4806F0BAFCA27892
S31508000EB00421B2FA82F2237852098DF80430637855
S31508000EC00DEB01008DF80530FFF760FD002002B03C
S31508000ED010BD00BF148500082DE9F04F9A46564B01
S31508000EE085B01B7806460F461546DDF83C909DF8FA
S31508000EF044B0DDF85080002B00F09780072A00F2F6
S31508000F0096800E9B002B00F09280B9F1000F00F03E
S31508000F108E80129BB3F5006F00F38980012803D1F8
S31508000F20109B002B00F08380444B03EB05131B7BBF
S31508000F30002B7ED0424C10220021684604F0AFFDFB
S31508000F4004EB45141022A7BB3946204604F0A7FD3A
S31508000F5043F210036380BBF1000F03D1E37843F03B
S31508000F600303E370364A0E9B02EB451CCCE901935A
S31508000F70129B6901581E9DF84C30C0F30A0003F015
S31508000F8003039B0643EA001E53582E48012E00EA27
S31508000F9003004EEA0003CDF800A0535017D0B8F16D
S31508000FA0000F2ED19CF8023068F304138CF8023037
S31508000FB027E00021204604F072FD4FF44473638055
S31508000FC0BBF1000FCED1E37843F03003C9E7132312
S31508000FD00CF1100ECCF80C309CE80F008EE80F00D0
S31508000FE06FF00301DCF81C20109B61F39F02012FB0
S31508000FF0CCF81C20CCF8143003D1CCF81890CCF8D7
S31508001000043000270D4A290102EB051342F8018036
S31508001010159A28465A60694622469F605E7302F012
S3150800102055FE384605B0BDE8F08F0748FAE7074889
S31508001030F8E70748F6E700BF511B0020480D0020D7
S31508001040480C00200F80FFF3028000F0018000F0BA
S31508001050078000F038B5124B05461B78DBB1E0B1C6
S3150800106006F0D4FB0F4A00231146147B54B92B60B3
S3150800107001251A0101EB03131D738C5006F0C1FB01
S31508001080204638BD0133082B02F11002EDD106F0D7
S31508001090B8FB0548F5E70548F3E70548F1E700BF5B
S315080010A0511B0020480D0020048000F0028000F04B
S315080010B0018000F0154B13B51868002301908DF8D0
S315080010C0043006F0A3FB124B1C7824B106F099FBFA
S315080010D0104802B010BD01221A7006F092FB0E4BA2
S315080010E001A81C731C7783F82C4083F83C4083F8CE
S315080010F04C4083F85C4083F86C4083F87C400823B6
S315080011008DF8073002F09AFD2046E2E76E7F000868
S31508001110511B0020038000F0480D00200A4A08B53C
S3150800112012785AB107280BD8084A02EB00131B7B22
S3150800113043B1002102F062FD002008BD0448FCE727
S315080011400448FAE70448F8E7511B0020480D002038
S31508001150028000F0018000F0078000F00A4A08B516
S3150800116012785AB107280BD8084A02EB00131B7BE2
S3150800117043B1012102F042FD002008BD0448FCE706
S315080011800448FAE70448F8E7511B0020480D0020F8
S31508001190028000F0018000F0078000F0184B2DE96E
S315080011A0F0411F6D5B6D1F4000D5FEE70126002547
S315080011B0144CDFF85880374218D02368C8F85060B6
S315080011C0A3B1A168284601316268A1609847637B8C
S315080011D0012B0BD150B90C4B03EB45131A7B60F36B
S315080011E041021A731A7F60F341021A770135082DF6
S315080011F04FEA460604F11004DDD1BDE8F08100BFD0
S3150800120000000450480D0020480C0020002004501F
S3150800121038B504460D4606F0F9FAA3889BB223B9F9
S315080012202B6006F0EEFA064838BD142263889BB296
S3150800123002FB034408342C6006F0E3FA0020F3E7C7
S315080012400B7000F038B141B1013AB2F5006F0448AD
S3150800125038BF00207047034870470148704700BFF1
S31508001260037000F0027000F0104930B50A78104B90
S315080012702AB9C3E90022C3E9022201220A700C49ED
S3150800128000220C4654F8045B854208D00132042A31
S31508001290F8D1002251F8044B1CB943F8220000206B
S315080012A030BD0132042AF5D10248F9E7521B002065
S315080012B0C80D0020027000F0002313B51D4A52F82D
S315080012C0044B94F8211081420ED00133042BF6D139
S315080012D002B010BD0028FBD19DF80730002BF7D0CF
S315080012E0A068FFF71BFFF3E794F83530022BEFD120
S315080012F0204604F0B2F9637E2076022BE8D194F8F2
S31508001300323003F0FF02002BE2D1A0680DF107018D
S315080013108DF8072004F0AEFC237E1BB194F8333019
S31508001320002BD7D00023A06884F83330FFF716FFC8
S31508001330CEE700BFC80D002010B50446FFF7BAFE79
S31508001340002104F10800FFF785FE014608B10448AC
S3150800135010BD04F10C00FFF77DFE0028F8D0F6E773
S315080013600E7000F0F8B5044616460F4606F04EFA1B
S31508001370A388E2889BB29A42054605D800233360C3
S3150800138006F03FFA1748F8BD1422238807F1100C17
S315080013909BB202FB03433A460833174603CF674519
S315080013A0186059603A4603F10803F6D114223868E2
S315080013B01860238828469BB202FB03430833336030
S315080013C02388E2889BB20133B3FBF2F102FB1133A7
S315080013D09BB22380A38801339BB2A38006F011FA3F
S315080013E00020D0E70A7000F07FB5012380F830307E
S315080013F090F836309BB903682433826B01328263D6
S315080014000C4A04900392002202924A680192012231
S3150800141000920A684169C06804F09EF807E0022B4A
S3150800142002D103683C33E8E7002380F8303007B080
S315080014305DF804FB711900087FB5012380F8313087
S3150800144090F836309BB902683C32836B013383636C
S315080014500C4B04900393002302934B6801930123DA
S3150800146000930B680169806804F05CF807E0022BBA
S3150800147002D102684432E8E7002380F8313007B029
S315080014805DF804FB4D15000890F8363063B9012263
S3150800149003685A619A69D207FCD504210379084A78
S315080014A0B9335B01D1507047022B07D10068836CB2
S315080014B09B074CBF0521092101F090BE704700BF6C
S315080014C000C0035090F8363053B9042103790A4A0C
S315080014D003F239135B01D150022203685A6170473F
S315080014E0022B07D10068816C11F0020118BF062192
S315080014F001F074BE704700BF00C0035010B590F8E5
S315080015003630044663B9042203685A619A69920719
S31508001510FCD523790C4AB9335B011021995010BDCB
S31508001520022BFCD10068836CDB074CBF0521062122
S3150800153001F054FE237941F294425B0103F1A04382
S3150800154003F57033E9E700BF00C003502DE9F34106
S31508001550D06A01A91446FFF75BFE0546204604F04B
S31508001560AFFB194B9D4228D0019D25B940F2A53104
S31508001570164803F028FF00272F61AF6006F046F9EA
S31508001580D5F80C800646B8F1000F04D0D5E900233B
S3150800159039462046C047E06A01A904F077F8E06AB0
S315080015A083889BB26BB101A9FFF732FE20460199E9
S315080015B0FFF742FF304606F024F9012002B0BDE8E5
S315080015C0F08184F83130F5E70B7000F0727F00087F
S315080015D02DE9F04104461746FFF734FE88460646CD
S315080015E0E8B9152003F078F80546E26A93889BB2B5
S315080015F013B194F83230ABB194F83630BBB92368DE
S315080016009D6915F002052CD0012384F8343047442F
S31508001610B845206849D183699B06FCD56DB3304629
S31508001620BDE8F081002DE1D0FFF7B8FDDDE7022B1C
S3150800163012D123689D6C15F0020512D0012384F897
S31508001640343047444745206836D142F22002836C3D
S3150800165032EA0303FBD1E1E740F697111E4803F08F
S31508001660B2FE2046FFF74AFF012394F8365084F865
S315080016703430002DCBD0022D1CD094F8363003B36D
S31508001680022BCCD12068816C11F0010118BF092109
S3150800169001F0A4FD42F29442102123795B0103F183
S315080016A0A04303F570339950B9E718F8011B04F005
S315080016B093F8ADE70025C4E718F8011B04F087F88E
S315080016C0C0E710212379054A03F239135B01D1508B
S315080016D0082223685A61A2E7727F000800C00350F7
S315080016E010B5044680B190F832302BB903F0B5FF37
S315080016F010B9A068FFF712FD002094F832300133C4
S31508001700DBB284F8323010BD0048FCE7027000F006
S3150800171010B50446A0B190F832309BB190F832303B
S31508001720012B05D103F099FF10B9A068FFF716FD44
S31508001730002094F83230013BDBB284F8323010BD19
S315080017400148FCE70148FAE7027000F0057000F06E
S3150800175030B50025437F85B08DF8083090F82130E4
S31508001760044604228DF80930039303A9064B009515
S3150800177002A8FFF709FA4FF4007320462383A576DB
S3150800178003F0A7FF05B030BDB91200082DE9F041F6
S3150800179004468EB06B4F06AE0D460FCF0FC697E8C0
S315080017A00F0086E80F0018220021684604F077F932
S315080017B0002C00F0C58025B9634E30460EB0BDE852
S315080017C0F08164220021204604F069F902232F687B
S315080017D084F8363027602B7C20462371FFF744FDBA
S315080017E006460028E9D12B7F84F83530AB68236696
S315080017F0564B9F4200F09680554B9F42DCD14FF4E2
S3150800180080135449544AC4E904230023616284F8C6
S315080018103130D5E9091284F83030A1624F480B807F
S315080018204B808B8084F83030E2621380538093803B
S3150800183084F8313084F8333005F0F3FF636ADFF853
S315080018402C81986805F0EDFF10212B7C08EB4312DC
S31508001850C2F894142E7BA87B253346EA0041C2F8C9
S31508001860AC14697BEA7B08EB431341EA02475F60E5
S31508001870E676E077217784F820206B7F012163776D
S31508001880AB7F204684F82130EB7FA37795F820308C
S3150800189084F8223003F07AFE064600288DD1AB681C
S315080018A0022608936B8A8DF82560ADF82830AB8A36
S315080018B0CDF834D0ADF82630AB7D8DF82430AB6941
S315080018C00B930123ADF8063005F0A0FF2A7F0746E3
S315080018D0032A2CD141F294412B7C08EB43135E502A
S315080018E095F82000E97F41EA004103F5A55001601B
S315080018F0A87F697F41EA004141F29C4019508DF862
S31508001900002006238DF818302B79286806A9A3B17C
S3150800191001F0D4FE2046FFF70FFD0646384605F0CF
S3150800192070FF4AE74FF470230D490E4A6BE7022A07
S31508001930E7D12046FFF70CFFE3E701F091FEE9E760
S31508001940094E3AE7EC7F0008037000F00000015BDF
S3150800195000000A502C8500080100100014850008B4
S315080019603885000801000F00027000F000C003501F
S31508001970F7B5906A01A91446FFF74AFC05462046C2
S3150800198004F09EF93B4B9D4236D0019D25B940F2A5
S31508001990D121394803F017FD94F83610002939D1BA
S315080019A023689A6C12F4007229D0344AA9602A6115
S315080019B04FF4007203F500539A6405F027FFEF68A9
S315080019C0064637B16A68AB682046D31A29692A6879
S315080019D0B847A06A01A903F059FEA06A8588ADB286
S315080019E0002D37D001A9FFF713FC20460199FFF710
S315080019F0FBFC304605F005FF012003B0F0BD996CED
S31508001A00C80523D51E49AA6029614FF4807203F5DB
S31508001A100053D1E7022919D12368DA6C12F400724F
S31508001A2009D0164A03F500532A610022AA604FF42A
S31508001A300072DA64C1E7D96CC90507D51049AA60EE
S31508001A4029614FF4807203F50053F2E700232B61F6
S31508001A50AB60B2E701232046237603F03AFE94F8FA
S31508001A60353084F83050032BC3D02046FFF72AFDC3
S31508001A70BFE700BF0B7000F0727F00080D7000F022
S31508001A800C7000F030B587B004461346FFF7DAFB52
S31508001A9030BBCDE901130393124B04906A46A06A42
S31508001AA001A90593FFF75EFCD0B9A26A93889BB299
S31508001AB0012BFBD82046FFF7E7FC94F83530032BBB
S31508001AC004D000232046237603F003FE009D20461B
S31508001AD02946FFF789FC94F83030002BFBD128699A
S31508001AE007B030BD017000F030B587B00446134624
S31508001AF0FFF7A8FB40BBCDE901130393194B0490EC
S31508001B00059394F836300BBB23689B6903F00203F0
S31508001B1013B92046FFF7F2FC6A46E06A01A9FFF707
S31508001B2021FC88B9E26A93889BB2012BFBD8009DF9
S31508001B3020462946FFF780FC012384F8343094F8C0
S31508001B403130002BFBD1286907B030BD022B02D1FA
S31508001B5023689B6CDAE740F6FB21034803F033FC65
S31508001B60D7E700BF017000F0727F0008044BD3F876
S31508001B708420D206FBD4D3F88400C0F381107047C2
S31508001B800040005038B5104B0546D3F800310C46D6
S31508001B9003F00303022B0BD0032B0DD0012B0FD11F
S31508001BA003F0E2FF032305B1286004B1236038BDC2
S31508001BB004F02CF80923F6E703F0DCFF0823F2E724
S31508001BC001230020EFE700BF0080005038B5104B16
S31508001BD00546D3F840310C4603F00303022B0BD01D
S31508001BE0032B0DD0012B0FD105F0FCFD0A2305B1FF
S31508001BF0286004B1236038BD04F008F80923F6E725
S31508001C0005F0F3FD0C23F2E701230020EFE700BF00
S31508001C100080005038B5104B0546D3F860310C46A5
S31508001C2003F00303022B0BD0032B0DD0012B0FD18E
S31508001C3005F0D8FD0A2305B1286004B1236038BD34
S31508001C4003F0E4FF0923F6E705F0CFFD0C23F2E7DE
S31508001C5001230020EFE700BF0080005038B5104B85
S31508001C600546D3F840320C4603F00303022B0BD08B
S31508001C70032B0DD0012B0FD105F0B4FD0A2305B1B6
S31508001C80286004B1236038BD03F0C0FF0923F6E7D6
S31508001C9005F0ABFD0C23F2E701230020EFE700BFB8
S31508001CA00080005038B5124B0546D3F880300C46F4
S31508001CB003F00303022B0BD0032B0DD0012B0FD1FE
S31508001CC003F018FF0E2305B1286004B1236038BD60
S31508001CD003F054FF0723F6E703F006FF0623F2E7AF
S31508001CE0044841F2142103F06EFB00231846EAE784
S31508001CF0008000500C80000838B51A4B0546D3F80A
S31508001D0020010C4600F00700062821D8DFE800F07D
S31508001D1028040C1410181C0003F0E6FE052305B170
S31508001D20286004B1236038BD03F01EFF0323F6E7DD
S31508001D3003F024FF0723F2E703F012FF0223EEE77E
S31508001D4003F0D2FE0623EAE703F00EFF0423E6E7D4
S31508001D50054841F2912103F036FB00231846DEE7D9
S31508001D600123DCE7008000500C80000838B5194BC9
S31508001D700546D3F828310C4603F00703013B052B2B
S31508001D8020D8DFE803F003131B0F0B1703F0ACFE94
S31508001D90052305B1286004B1236038BD03F0A4FE0D
S31508001DA00623F6E703F0EAFE0723F2E703F0DCFE74
S31508001DB00323EEE703F0D8FE0423EAE703F0D0FE98
S31508001DC00223E6E7044841F2990103F0FCFA0023EE
S31508001DD01846DEE7008000500C800008002337B55F
S31508001DE00193194B0546D3F820320C4603F0070336
S31508001DF0042B1FD8DFE803F025030F141900002170
S31508001E0001A8FFF7B3FF12230DB1019A2A6004B1A6
S31508001E10236003B030BD03F0B1FE07230190F3E75A
S31508001E2005F0E0FC0A230190EEE703F0EFFE092334
S31508001E300190E9E741F25601044803F0C4FA002389
S31508001E40E2E70123E0E700BF008000500C800008AD
S31508001E50F7B50027144B0197D3F88041064604F0DE
S31508001E600304022C0D4614D0032C0DD0012C14D1DA
S31508001E70394601A8FFF740FF10240EB1019B3360D5
S31508001E8005B12C6003B0F0BD03F078FE072401907D
S31508001E90F3E703F065FE0190EFE741F2E631034808
S31508001EA003F091FA3C46E8E7008000500C800008F1
S31508001EB038B5164B0546D3F800020C4600F0070065
S31508001EC0042819D8DFE800F020030B0F130005F0EB
S31508001ED089FC0A2305B1286004B1236038BD03F0E4
S31508001EE095FE0923F6E705F080FC0C23F2E703F0DC
S31508001EF021FE0F23800AEDE7054841F2A44103F0CD
S31508001F0062FA00231846E5E70123E3E7008000505C
S31508001F100C80000838B5164B0546D3F808020C465F
S31508001F2000F00700042819D8DFE800F020030B0F9B
S31508001F30130005F057FC0A2305B1286004B1236095
S31508001F4038BD03F063FE0923F6E705F04EFC0C23C3
S31508001F50F2E703F0EFFD0F23800AEDE7054841F2AB
S31508001F60DC4103F030FA00231846E5E70123E3E7EE
S31508001F70008000500C800008002337B50193184BE9
S31508001F800546D3F860320C4603F00703013B032BE2
S31508001F901FD8DFE803F0020E1914002101A8FFF785
S31508001FA0ABFE10230DB1019A2A6004B1236003B079
S31508001FB030BD002101A8FFF709FE1123F2E703F05F
S31508001FC0DDFD07230190EDE703F0CAFD022301902A
S31508001FD0E8E741F2FD01034803F0F5F90023E1E7DC
S31508001FE0008000500C800008002337B50193184B79
S31508001FF00546D3F894320C4603F00703013B032B3E
S315080020001FD8DFE803F0020E1914002101A8FFF714
S3150800201073FE10230DB1019A2A6004B1236003B040
S3150800202030BD002101A8FFF7D1FD1123F2E703F027
S31508002030A5FD07230190EDE703F092FD0223019029
S31508002040E8E741F23011034803F0BDF90023E1E760
S31508002050008000500C80000873B500240F4B0194D3
S31508002060D3F87032064603F00303012B0D4607D05A
S31508002070022B11D041F25B11094803F0A4F904E0E0
S31508002080214601A8FFF7A2FD11240EB1019B33607A
S3150800209005B12C6002B070BD1524F6E7008000502B
S315080020A00C80000808B5334B98424FD027D8324BDE
S315080020B0984245D017D8314B98423ED00AD838B105
S315080020C02F4B984239D041F2BB312E4803F07BF9A9
S315080020D0002034E02C4B98422FD02C4B9842F2D15A
S315080020E02B4B586E2BE02B4B98422CD003F537130D
S315080020F003F5D8639842E6D1254B986F1FE0264B27
S3150800210098422FD00CD8254B984223D0244B98427E
S3150800211024D0244B9842D6D11D4BD3F884000EE028
S31508002120214B984222D003F5740303F510539842C5
S31508002130C9D1174BD3F8980001E0154B986D08BD27
S31508002140134B186FFBE7124B586FF8E7104BD3F891
S315080021508000F4E70E4BD3F88800F0E70C4BD3F871
S315080021608C00ECE70A4BD3F89000E8E7084BD3F865
S315080021709400E4E780BA8C01405DC60080841E00A6
S3150800218040420F000C80000800093D00C0CF6A00DD
S315080021900080E00F0024F400007E560380D5430239
S315080021A0006CDC020048E8010090D003B0F5207FFF
S315080021B010B52ED009D8B0F5007F24D003D868B161
S315080021C0B0F5C07F0AD000241BE0B0F5607FFAD1D5
S315080021D0124BD3F88040C4F3011412E00F4B1C6F66
S315080021E0230B13F00E0FC4F303340AD0072C08D0C0
S315080021F00F2C06D0032C04D04FF42271084803F0A4
S31508002200E2F8601C10BD054BD3F89040C4F3046493
S31508002210F7E7024B1C6FC4F38024F2E700800050F6
S315080022200C8000084FF4803238B5104B04469A6685
S3150800223000200D46FFF7BAFF41F671320C4B60439A
S31508002240DC69DA635A6804F4803422F440125DB912
S315080022500849884294BF00200120000502435A60BD
S315080022600CB10022DA6338BD0349F2E7009000504A
S3150800227000000350005A6202002D310138B54309A7
S3150800228004460D460ED140F235310D4803F09BF851
S31508002290002304F01F0485B103F580530122A240F0
S315080022A01A6038BD012B04D0022B04D040F243310A
S315080022B0EBE7044BEDE7044BEBE703F50053EDE7DB
S315080022C00C8000086480005068800050002130B5FA
S315080022D0B0F5807F85B00446CDE9001100F0D380C3
S315080022E03DD85E2833D85E2833D8DFE800F0483278
S315080022F032323232323232323232323232323232B0
S31508002300323232323232323232323232323248AD0E
S3150800231048ADBDBDBDBDBDADC7516EDD51ADADADA1
S315080023203232323232323232ADADAD81E7AD32328F
S315080023303232323232323232323232BD484848E2F2
S315080023405151EC9066C232323232329848008028B7
S315080023506AD040F2A441604803F035F867E0B0F56A
S31508002360D06F00F0A18035D8B0F5607F77D01AD845
S31508002370B0F5007F5ED005D8B0F5C07FE9D103F08F
S31508002380D9FB53E0B0F5207F5ED0B0F5407FE0D1B1
S3150800239003F0D0FB04464FF42070FFF707FFB4FBA9
S315080023A0F0F4640859E0B0F5B06F67D00AD8B0F514
S315080023B0806F59D0B0F5A06FCBD100216846FFF7E2
S315080023C00DFD34E0B0F5C06FC3D100216846FFF7B4
S315080023D0FDFB2CE0B0F5106F6BD00ED8B0F5086F8A
S315080023E076D0B6D8B0F5E06F68D0B0F5F06FB0D15A
S315080023F000216846FFF70EFC19E0B0F5406F38D0AB
S315080024000AD8B0F5206F5ED0B0F5286FA1D10021AB
S315080024106846FFF721FE0AE0B0F5486F99D100211A
S315080024206846FFF7E1FD02E003F064FB00900098C0
S3150800243005B030BD03F05EFB05462046FFF7B6FE45
S31508002440B5FBF0F50095F2E703F074FB04464FF48C
S315080024502070FFF7ABFEB4FBF0F40094E7E701A8A1
S31508002460FFF720FC019DE8E700216846FFF744FCDA
S31508002470DDE700216846FFF779FCD8E700216846C2
S31508002480FFF7E6FCD3E74FF0E02302911B695B07F1
S3150800249005D503F04FFB0290029B0093C7E703A9FB
S315080024A002A8FFF793FBF7E700216846FFF700FD50
S315080024B0BDE700216846FFF72DFDB8E7002168460D
S315080024C0FFF7CCFBB3E700216846FFF755FDAEE7FB
S315080024D06846FFF757FBAAE70C80000808B5802076
S315080024E0FFF7F4FE034B98429EBF4FF48032024B2F
S315080024F01A6708BD005A620200A000501FB50346BD
S315080025000020B3F5807F019000F0C58063D85D2B6D
S3150800251054D84C2B06D82D2B46D8232B2AD840F234
S315080025208951A7E04D3B102BF9D801A252F823F0A8
S315080025308D2600081F2500081F2500081F250008EE
S31508002540372600081F2500081F250008E72600086B
S3150800255055260008FB250008DD2600081F2500086B
S315080025601F2500081F2500081F2500081F2500082D
S31508002570F1260008243B092BD1D801A252F823F0F2
S315080025808D2600088D2600088D2600088D26000851
S315080025908D2600081F2500087D2600081F2500082F
S315080025A017260008C32600083D2B00F085803E2B21
S315080025B0B5D1002001A9FFF751FB63E0802BAED10E
S315080025C04E4B1B6F03F00703013B032B50D8DFE884
S315080025D003F04D46494BB3F5F06F6DD020D8B3F5EF
S315080025E0B06F4BD00ED8B3F5607F73D097D3B3F5E1
S315080025F0806F4BD0B3F5A06F91D1002001A9FFF7EA
S31508002600EDFB3FE0B3F5D06F5BD0B3F5E06FD0D00C
S31508002610B3F5C06F83D1002001A9FFF7D7FA31E0DF
S31508002620B3F5206F5FD00BD8B3F5086F4ED0B3F56E
S31508002630106F7FF474AF002001A9FFF76BFC21E04F
S31508002640B3F5406F4AD0B3F5486F51D0B3F5286F4C
S315080026507FF465AF002001A9FFF7FEFC12E0052311
S3150800266001930FE00323FBE70823F9E70223F7E7C3
S3150800267040F2D641224802F0A6FE03E0002001A956
S31508002680FFF7E6FB019805B05DF804FB002001A9F9
S31508002690FFF732FBF6E74FF0E02302901B695B0772
S315080026A005D503F047FA0D230393039BD8E703A93F
S315080026B002A8FFF78BFAF8E7002001A9FFF7AAFAA4
S315080026C0E0E7002001A9FFF7F3FBDBE701A9FFF725
S315080026D059FAD7E701A9FFF7E5FAD3E7002001A9D8
S315080026E0FFF744FBCEE7002001A9FFF745FCC9E741
S315080026F0002001A9FFF778FCC4E700BF008000505E
S315080027000C8000084FF48032074B0849586E03F5D1
S3150800271080535A664B6A23F001034B62C3035CBFBE
S31508002720034B5A66704700BF0080005000C0075030
S3150800273000A0005038B5036804460F2B04D940F6AC
S315080027408A317C4802F03FFE63680F2B04D940F6B5
S315080027508D31784802F037FEA3680F2B04D94FF461
S315080027603961744802F02FFE237B0F2B04D940F6FB
S315080027709331704802F027FE637B0F2B04D940F68D
S3150800278096316C4802F01FFEA37B3F2B04D940F616
S315080027909931684802F017FEE37B3F2B04D940F6CF
S315080027A09C31644802F00FFE2369032B04D940F6D6
S315080027B09F31604802F007FE6369032B04D940F68F
S315080027C0A2315C4802F0FFFDE369032B04D940F609
S315080027D0A531584802F0F7FD8020FFF78FFE032841
S315080027E000F083804FF48012534B4FF0A0615A6675
S315080027F045F60E02514BC3F88020514A91624FF4B8
S31508002800803102F5805291629A6DD203FCD4996D9B
S3150800281011F08041FBD1D4E90002120542EA0062B8
S31508002820E07B0243207B42EA0042607B42EA0032B8
S31508002830A07B42EA80121A619869D4E9045212060A
S3150800284042EA856200F000400243A07EE57E02432C
S31508002850207E42EA0042607E42EA00229A611A6AB3
S31508002860E06922F00F0242EA8502364D00283DD182
S315080028701A6294F82420996A94F82000D200294014
S3150800288042EA40120A4394F8211042EA011242F43D
S3150800289080329A622C49294A936D31EA0303FBD1A7
S315080028A04FF08071264881621369A56823F4700386
S315080028B043EA055313614FF00043836194F82230CD
S315080028C00BB9224B996294F823303BB94FF4803206
S315080028D01E4B9A62194A936D5B00FCD494F8253016
S315080028E01BB1164B1A4AC3F8802038BD024342F082
S315080028F0080202281A6208D119614FF40852996130
S3150800290014484FF47F4102F020FF0C4994F8223016
S315080029108A6A94F820001B062A4043EA40131343A8
S3150800292094F8242043EAC20394F8232043EA024396
S315080029308B62D3E70C800008009000500040005AD4
S315080029400050005AC7FFFEFE030001000060005A4F
S31508002950F1A7FFFF3440005A014B93F90000704776
S31508002960C71D0020436810B5072B044604D940F656
S31508002970E6512A4802F027FDA368032B04D940F63E
S31508002980E851264802F01FFD2378032B04D940F6A8
S31508002990EA51224802F017FD94F90130002B04DAB7
S315080029A040F6EC511D4802F00EFD4FF400011C4A9A
S315080029B0637851664FF4D151022002F5B83251625C
S315080029C018494F2B48604FF0010028BF4F2301F5E7
S315080029D0805148601169C903FCD4217843EA012370
S315080029E05361D4E901131B0143EA0123617B0B43BD
S315080029F0217B43EA41039360E37BA17B1B0143EA06
S31508002A004113617C0B43217C43EA41035360A37C59
S31508002A1013B16FF4D153536210BD00BF0C80000888
S31508002A200090005000100250014B1880704700BFFC
S31508002A30C21D0020014B1880704700BFC01D002032
S31508002A404FF4800208B5184B5A660223174A53609A
S31508002A50936813F48033FBD1012822D103F084F85C
S31508002A60134B984215D003F5122303F5F8639842E1
S31508002A7013D0104B00EB8002400AB3FBF0F3520A66
S31508002A800A49CA620B6301234B620022074B5A604C
S31508002A9008BD45F67A13084AF2E745F61A03074AC7
S31508002AA0EEE75362F1E700BF009000500040025085
S31508002AB000F0490264666666D8B80500BBCF050013
S31508002AC0B0F5207F38B577D00ED8B0F5007F61D045
S31508002AD003D890B3B0F5C07F2FD04FF44671BDE848
S31508002AE038403D4802F06FBCB0F5607FF5D13B4AEF
S31508002AF04C1ED2F8FC5015F080751EBFD2F8FC307B
S31508002B0023F08073C2F8FC30032C04D940F2F72175
S31508002B10314802F058FC324AD2F8803023F03003AC
S31508002B2043EA0413C2F8803035B12C4AD2F8FC3097
S31508002B3043F08073C2F8FC3038BD4C1E012C0AD90C
S31508002B40102903D8274BCB40DB0704D440F2CB210E
S31508002B50214802F038FC02F007FE02F013FE4FF49B
S31508002B608031214B1E4A1967136F23F4704343EAD9
S31508002B700433136702F0DEFF0446FEF7F7FFC0F1E1
S31508002B800201204602F0F8FD00F048F8BDE838409A
S31508002B90FFF7A4BC4C1E1F2C04D94FF443710E48F2
S31508002BA002F011FC0E4AD2F8903023F0F85343EAAB
S31508002BB00463C2F89030BFE74C1E012C04D940F2DA
S31508002BC01231054802F0FFFB054A136F23F48063B0
S31508002BD043EA84231367AFE70C80000800ED00E0A2
S31508002BE000800050100101000090005008B5012136
S31508002BF0022000F099F94FF42070FFF7D7FA054B39
S31508002C00187002F0B1FD02F0BDFD4FF48032024BA0
S31508002C101A6708BD531B00200090005008B54FF4F2
S31508002C20C070FFF753FBBDE808400449884294BFCB
S31508002C30012102214FF42070FFF742BF80F0FA020B
S31508002C4038B5044602F076FF0546FEF78FFFC0F159
S31508002C500201284602F090FD0121002000F0B8F993
S31508002C602CB1FFF7DBFFBDE83840FFF737BC034B55
S31508002C704FF420701978FFF723FFF4E7531B002061
S31508002C802DE9F0410546FFF70DFA431E03330446C6
S31508002C9004D940F6E2113B4802F095FB4FF4C022F6
S31508002CA0394B5A6603F598335A68012A04D13749CD
S31508002CB04A605A689207FCD48020FFF71FFC052853
S31508002CC007D102F051FD02F05DFD4FF480322E4B24
S31508002CD01A672F4B24F040749D4239D02D4B9D42E4
S31508002CE039D002F001FF8542064603D9012128465C
S31508002CF000F06EF9284FFB6813F0060FFBD1D7F8E2
S31508002D000880BC60BB68634013F4F81F26D12846C8
S31508002D10FDF794FD8020FFF7F1FB052814D102F09A
S31508002D2009FFA842044604D940F63B21154802F09B
S31508002D304AFBFEF71BFFC0F10201204602F01CFD0C
S31508002D40FFF76CFFFFF7CAFBAE4213D2BDE8F0816E
S31508002D5044F00074C5E744F08074C2E740F62A21BF
S31508002D60084802F030FB8020C7F80880FFF7C6FB4A
S31508002D70052805D0BDE8F0410121002000F028B95A
S31508002D803546CCE70C8000080090005000E0015062
S31508002D9040420F0080841E00000001504E4B70B563
S31508002DA09842054673D041D8A3F5B703A3F55863EF
S31508002DB0984265D033D8494B494E984251D017D8D6
S31508002DC0002877D041F2DE11464802F0FCFA40F6B8
S31508002DD08671444802F0F7FA4FF40022404B5A66CF
S31508002DE03E4B9D4276D000243F4A954236D05DE060
S31508002DF03D4B984227D03D4B9842E3D13C4BD3F804
S31508002E00A040621E033224F040744CD940F6867105
S31508002E10344802F0D8FA4FF400237366E4E7354BDA
S31508002E209842CFD1324BD3F8BC402CE0324B984273
S31508002E3031D0324B984232D0314B9842C2D12C4BCA
S31508002E40D3F8C8401FE02A4BD3F8A040621E0332CD
S31508002E5024F04074DAD84FF40023736644F0807483
S31508002E6024E0234BD3F8A040621E033224F04074BA
S31508002E702AD84FF400237366234643F0007415E0FE
S31508002E801B4BD3F8B840621E154E0332BBE7184BEE
S31508002E90D3F8C040F7E7164BD3F8CC40F3E7144B0A
S31508002EA0D3F8D040EFE74FF4002373664FF0B442EF
S31508002EB0946070BD40F686710A4802F084FA4FF4B1
S31508002EC000232C467366F1E740F68671054802F042
S31508002ED07AFACEE70023D0E7C0EA210140420F0084
S31508002EE0009000500C80000880841E0000093D00F8
S31508002EF00080E00F0024F4000048E801005A62024E
S31508002F0080BA8C01024A536B0342FCD1704700BF5A
S31508002F1000400950034A0179D36E23F030030B436E
S31508002F20D366704700400050F8B50446244BD3F8E2
S31508002F308420D006FBD4D3F88430C3F381139C4293
S31508002F403CD002F0D7FD012C05460BD11D4B98420B
S31508002F5004D940F29B711C4802F035FA0121284633
S31508002F6002F00AFC04F049FC4FF00072174B0746C2
S31508002F705A66204602F00BFC4FF48063104E621E20
S31508002F8093403367736E9A0103D4D6F884309B0650
S31508002F900AD5384604F02CFC022C0FD12846BDE889
S31508002FA0F840002102F0E8BBD6F884309906E9D546
S31508002FB040F2B371044802F006FAE3E7F8BD00BF31
S31508002FC000400050005A62025E800008006000500F
S31508002FD010B50C4608B902F08DFD074B21461B7843
S31508002FE03BB1064B984204D80120BDE81040FFF7D4
S31508002FF09BBF0220F9E700BF541B0020005A62025B
S315080030004FF0004238B5244B244C5A664AF6CD3365
S31508003010656C014605F00105236428BB0120FFF70E
S3150800302071FF6368DB0715D51D4B586008461D4BB5
S31508003030226BD2070CD4984208D1072415B1174B36
S31508003040194A1A6402F0A4FB204638BD0130EFE79E
S315080030509842F2D00024F1E70132236B13F00803FB
S3150800306005D08A42F8D1E8E700220E49F5E78A42F8
S31508003070E3D020210A4A91620121A2F580525160CB
S315080030800649084A886A800603D49342D5D0013394
S31508003090F8E79342DDE700BF009000500040095072
S315080030A00060095040420F003254FFFF4FF00042C3
S315080030B038B5164B01465A664AF6CD33144C154AAE
S315080030C0656C236443780B205B0043F00103D363EC
S315080030D0FFF718FF63688A7823F4F87343EA021344
S315080030E06360CA784B7943EA0223A3600A798B792D
S315080030F043EA022323610878FFF782FFEB0744BF00
S31508003100054B236402F044FB012038BD00900050B3
S3150800311000400950004000503254FFFF0F2870B598
S31508003120044605D940F67461124802F04CF90F249A
S315080031304FF00042104B11495D6E03F580535A66F5
S315080031404AF6CD334E6C80200B64FFF7DBFE0B6A24
S3150800315023F00F0323430B62F30744BF084B0B64AA
S31508003160002DA2BF4FF00042064B5A6602F010FB34
S3150800317070BD00BF5E800008008000500040095006
S315080031803254FFFF00A0005010B502F006FB0423DE
S3150800319000F5805100F500520B6113610B61136154
S315080031A00B6113610B611361202341F20201036174
S315080031B00023C360836041614FF4A0218361836566
S315080031C041620549C36103628362C362436303655F
S315080031D0D164036310BD00BFFF3F0D0338B5174B1D
S315080031E0044698420D4607D0154B984204D040F243
S315080031F06911144802F0E7F825B92046BDE83840B9
S3150800320002F0CBBA012204F580535A6040F6FF71EA
S31508003210204605F00F0202F0BCFAA263782102F0FC
S31508003220B8FA05F001036A0748BF43F00203A26C27
S3150800323002F003029A42FAD138BD00BF0000015BD2
S3150800324000000A50B0800008F8B505460C46164638
S3150800325022B940F227216B4802F0B5F86A4B9D4225
S3150800326002D19CB956240DE0684B9D4247D040F2E6
S315080032702A21644802F0A7F844B940F27931614836
S3150800328002F0A1F82046FFF721F80446AB68D807F4
S3150800329045D5B44204D24FF40D715A4802F093F85A
S315080032A0B4FBF6F46F68013CFF2C07F0010704D95C
S315080032B04FF40F71534802F086F824064FB32821BD
S315080032C0284602F066FAAB6C99071CD1AB6CDA0794
S315080032D01BD4AE6C16F0020619D140F249214948B2
S315080032E002F071F8284602F058FA2B69314623F0A5
S315080032F07F4323432B61BDE8F840FFF76FBF002CDF
S31508003300C4D15724BEE70526ECE70926EAE70626D0
S31508003310E8E72B6923F07F4323432B61F8BD6B68ED
S31508003320012B04D04FF41771364802F04CF8AB6DF8
S31508003330DB07AB6848BF760003F0E003402B42D0BA
S3150800334009D893B1202B1AD040F29E21BDE8F84047
S315080033502C4802F038B8602B42D0802BF4D106EB0B
S315080033604603A34247D801230DE0B6EB141F04D940
S315080033704FF42171234802F026F8102303E0B6EB38
S31508003380D40F1AD8082373436401B4FBF3F4204F0F
S31508003390203CB7EBC40F4FEAC40604D240F2A92179
S315080033A0184802F010F828463E40012102F0F1F9CB
S315080033B02E63BDE8F84002F0ECB940F289211148C5
S315080033C002F001F8DEE70623B4FBF3F3B34201D3B8
S315080033D00623D8E740F28E210A4801F0F4FFF7E702
S315080033E0B6EB940F01D80423CDE740F293210548A4
S315080033F001F0E9FFF7E74FF42671024801F0E3FF11
S31508003400B1E700BFB08000080000015B00000A5069
S31508003410F8FF7F002DE9F0419846436804460E46BA
S3150800342017461BB140F6FF7102F0B3F92046FFF7C5
S31508003430ABFEF189737B62690B43318A22F44C52E5
S3150800344022F00F020B4313436361A26896F818C073
S31508003450337B22F0804222F0E2024CEA0303134354
S3150800346072691343B268A3601AB9A36843F00043AC
S31508003470A360F06904F58053002878D0857A017A2C
S315080034806D04D4F808E045EA81556E490EEA010153
S315080034900D43818801F4C0410D43417845EA810511
S315080034A0417B45EAC105817B45EA0115817845EAF4
S315080034B08125A560D4F80CE0D0E904152943624DAE
S315080034C00EEA05052943857941EA8521C57941EA48
S315080034D04521E16001785D4D012914D1E16841F08B
S315080034E00401E160AC4200F0928059498C420CBF5D
S315080034F001214FF0FF31490101F1A04142F2944503
S3150800350001F5703114E003297BD1E16841F004012B
S31508003510E160AC4279D04E498C420CBF01214FF094
S31508003520FF3141F29445490101F1A04101F570319D
S315080035304FF0020E41F805E0417A996219B1E16847
S3150800354041F40061E160C17A59B1E16841F4004192
S31508003550E1603E498C425CD1017B3E4D01F00F0192
S315080035606967616AC07B21F00301014361622FB17B
S3150800357097F82010002956D001211962B8F1000FDA
S315080035802DD0BCF1000F02D04FF4004199652F49A8
S31508003590B8F822508C4298F8211051D02C48844211
S315080035A013D10120112934BF4FF0010C4FF0020C42
S315080035B0294FB5F5006F07F800C094BF4FF0010C0E
S315080035C04FF0020C254F07F800C0A06D294320F4E0
S315080035D0F95020F01E000143A165012199650121DA
S315080035E059601AB120467168FFF72EFE20463178D9
S315080035F0FFF7F4FDA36CDB4313F4405FFAD1BDE893
S31508003600F0810239012984D96CE7002189E7002174
S3150800361071E70F498C4201BF017B0E4D01F00F0186
S31508003620C5F880109DE7E06997F8221097F82150B1
S3150800363020F009002943014341F00101D9619DE7C2
S315080036400020AFE7E39BBDFFFFF9F0870000015BB1
S3150800365000000A5000900350571B0020551B0020FD
S31508003660134B70B5984205460C4606D0114B984246
S3150800367003D07021104801F0A6FE1CB972210E482D
S3150800368001F0A1FE237B802B03D176210A4801F0A5
S315080036909AFE637B032B03D97921074801F093FE31
S315080036A0002321462846BDE870401A46FFF7B2BEF9
S315080036B00000015B00000A50B08000082B4B70B573
S315080036C0984205460C4643D119B98C21284801F081
S315080036D07AFE5620FEF712FF0C2807D0A0F1090340
S315080036E0012B03D9A0F11103012B3AD8637B032BD5
S315080036F003D9AD211E4801F066FE237B802B03D03B
S31508003700AF211B4801F05FFE6369B3F1804F03D018
S31508003710B121174801F057FE238A23F400539BB2C0
S31508003720B3F5805F03D0B321114801F04CFEA368BE
S31508003730013BB3F5165F03D3B5210D4801F043FEEF
S31508003740002321462846BDE870401A46FFF762BEA8
S315080037508A21074801F037FE1CB98C21044801F07C
S3150800376032FE9E21024801F02EFEBFE70000015BF3
S31508003770B0800008F8B506460F461546002A6AD0F6
S3150800378003F00304836823F44073836004F035F878
S31508003790B26882EA042303F440735340B36004F02A
S315080037A027F837B9B6F1B64F0DD12E20FEF78EFDA4
S315080037B00746B3689A0717D5012C1BD0022C27D0C9
S315080037C064B9264B17E0264B9E4201D12F20EDE720
S315080037D040F22F11234801F0F6FDB3684FF4B27199
S315080037E0204801F0F0FD08E0012C13D0022CE7D1A7
S315080037F01D4B00E01D4B9F42F0D91D4B1B5D6B43D3
S315080038000AD140F27511BDE8F840164801F0DBBD53
S31508003810184BF0E7184BEEE7A3EBC504013C3C4414
S31508003820B4FBF3F4013C0CD540F27B110D4801F0D2
S31508003830CAFD4FF4BE710B4801F0C5FDB368B4610B
S31508003840F8BDB4F5007FF4D2B3689B07F7D5002C12
S3150800385008BF0124F3E740F21511D4E780841E005F
S315080038600080065005810008002D3101404B4C00B0
S3150800387057810008809FD50040548900B0F1B64FA3
S3150800388038B504460D4607D0084B984204D040F296
S315080038909511074801F097FD043425B104F58054C5
S315080038A00123236038BD04F50054F9E7008006506B
S315080038B005810008B0F1B64F38B504460D4607D065
S315080038C0124B984204D04FF4D571114801F07BFD94
S315080038D00023104A236404F50053DA636A7804F176
S315080038E008037AB903F5805302221A602046D5E9FF
S315080038F001122B7BFFF73EFF20462978BDE83840AA
S31508003900FFF7BCBF03F50053EEE700BF0080065083
S3150800391005810008FFFF1F00B0F1B64F70B50AD049
S31508003920824B98421DD0824840F2012101F04BFD9E
S315080039306FF0030070BD7F4B9968C26B12F4C06FBD
S3150800394015D091050FD5FD225A7009221A7000224A
S31508003950026493F90110012900D15A7093F9010004
S31508003960E8E7754BE8E75605EFD5FE22ECE71C7845
S31508003970082C00F2D680DFE814F009001F00450085
S31508003980530070007E009C00A700CB004C880A8874
S31508003990E5060AD5120A02F0060242F0F0020121F3
S315080039A019704263C1600120C4E702F0FE02A10754
S315080039B048BF42F00102F2E7160608D5802100F555
S315080039C00052D1634FF608721A80022318E0550692
S315080039D0E9D5402400F50052D4634A88D40604D5B4
S315080039E002221A700B784363DDE796076AD5072229
S315080039F01A701B7901EBC3031B89012BD3D108234A
S31508003A00C360D0E71506D9D45406CCD5402400F5B2
S31508003A100052D4634A88920754D503221A708CE759
S31508003A204C880A88E60643BF120A02F0060242F0EC
S31508003A30F00202F0FE02650709D51C7942F0010280
S31508003A4001EBC4010989012904BF0821C1600421C9
S31508003A5019700123C3604263A5E71406AED4520663
S31508003A60A1D5402400F50052D4634A88560729D5C3
S31508003A7007221A7097E71A795D8801EBC20426892E
S31508003A80AE420FD800240132D2B21A715C804C883B
S31508003A906507C2D4E40702D4012A7FF64EAF08228E
S31508003AA01A7092E76268691C5980525D4263062261
S31508003AB0DFE7160682D455067FF575AF402400F574
S31508003AC00052D4630522A9E794067FF56CAF202639
S31508003AD01A7900F5005401EBC2010A89456AE663C2
S31508003AE05C88A24281BF4968661C5E800D5559886C
S31508003AF08A42D4D90424012AC46004D0013A9142E6
S31508003B0001D10822C2601A78092A3FF420AF4AE791
S31508003B10D2057FF548AF4FF4807100F50052D163A6
S31508003B2013E74FF609321A8011E700BF00800650E6
S31508003B3005810008D80D0020E40D0020B0F1B64F2D
S31508003B4038B504460D4607D121B940F26A312648F0
S31508003B5001F039FC254B13E0254B98420DD040F275
S31508003B606931214801F02FFC25B940F26A311E4817
S31508003B7001F029FC6FF0030038BD00292BD01D4B3E
S31508003B802269D00744BF2022E2606A88910702D5DD
S31508003B9029890029EED0520702D52A8A002AE9D0B7
S31508003BA04FF480721A6000229D601A71C023E36088
S31508003BB06369DB0515D4202204F50053DA630E4A3F
S31508003BC02046DA634FF4FC6204F580531A64BDE8B4
S31508003BD03840FFF7A1BE40F26A31034801F0F3FB13
S31508003BE0CDE7636AE4E700BF05810008D80D002029
S31508003BF000800650E40D0020FFFF1F00072838B597
S31508003C0004460D4603DD7721084801F0DCFB1F2C2E
S31508003C1003D99121064801F0D6FB064A064B002D2A
S31508003C2008BF13460122A2401A6038BD5B8100080E
S31508003C30AE810008401004504020045010B50446D8
S31508003C4018B991211F4801F0BEFB23781B0613F013
S31508003C50604F03D092211B4801F0B5FBE3780F2B88
S31508003C6003D99521174801F0AEFB01212020FEF764
S31508003C7005FB01212120FEF701FB0122124B15202D
S31508003C805A60227812069A606178A27842EA01425E
S31508003C909A61FF229A6200229A631A644FF00042E0
S31508003CA05A654FF0FF3203F500531A6500F04AFDD6
S31508003CB01520E17800F054FDBDE81040152000F00D
S31508003CC0D9BC00BF5B81000800000450F8B5012686
S31508003CD0C3B2072805460C46174606FA03F603DD5F
S31508003CE0DE21344801F06FFB1CB9DF21314801F0B1
S31508003CF06AFB236823F47C1323F00F031BB1E2212C
S31508003D002C4801F060FBA37A1B0413F47C0F03D044
S31508003D10E721284801F057FBE37A1B0513F07E6F6D
S31508003D2003D0E921234801F04EFB237B5B0513F002
S31508003D30FE5F03D0EB211F4801F045FB1E4B27F021
S31508003D4003071E65AB00226803F1A04303F5882329
S31508003D505A60302202FB05F0637B00F1A04000F5B3
S31508003D6080200366E37AA27A1B0543EA0243227B94
S31508003D7043EA4253C365076703F048FD0F4B227AAF
S31508003D805E6502B11E64627A02B19E632279A379E6
S31508003D9043EA0243084A93616179E37943EA0143B6
S31508003DA006498B61064B56639E64BDE8F84003F0EE
S31508003DB028BD00BF5B810008002004500010045095
S31508003DC00000045010B5044620B940F23A211048C4
S31508003DD001F0F9FA2378C3B1012B03D0022B14D0D2
S31508003DE0032B04D13F236278D340DB0704D440F287
S31508003DF03D21074801F0E7FA0122637821789A40C5
S31508003E0030235943034B5A5010BD40F2FF33EAE7BB
S31508003E100182000840E0035010B5044620B940F27C
S31508003E205A21124801F0CFFA2378E3B1012B03D0C7
S31508003E30022B18D0032B04D13F236278D340DB072B
S31508003E4004D440F25D21094801F0BDFA30222378F6
S31508003E50534303F1A04303F57033586C6378D84095
S31508003E6000F0010010BD40F2FF33E6E701820008CA
S31508003E7010B5044620B940F26E21124801F0A3FAA3
S31508003E802378E3B1012B03D0022B18D0032B04D1DE
S31508003E903F236278D340DB0704D440F271210948F6
S31508003EA001F091FA30222378534303F1A04303F536
S31508003EB07033186C6378D84000F0010010BD40F2EA
S31508003EC0FF33E6E701820008034BD3F82424D3F82E
S31508003ED020041040704700BF00C0035010B50446C8
S31508003EE020B94FF449711C4801F06DFA23782BB9B3
S31508003EF06078053818BF4FF0FF3010BD012B08D188
S31508003F006378012B1CD0032B14BF4FF0FF3004201D
S31508003F10F3E7022B09D16378A3B1052B14D0072B3D
S31508003F2014BF4FF0FF300820E7E7032B0ED1637864
S31508003F30022B0ED0052B14BF4FF0FF300A20DCE70A
S31508003F400320DAE70620D8E70720D6E74FF0FF3048
S31508003F50D3E70920D1E700BF01820008064BDA6ED5
S31508003F6002F03002202A06D0DA6E22F0300208B1BA
S31508003F7042F01002DA667047004000502DE9F04121
S31508003F80037804460D46164613B3012B03D0022BBD
S31508003F901ED0032B04D13F236278D340DB0703D41A
S31508003FA05D21274801F00FFA264BD3F810331BB1D1
S31508003FB06021234801F007FA0F2D0CD8DFE805F039
S31508003FC037323232323232323232323232323232BE
S31508003FD040F2FF33E0E7B421194801F0F4F94FF055
S31508003FE00008204606B301F07BFE0F216778237888
S31508003FF0072F03EB430388BF083F4FEA0313124812
S3150800400095BFBF00BF0004330C3308FA07F2B94066
S31508004010184401F0E6FB85B9204656B1BDE8F041E3
S3150800402001F05EBEA846DCE7FFF7CCFEDDE7A84652
S31508004030DBE7BDE8F041FFF7C5BEBDE8F08100BF8C
S315080040405E82000800C0035030C003502DE9F047D7
S31508004050037806460C461546002B50D0012B03D094
S31508004060022B4CD0032B04D13F237278D340DA07B6
S3150800407004D44FF49C714A4801F0A5F9022D06D9DB
S31508004080042D04D040F23911454801F09CF9454FFA
S31508004090D7F8103323B14FF49D71414801F093F9D5
S315080040A0002C2FDB73786340032B04D94FF49F71E0
S315080040B03B4801F088F90127072C05F005094FF060
S315080040C00308327805F0060507FA04F726DC4FEAF6
S315080040D0840A08FA0AF84146334802FA0AF201F055
S315080040E080FB7278414602F00302304802FA0AF26F
S315080040F001F077FBB9F1000F37D12D4B36E040F2CE
S31508004100FF33B2E7631C06D1D7F82414707801F0A0
S3150800411077FB041ECFDA2046BDE8F087A4F1080A2B
S315080041204FEA8A0A08FA0AF84146224802FA0AF2C7
S3150800413001F057FB7278414602F003021E4802FA64
S315080041400AF201F04EFBB9F1000F14D01F2C0CDD5A
S3150800415074211A4801F037F9194BC3F8107495B948
S315080041607421164801F02FF903E0154BC3F81074B3
S315080041706DB90F4B0CE01F2CBFDD74210F4801F001
S3150800418022F90B4BE9E774210C4801F01CF90C4B9A
S31508004190C3F814740123064AA340C2F82034BAE7C8
S315080041A05E82000800C0035000C4035008C40350D0
S315080041B000E0035004C403500CC40350BA8200083C
S315080041C000D0035070B5154E054630420C4604D053
S315080041D040F28911124801F0F6F8344204D04FF43F
S315080041E0C5710F4801F0EFF80E4B2C40D3F8302478
S315080041F0012022EA0502C3F83024D3F830241443F8
S31508004200C3F83044D3F82C242A43C3F82C24FFF7E8
S31508004210A5FE054BC3F8205470BD00BFFFFF00F094
S315080042205E82000800C0035000E00350F8B503782A
S3150800423005460F46164613B3012B03D0022B1ED094
S31508004240032B04D13F236A78D340D80704D440F21D
S315080042509B11174801F0B7F8164BD3F8103323B162
S315080042604FF4CE71124801F0AEF82846FFF736FE35
S31508004270791C044606D1421C08D12046F8BD40F2F6
S31508004280FF33E0E7431CF8D0B8420ED12846032195
S3150800429086F00102FFF772FE012004F1100306FA08
S315080042A003F19840FFF78EFFE7E74FF0FF34E4E7A6
S315080042B05E82000800C00350054B9A689107FCD43B
S315080042C05A689207F9D4DA69002AF6D1704700BF0E
S315080042D000800A5010B5074C6368DB0704D44FF416
S315080042E09F71054801F06FF801F04EFD0223236126
S315080042F010BD00BF00800A501683000808B5FFF7F6
S31508004300DBFF0122024B03F580514A601A6108BDA2
S3150800431000800A50044B10B55C68012C03D1FFF7E6
S31508004320D9FF024B5C6010BD00800A5000A00A50FD
S3150800433038B5074DFFF7C0FF6B680446012B03D15C
S31508004340FFF7E8FFFFF7B8FF2378EB6038BD00BF3B
S3150800435000800A5038B505460C4601F01FFDBDB968
S315080043606268237812B1127843EAC203627843EA94
S315080043704203A26812B1127843EA8213E27843EA4A
S315080043808203226912B1127843EA4223014A9364EE
S3150800439038BD00BF00800A5030B58D488BB003F099
S315080043A040FA20B14FF44E718A4801F00CF86C4679
S315080043B0894D0FCD0FC42B68884A2360FF238DF8DB
S315080043C00130D2F84C3113F4802340F0F580D2F84E
S315080043D050218DF801309DF801306C46FF2B08BF3F
S315080043E0252368467E4D8DF80130FEF7BBFA32204C
S315080043F0FEF71AFB0FCD0FC40FCD0FC495E80300C7
S3150800440084E80300754BD3F84C21120340F1B880B9
S31508004410A3F5FE431C88B4F5807F28BF64248DF875
S315080044201940FEF799FA044484F308046D488DF898
S315080044301840FCF709FA6846FEF77CF93220FEF7C1
S31508004440F9FA6948FEF71CFC6848FEF7A7FC6848B5
S3150800445003F0E7F920B140F2CB115E4800F0B3FF54
S31508004460644C0020FEF7ECFAFEF7C0FB236F002031
S3150800447023F0070343F003032367FEF7E1FB236FEB
S315080044805D4923F4744323675C4BD3F8FC2012F090
S31508004490807279D1D4F8803023F0030343F0010306
S315080044A0C4F88030C1F88020524CD4F8203123F06B
S315080044B0070343F00203C4F82031D4F8283123F067
S315080044C0070343F00203C4F82831D4F8803123F0F7
S315080044D0030343F00103C4F88031D4F8403123F0D4
S315080044E0030343F00203C4F84031D4F8603123F0E3
S315080044F0030343F00203C4F86031D4F8403223F0D2
S31508004500030343F00203C4F84032D4F8003223F020
S31508004510070343F00203C4F80032D4F8083223F044
S31508004520070343F00203C4F80832D4F8703223F0C4
S31508004530030343F00103C4F87032D4F8203223F0A1
S31508004540070343F00103C4F82032FEF7DBF84FF007
S31508004550E0220020136943F004031361D4F86032A3
S3150800456023F0070343F00103C4F86032D4F8943209
S3150800457023F0070343F00103C4F894320BB030BDAF
S31508004580D3F85041E4B24AE7D3F8FC2022F080720F
S31508004590C3F8FC20D4F8802022F0030242F001027E
S315080045A0C4F880200022C1F88020D3F8FC2042F00D
S315080045B08072C3F8FC2077E74FF07E6393F89C205F
S315080045C093F99C30002BFFF606AF8DF8012002E721
S315080045D00485000846840008C08400080080E00FAF
S315080045E0D4840008C017530200B4C404C0EA2101E9
S315080045F008850008008000500090005000ED00E09B
S3150800460007B5094B18689A889B7900906846ADF8F3
S3150800461004208DF80630FEF749FD0C20FEF77EFDD6
S31508004620002003B05DF804FBFC84000813B50024E1
S31508004630064A6846536F43F00103536700948DF8A2
S315080046400440FEF767FC204602B010BD004000504B
S315080046500028ABBF00F16040054B00F5614000F053
S315080046600F00ACBF90F80003185C0009704700BF44
S3150800467014ED00E04C2810B5044608D8012361095A
S31508004680074A04F01F04A34042F8213010BD4FF436
S315080046909871044800F097FE002CF7DBEEE700BFA0
S315080046A000E100E0448500084B2810B5044604D90B
S315080046B040F23B11064800F086FE064B621153F89D
S315080046C0220004F01F04E040C04300F0010010BDC2
S315080046D04485000800E100E000F10C03572B10B5F3
S315080046E0044604D940F24B11144800F06CFEEFF36F
S315080046F01083DB0702D50122104610BD2046FFF7BE
S31508004700D3FF02460028F6D160B2FFF7A1FF0146A3
S31508004710EFF3118313B1B0EB131FECD2084B5B68B0
S31508004720C3F30803002BE7D0103B58B2FFF790FFFE
S31508004730814234BF00220122DEE700BF448500081B
S3150800474000ED00E0002808DB01224309034900F0D8
S315080047501F008240603341F82320704700E100E0E3
S3150800476038B500F110035C2B04460D4604D94FF406
S31508004770EF710E4800F027FE0F2D04D940F2DF1125
S315080047800A4800F020FE60B20028ACBF00F1604085
S31508004790074B4FEA0515EDB2ABBF00F5614000F0D7
S315080047A00F0080F800531D5438BD00BF448500082B
S315080047B014ED00E010B503F029F80A4B1A786AB927
S315080047C001226FF004041A7003F01BF82046052135
S315080047D00134FFF7C5FF4C2CF8D110BDBDE81040D9
S315080047E003F00FB8591B002007B5684600F00AFA0F
S315080047F0DDE900010022034B03B05DF804EB00F08D
S3150800480037BA00BFF00D00202DE9F04F9B46531C28
S3150800481005460E46174687B035D170B308244FF0C3
S315080048200008784BCDF8148083F80080109B002B85
S3150800483000F0DF80C3F80080002E00F0DC806B6893
S31508004840B34240F2D88002F0E1FF073605AB26F006
S3150800485007063A46CDE9008382465B463146284636
S3150800486001F044F8059F814607B1F8B9504602F0B1
S31508004870C8FF192007B0BDE8F08F40F2A7216248AB
S3150800488000F0A1FDCAE7531EB3F5007F01D21A4214
S3150800489004D040F2A2215C4800F095FD25B940F20B
S315080048A0A721594800F08FFD3C46B8E7B7F80280C3
S315080048B029694FEAC802C0EBC8080139B8F1270FC1
S315080048C029617BD9BBF1000F51D1864206F1080850
S315080048D048D022463946284600F0B2FF04460590DD
S315080048E0059B9844404600F0FDFF059906F10F0028
S315080048F04A88C308A2EBD002A8F80220CA88A8F8FA
S315080049000430002A30D0D31A9BB201EBC202A8F8B1
S31508004910063093808B88F608A380B8F804303A46A8
S31508004920E380414600232846668001F02AF8AB68F2
S315080049300833AB60237843F0010323702B690133F6
S315080049402B616288AB68504603EBC203EA68AB602A
S31508004950934288BFEB6002F054FF109B0834002096
S315080049601C6087E73C46BBE7A8F80620D2E707EBBA
S3150800497008042046039200F0B5FF09F10701C908AB
S315080049800598618008F10701C908A180C18899B115
S31508004990C900039ACE1DB21A02EB0903C3F3CF036B
S315080049A00144E3808B80A38808F1FF384FEAD808D2
S315080049B0A0F80280C380BAE7E180F4E7BBF1010FF3
S315080049C01BD107F10803B3FBF4F204FB1233B3B1AE
S315080049D022463946284600F033FF044623783A46ED
S315080049E043F00103237021460123284600F0C9FF3E
S315080049F0A7E722203EE721203CE78642E8D13C464D
S31508004A00ECE700BFC81D0020C085000807B5009365
S31508004A1013460A4601460348FFF7F6FE03B05DF85B
S31508004A2004FB00BFF00D00202DE9F74F0C460546A4
S31508004A3020B940F28531724800F0C5FC002C00F020
S31508004A40DC80D5E9056802F0E1FE14F8087C34F844
S31508004A5006CCFB07009002D5BCF1000F06D10098E2
S31508004A6002F0CFFE012003B0BDE8F08FAB68D5F8A1
S31508004A70109034F804ECA3EBCC0B09F10103A4F174
S31508004A8008010CF10102C5F808B02B61BEF1000F50
S31508004A9039D0A1EBCE03D888B3F802A001901878D4
S31508004AA007F00207C00723D41FBB0198A0EB0A072B
S31508004AB0012F28D10CF10202ABF108075244C5F8C0
S31508004AC01090AF6034F802ECBEF1000F1DD114F857
S31508004AD0081C24F806EC6EF3000104F8081C013AD9
S31508004AE05A801A786EF300021A700022DA8040E0C3
S31508004AF04FB114F8087C72446FF3410704F8087C38
S31508004B0000279F80DEE70B46DCE701EBCE0AD5E9F6
S31508004B10007007EB0009CA450ED314F8081C013AC1
S31508004B206FF3000104F8081C002124F8061C5A80BB
S31508004B301A7861F30002D7E711F83E10574611F0CC
S31508004B4001012FD014F8081C013A6FF3000104F88C
S31508004B50081C002192B224F8061C5A801A7861F3C0
S31508004B6000021A70C3F107023A44C2F3CF02DA8090
S31508004B70BA80002E3FD0B3423DD37288002A08BFC0
S31508004B801E46B8F1000F06D0434504D8B8F80220EF
S31508004B90002A18BF43460098C5E9056302F031FEAE
S31508004BA0002060E7AEEB0C0EBEF1010FCAD1BAF8D1
S31508004BB002C0AAF802109444BAF80620CAB10AEB51
S31508004BC0C20700212A69013A2A61AA68083AAA6036
S31508004BD014F8082C24F8061C6FF3000204F8082CB5
S31508004BE01A78A3F802C061F300021A70002FB9D12F
S31508004BF07BE71746E5E71E46C3E7222033E700BFF3
S31508004C00C08500080249034A0160521A426070478B
S31508004C10D81D00200000042038B503690D46144647
S31508004C200BB33AB999B9046824B940F239110F4857
S31508004C3000F0C9FB2378D90707D555B9E38893B19E
S31508004C4004EBC3042378DA07F8D4204638BD846910
S31508004C50EAE7012D07D1A3882BB1A4EBC304237877
S31508004C60DB07F8D4F1E70024EFE700BF2E8600083B
S31508004C70F8B50D4617461C46064618B111B1042A62
S31508004C8000D823B940F28F110E4800F09CFB002192
S31508004C903046C4E90065C4E90211C4E90566216124
S31508004CA02777616200F01EFE2369013DED08013396
S31508004CB075802361A36808460833A360E368083350
S31508004CC0E360F8BD2E86000800487047F00D002006
S31508004CD008B500F03AFB034B1868BDE8084002F037
S31508004CE0A1BE00BF180E002030B5094D8BB001AC2F
S31508004CF00FCD0FC40FCD0FC42B68002101AA05489C
S31508004D00236002F03CFE044B18600BB030BD00BFB8
S31508004D10A4860008D14C0008180E002070B502F0D1
S31508004D2075FD144E05463478FCB9134B1C60134BBD
S31508004D301C60134B1C6000F02BF8012002F0DAFD12
S31508004D4001F000FA0F4B0246186020B9284602F017
S31508004D5058FD232070BD234640F2E7310A4800F08B
S31508004D6099F80A4B186001233370284602F049FD6A
S31508004D700020EFE75C1B0020240E0020200E0020F8
S31508004D802C0E0020280E002018FCFFFF1C0E002009
S31508004D9010B5002486B01422214601A88DF80040DB
S31508004DA000F07DFE012313488DF8043002F039FD2A
S31508004DB0BFF34F8F6846FFF7BBFA204601A98DF867
S31508004DC00440FFF7C7FA20460F2101F007F80F2124
S31508004DD0204601F011F8FFF791FA00F0D5FF064BCF
S31508004DE043209C61FFF7AEFC4320FFF743FC06B067
S31508004DF010BD00BF0485000800800A5010B504469F
S31508004E0000F098FE4FF47A729042B0FBF2F105D2A8
S31508004E103621BDE810400C4800F0D5BA0B4BB3FB61
S31508004E20F1F30B49884201D93C21F2E702FB04F071
S31508004E30B0FBF3F0022806D9BDE810400323B0FB07
S31508004E40F3F0FBF795B910BD2E87000840420F0016
S31508004E50E7CD9A3B40F6B131014800F0B4BA00BF3D
S31508004E608C870008002307B50193084B1B6801339C
S31508004E7004D040F22131064800F0A5FA02F038FFC6
S31508004E80019B002BFCD003B05DF804FB5C1D0020E1
S31508004E902589000853B94AB9002908BF00281CBF4C
S31508004EA04FF0FF314FF0FF3000F082B9ADF1080C3A
S31508004EB06DE904CE00F006F8DDF804E0DDE902232A
S31508004EC004B070472DE9F04F099D0C46002B4DD1D3
S31508004ED08A420F4684469646B2FA82F360D94BB1A7
S31508004EE002FA03FEC3F120029F4000FA03FC20FAEF
S31508004EF002F217434FEA1E461FFA8EF44FEA1C4287
S31508004F00B7FBF6F106FB117701FB04F042EA07420C
S31508004F10904208D91EEB020201F1FF3702D29042F5
S31508004F2000F231813946121A1FFA8CFCB2FBF6F0F0
S31508004F3006FB102200FB04F44CEA024C644508D92F
S31508004F401EEB0C0C00F1FF3202D2644500F21E8102
S31508004F50104640EA0140ACEB040C002125B12CFABE
S31508004F6003F30022C5E90032BDE8F08F8B4205D96C
S31508004F700DB1C5E9000100210846F5E7B3FA83F14A
S31508004F8000294DD1A342C0F0F380904280F0F08012
S31508004F90064623460846002DE6D0C5E90063E3E742
S31508004FA0002B40F0A3808A1A4FEA1E471FFA8EF696
S31508004FB00121B2FBF7F407FB14204FEA1C4242EA30
S31508004FC0004206FB04F090420FD91EEB020204F1E0
S31508004FD0FF382CBF4FF001094FF00009904203D962
S31508004FE0B9F1000F00F0CC804446121A1FFA8CFC67
S31508004FF0B2FBF7F007FB102200FB06F64CEA024C60
S31508005000664508D91EEB0C0C00F1FF3202D2664544
S3150800501000F2B3801046ACEB060C40EA04409DE76C
S31508005020C1F120068B4004FA01FE22FA06F720FA9F
S3150800503006FCF4408A401F434EEA0C0300FA01FEC0
S315080050404FEA17484FEA13491FFA87FCB4FBF8F0F2
S3150800505008FB104449EA044400FB0CF9A1450ED9A3
S315080050603C1900F1FF3A2CBF4FF0010B4FF0000B33
S31508005070A14503D9BBF1000F00F08B805046A4EB85
S3150800508009041FFA83F9B4FBF8F308FB134403FB7E
S315080050900CFC49EA0444A44506D93C1903F1FF3837
S315080050A001D2A4457BD8434643EA0040A4EB0C044E
S315080050B0A0FB02984445CC46434602D306D1CE45CA
S315080050C004D20138B9EB020C68EB0703002D6CD04B
S315080050D0BEEB0C0264EB030422FA01F304FA06F6AB
S315080050E0CC4000211E43C5E900643DE702FA03FEF1
S315080050F0C3F1200104FA03F200FA03FCCC404FEA9C
S315080051001E4720FA01F11FFA8EF6B4FBF7F00A43A0
S3150800511007FB1044110C41EA044100FB06F48C42DB
S315080051200ED91EEB010100F1FF382CBF4FF0010923
S315080051304FF000098C4202D9B9F1000F2CD0404635
S31508005140091B92B2B1FBF7F407FB141142EA0142BC
S3150800515004FB06F1914207D91EEB020204F1FF385F
S3150800516001D291421ED84446521A44EA004120E729
S31508005170861A64EB030301200DE7F44402384AE774
S31508005180023C724431E702397244CCE6F4440238F0
S31508005190DFE602383C4472E702387144D0E7023B46
S315080051A03C4481E7023C7244DEE72946DCE600BF60
S315080051B0704700BF08B5064B044613B10021AFF38C
S315080051C00080044B1B6803B19847204600F0FCF8A2
S315080051D000000000FC1A0020242B2DE9F047864623
S315080051E0904601D8012B06D100F07EF816230360FD
S315080051F00020BDE8F0870D4635482A4615F8014BCC
S31508005200065D16F00806F8D12D2C24D12C78012637
S31508005210951C2BBB302C30D00A2306F1004C0022FB
S315080052200CF1FF3C1046BCFBF3F903FB19CAA4F1C9
S315080052303007092F28D83C46A34234DD571C07D02F
S3150800524081452DD301D1A2452ADB00FB034001226B
S3150800525015F8014BEBE72B2C04BF2C78951CD8E7E7
S31508005260102BDAD1302CD8D12A7802F0DF02582A4E
S31508005270D3D16C7810230235CFE72B7803F0DF0300
S31508005280582BF6D00823C8E7A4F14107192F01D8EF
S31508005290373CD1E7A4F16107192F04D8573CCBE76F
S315080052A04FF0FF32D4E7531C08D122236046CEF8CC
S315080052B00030B8F1000F9CD0691E06E006B14042E6
S315080052C0B8F1000F95D0002AF6D1C8F8001090E77B
S315080052D0A989000813460A46014602480068FFF7EE
S315080052E07BBF00BF601D0020014B1868704700BFD8
S315080052F0601D002070B50D4D00260D4C641BA410D2
S31508005300A64209D10B4D00260B4C02F029FD641B61
S31508005310A410A64205D170BD55F8043B013698473E
S31508005320EEE755F8043B01369847F2E7CC1D002016
S31508005330CC1D0020CC1D0020D01D002008B5FBF791
S3150800534075F9BDE80840FBF77DB808B500F058FBCD
S31508005350FFF7F4FF00F08BFB00B908BD00F04FFB28
S31508005360F8E77047704770477047704708B5FBF70E
S31508005370E9F900F05FFABDE80840FBF7D9B97047CC
S3150800538000F054BF08B5FBF7E5FAFBF78FF9FBF712
S315080053909BF9FBF7A7F9BDE80840FBF7B3B900F09E
S315080053A002B8704770470F207047FEE700239A42FD
S315080053B000D1704710B550F8234041F82340013317
S315080053C09A42F8D110BDFEE7FEE7436803B11847D5
S315080053D022207047704737B50D680C46AB88ADF884
S315080053E004302B78022B0CD00DF1030101A8FBF732
S315080053F099FB9DF80330204683F001032B70FFF7D5
S31508005400E9FF03B030BD03681878704713B5046820
S31508005410A388ADF804302378022B15D00DF10301CB
S3150800542001A8FBF77FFBA2799DF80330012A13D167
S31508005430618843EA41034FF6E07163F03F039BB28C
S315080054408B4203D12270638002B010BD4FF6DF7223
S315080054509342F8D10022F5E7002AF5D183F001033B
S315080054602370F1E703681A78022A03D100225A80CA
S31508005470FBF7FAB9704710B504682378022B07D0F2
S31508005480A379022B02D16079FBF7EEFB0223237086
S3150800549010BDD0E90003184707B503788DF8043026
S315080054A043788DF80530837801A823B9FBF7DAFA33
S315080054B003B05DF804FBFBF7A9FAF9E707B503782B
S315080054C08DF8043043788DF80530837801A823B920
S315080054D0FBF79CFA03B05DF804FBFBF7C3FAF9E7A0
S315080054E007B503788DF80430437801A88DF80530A0
S315080054F000F092FB03B05DF804FB13B5044603788D
