S0240000626C696E6B5F6B65726E656C5F6672656572746F735F70726F6A6563742E733337C1
S3150800000000040020ED0A00081762000817620008BD
S3150800001017620008176200081762000817620008CE
S315080000201762000817620008176200084D89000861
S315080000301762000817620008F1880008E58A0008B8
S31508000040176200081762000817620008176200089E
S31508000050176200081762000817620008176200088E
S31508000060176200081762000817620008176200087E
S31508000070176200081762000817620008176200086E
S31508000080176200081762000817620008176200085E
S31508000090176200081D150008176200081762000895
S315080000A0176200080D110008ED1000081762000815
S315080000B0176200081762000817620008176200082E
S315080000C0176200081762000817620008176200081E
S315080000D0176200081762000817620008176200080E
S315080000E017620008176200081762000817620008FE
S315080000F017620008176200081762000817620008EE
S3150800010017620008176200081762000817620008DD
S3150800011017620008176200081762000817620008CD
S3150800012017620008176200081762000817620008BD
S3150800013017620008176200081762000817620008AD
S31508000140176200081762000817620008878A000805
S31508000150176200081762000817620008176200088D
S31508000160176200081762000817620008176200087D
S31508000170013800D0FCE770470348044B834202D09D
S31508000180034B03B1184770470024002000240020C1
S3150800019000000000064B0749C91A891048BF0131FB
S315080001A0491003D0044B0BB101481847704700BFEC
S315080001B000240020002400200000000010B5064C92
S315080001C0237843B9FFF7D8FF044B13B10448AFF3BC
S315080001D000800123237010BD0421002000000000C8
S315080001E0549D000808B5054B1BB105490548AFF3F2
S315080001F00080BDE80840FFF7CDBF00BF0000000043
S3150800020000040020549D0008A3F5803A704700BFFB
S31508000210174B002B08BF134B9D46FFF7F5FF002130
S315080002208B460F461348144A121A06F09DFB0E4BCE
S31508000230002B00D098470D4B002B00D09847002084
S31508000240002104000D000D48002802D00C48AFF329
S31508000250008005F059FD2000290006F02DFB05F069
S3150800026093FC00BF0000080000000000000000002A
S3150800027000040020000400202C22002000000000BA
S315080002800000000030B5002485B00546019405F04D
S31508000290D7FF012818D10D4B01AA18680C4B02A9E3
S315080002A09D424FF0040303930CBF00234FF07E5387
S315080002B00293234607F06AF9019B2BB14FF0E0231E
S315080002C04FF08052C3F8042D05B030BD78100020D9
S315080002D09C9000082DE9F0432DED028B584A8DB00D
S315080002E01188927802AB8DF80A20564A564DCDE908
S315080002F007230323ADF80810286807A9ADF82430AA
S315080003004FF0FF3400F07EFF9FED508A504F514E5C
S315080003102246386803A907F0B5F80128814640F057
S315080003208A8002224C4903A806F00CFB8046002866
S3150800033063D107238DF8003001AB0A93022328689E
S3150800034007A9ADF82C300796CDF820D0ADF8249043
S3150800035000F058FF03464148002B45D19DF804207C
S315080003600068812A4FF0030206920CBF4FF07E52B6
S31508000370002205921A4605A906F0E6FF0222384928
S3150800038003A806F0DFFA30B10222364903A806F0C0
S31508000390D9FA0028BCD104238DF800306B440A939F
S315080003A04FF001080223286807A9ADF82C300796F4
S315080003B0CDF820D0ADF8248000F024FF03460028AD
S315080003C0A6D1BDF8042005A907EE902AF8EE677AAB
S315080003D067EE887A02462148CDED057A0068CDF8A1
S315080003E0188006F0B1FF93E70323069300234246DD
S315080003F005930068434605A9BEE70222194903A8E2
S3150800040006F0A0FA68B904990029B7D04FF47A70B3
S315080004104FF47A72002381FB000105F025FA0446A1
S31508000420ACE70222104903A806F08CFA002808BF98
S315080004304FF0FF34A2E7631C3FF46AAFABE700BF97
S315080004401F8F00082000010040220020FAED6B3DB6
S31508000450400D002020000400F88E000878100020C7
S31508000460018F0008FB8E0008FE8E00081FB50B4B97
S31508000470A02202930A4B0B49019301230A480093D1
S31508000480002307F005FB30B95821084805B05DF888
S3150800049004EB05F0CEBE05B05DF804FB1804002099
S315080004A070040020048F0008D50200080F8F00088A
S315080004B02DE9F04F4FF0FF346A4F6B4E6B4D8DB000
S315080004C02246386803A906F0DDFF0128804640F079
S315080004D0B7800222664904A806F034FA8146002845
S315080004E075D18923286807A9ADF824808DF80030CE
S315080004F00796CDF820D000F085FE4FF00208824618
S31508000500DFF884B100285CD10A2007F075FD01AB3D
S3150800051008930623286807A9ADF82430ADF81E808D
S3150800052000F070FECDF818800346002845D14FF03C
S315080005307E5205921A46DBF8000005A906F004FF6C
S3150800054002224C4904A806F0FDF930B102224A49B4
S3150800055004A806F0F7F90028B2D1642007F04CFD8C
S315080005600223ADF81E3001AB08930623286807A9B5
S31508000570ADF8243000F046FE03460028A0D1BDF8A9
S3150800058004109FED3E7A49BA8AB207EE902AF8EE31
S31508000590677ADFED3B6A67EE877A87EEA67ADFED44
S315080005A0397A77EE677A02460690374805A90068D1
S315080005B0CDED057A06F0C8FE82E70023059353467B
S315080005C0B8E70023CDF8188005934B46B2E7022218
S315080005D0284904A806F0B6F960B9FD2307968DF8F0
S315080005E00030CDF820D0ADF82480286807A900F09F
S315080005F009FEA5E70222204904A806F0A3F9A8B92E
S31508000600039949B14FF47A704FF47A72002381FB4B
S31508000610000105F029F90446FD238DF80030012371
S315080006200796CDF820D0ADF82430DEE70222174928
S3150800063004A806F087F9002808BF4FF0FF347FE7C3
S31508000640631C3FF43DAFFD238DF800300123286875
S3150800065007A90796CDF820D0ADF8243000F0D2FDD2
S315080006600A207BE7440D0020880001004022002074
S31508000670F88E0008018F0008FB8E000800002F4343
S3150800068000FF7F470000344278100020FE8E0008E5
S315080006901FB50B4BA02202930A4B0B49019301236A
S315080006A00A480093002307F0F3F930B95B2108489C
S315080006B005B05DF804EB05F0BCBD05B05DF804FBBC
S315080006C0F006002048070020048F0008B10400083F
S315080006D0228F0008F0B5ABB000F0E4F9574D584941
S315080006E028600AA806F05DF90AA806F052F90AA9D0
S315080006F00246286801F0B8FB52490AA806F051F9E3
S315080007000AA806F046F90AA90246286801F0ACFBD1
S3150800071000244D4E4D4F01220DF10701286801F0C6
S3150800072071FB012228680DF1070101F09DFB9DF878
S3150800073007300A2B01D00D2B77D104F1A8030DEB56
S31508000740030400230222314606A804F8903C06F06A
S31508000750F9F80446D8B9314603A806F022F93C4808
S3150800076002A923464FF0FF320068029406F0ECFD1A
S31508000770314604A806F015F9059423464FF0FF32D2
S31508000780344804A9006806F0DFFD0024C3E7032205
S31508000790394606A806F0D6F8044628B92E4905A80B
S315080007A006F0FFF8049417E003222C4906A806F081
S315080007B0C9F8044608B92849DBE70322284906A8E8
S315080007C006F0C0F8044668B9264905A806F0E9F80F
S315080007D007A806F0B3F8049023464FF0FF321C48EA
S315080007E004A9CFE70322204906A806F0ABF8044679
S315080007F040B91C4904A806F0D4F807A806F09EF8E4
S315080008000590BAE70322194906A806F09BF804469C
S3150800081008B91749C3E70322164906A806F092F84D
S3150800082004460028B1D11249A3E70E2CADD004F135
S31508000830A8026A4402F8903C01346CE7480D00208F
S31508000840328F00083D8F0008F88E0008728F000866
S31508000850440D0020400D0020018F0008768F000807
S315080008607A8F0008FB8E00087E8F0008828F0008AA
S31508000870FE8E0008868F00081FB500240821134B3A
S31508000880134A0520009406F04DFF124B0821186004
S31508000890114A124B0520009406F044FF104BA02283
S315080008A01860104B10490293104B1148019301230D
S315080008B00093234607F0ECF830B967210D4804B0D9
S315080008C0BDE8104005F0B5BC04B010BDF00C002022
S315080008D02D210020440D002005210020A00C002019
S315080008E0400D0020C8090020048F0008200A0020B7
S315080008F0D50600088A8F000880B5A2B000F0D2F8A5
S31508000900294C2A4E2A4D2B4F20604FF0FF3269465C
S31508000910306806F0B7FD019B8BB9009804F04CFFD0
S3150800092002460B46244902A805F040F902A806F03B
S3150800093030F802A90246206801F096FAE5E7012B8D
S3150800094006D1009804F038FF0B4602461B49EAE731
S31508000950022B14D1DDED007AB7EE007AF4EE477A71
S31508000960F1EE10FA04D1164902A806F01AF8DDE7E6
S31508000970F5EE407AF1EE10FAC7D11249F4E7032BE7
S31508000980C3D1DDED007AB7EE007AF4EE477AF1EEE0
S3150800099010FA01D13946E7E7F5EE407AF1EE10FA9A
S315080009A0B3D12946E0E700BF2410002078100020C4
S315080009B04B9000082A9000089C8F0008B88F000802
S315080009C0D38F0008FF8F00081FB5002408210F4B9E
S315080009D00F4A0520009406F0A5FE0E4BA0221860CB
S315080009E00D4B0E4902930E4B0E48019301230093BB
S315080009F0234607F04DF830B960210B4804B0BDE82E
S31508000A00104005F016BC04B010BD00BF2810002029
S31508000A1055210020781000204C0D0020048F000876
S31508000A20A40D0020F90800087290000808B50448CB
S31508000A3007F0B7FFBDE80840024800F077BB00BFE3
S31508000A408C9700082C22002008B5044805F0F3FB13
S31508000A50BDE80840024805F0EEBB00BF9C900008C0
S31508000A6084900008014805F04EBC00BFB490000809
S31508000A7018B1034B1860002070472520704700BF47
S31508000A807C10002010B5054C0549206801F03EF899
S31508000A902068BDE81040FFF7EBBF00BF70230020B9
S31508000AA044220020014B1868704700BF7C100020C4
S31508000AB008B5034807F075FFBDE8084005F087BB91
S31508000AC08C970008014807F06CBF00BF8C97000898
S31508000AD00348044A0449121A921005F09DBB00BF48
S31508000AE070010008700100082C22002008B5154B7B
S31508000AF083F30A8800F030F8FFF7EAFF124B134930
S31508000B008B4212D30020124B12498B4218D3FFF79F
S31508000B107FFB186850F82240586840F82240013296
S31508000B2098688242F5D30C33EAE70022F8E71C6896
S31508000B3044F8220001325C68A242F8D30833E4E79D
S31508000B400022F8E7000000205C9D0008689D000868
S31508000B50689D0008689D00084FF48041124B134AAF
S31508000B6070B59A60D3F88820114D42F47002C3F824
S31508000B708820104A05F5005491664FF0FF32226628
S31508000B800D4A62660222C3F8D020BFF34F8FBFF327
S31508000B906F8F4FF44036002003F094FF0020E66084
S31508000BA003F028FF2E6170BD00ED00E0000000088C
S31508000BB00080004400900050F7FF3700014B186092
S31508000BC0704700BF78230020054B1860054B1B6F44
S31508000BD003F00703032B01D106F006B8704700BFE0
S31508000BE0802300200080005030B5056887B0AB88A8
S31508000BF004461E48ADF80C3007F0D3FE002201214A
S31508000C0003A800F083F80DF10B0103A800F04AF9D8
S31508000C109DF80B3083F001032B70AB79022B19D1A9
S31508000C204FF0FF330022CDE904330094104B04A99A
S31508000C3003A800F0FFF9049B009401330C4B0CD178
S31508000C40042205A903A800F05FF918B16F21094825
S31508000C5005F0EFFA002007B030BD012205A903A868
S31508000C6000F052F90028F5D07E21F0E78C970008AD
S31508000C704B620008CC9000082DE9F04104460C258B
S31508000C804FF00108124E0CB314F001000BD00020EF
S31508000C9024F0010405FB00625768002FF3D0916821
S31508000CA0C0B2B847EFE72246013020284FEA520281
S31508000CB001D0D307F8D508FA00F20F2824EA02046F
S31508000CC0E8D9103805FB0062B432E5E7BDE8F081E3
S31508000CD0E410002008B50C4807F063FE192003F05D
S31508000CE0A3FE28B1192003F0EDFE192003F082FEB9
S31508000CF01A2003F099FE28B11A2003F0E3FE1A2001
S31508000D0003F078FE002008BD8C9700082DE9F04115
S31508000D100E469046044638B993211A4805F089FAD2
S31508000D2022252846BDE8F0810F290CD8037883B11F
S31508000D30012B03D0022B0CD0032B04D13F2362785E
S31508000D40D340DB0708D497210E4805F072FA21250F
S31508000D50E7E740F2FF33F2E70B4BD3F810532DB118
S31508000D609B21084805F065FA0225DAE707F00EFE2A
S31508000D70074642462046314603F0C0FA384607F091
S31508000D8000FECEE73091000800C0035038B504468F
S31508000D9028B91348E42105F04CFA222038BD037817
S31508000DA083B1012B03D0022B0CD0032B04D13F2394
S31508000DB06278D340DB0708D40948E82105F039FAF8
S31508000DC02120EBE740F2FF33F2E707F0DFFD0546A7
S31508000DD0204605F0DFFF284607F0D3FD0020DDE7B3
S31508000DE03091000838B5044628B91448FC2105F0A6
S31508000DF020FA222038BD03788BB1012B03D0022BB1
S31508000E000DD0032B04D13F236278D340DB0709D4E6
S31508000E100A484FF4807105F00CFA2120EAE740F2FF
S31508000E20FF33F1E707F0B2FD0546204603F08AF9DD
S31508000E30284607F0A6FD0020DCE700BF3091000831
S31508000E4070B50D46044600B131B9154840F22D116A
S31508000E5005F0EFF9222070BD03788BB1012B03D082
S31508000E60022B0DD0032B04D13F236278D340DB0736
S31508000E7009D40B4840F2311105F0DBF92120EAE7E5
S31508000E8040F2FF33F1E707F081FD0646204603F0FE
S31508000E90AFF92870304607F074FD0020DBE700BF85
S31508000EA03091000870B50D46044600B131B91548B1
S31508000EB04FF4A37105F0BDF9222070BD03788BB1FC
S31508000EC0012B03D0022B0DD0032B04D13F236278CC
S31508000ED0D340DB0709D40B484FF4A57105F0A9F9EF
S31508000EE02120EAE740F2FF33F1E707F04FFD064617
S31508000EF0204603F051F92870304607F042FD0020DD
S31508000F00DBE700BF309100082DE9F0410D46164693
S31508000F109846044600B139B92F484FF4E07105F0F8
S31508000F2088F92220BDE8F081027872B1012A19D029
S31508000F30022A0AD0032A15D0FF2A0CD04FF4E271F0
S31508000F40254805F076F92120ECE740F2FF33627870
S31508000F50D340DA07F2D5022E07D9042E05D04FF46E
S31508000F60E471EDE73F236278F2E707F00FFD237897
S31508000F700746FF2B05D032462046296803F026FA95
S31508000F8028602B68013309D12378FF2B06D1134B30
S31508000F906078D3F8241405F06DFB286029684B1C8B
S31508000FA014D00C230E4A03FB0122069BC2F80480C8
S31508000FB093602378FF2B04D001230A4A8B40C2F89A
S31508000FC02434384607F0DDFC0020ABE7384607F046
S31508000FD0D8FC2D20A6E700BF3091000800C00350BA
S31508000FE0E410002000D003500F2810B5044606D997
S31508000FF00D4840F2F11105F01CF9212010BD07F04B
S31508001000C5FC0123094AA340C2F82034C2F8243497
S315080010100C22074B02FB04330024C3E9014407F002
S31508001020B0FC2046EAE700BF3091000800E0035014
S31508001030E41000202DE9F0410D4690461F4604466F
S3150800104000B139B926484FF40B7105F0F2F82220A1
S31508001050BDE8F081017871B1012938D002290AD09A
S31508001060032934D0FF290CD01D4840F2312105F060
S31508001070E0F82120ECE740F2FF336278D340DA0744
S31508001080F2D507F083FC23780646FF2B05D04246A7
S315080010902046296803F08AFA28602A68531C19D062
S315080010A00C23104903FB0211069BC1F8B870C1F85E
S315080010B0BC302378FF2B05D00123103293400A4A0F
S315080010C0C2F82434304607F05CFC0020C0E73F2312
S315080010D06278D3E7304607F054FC2D20B8E700BF06
S315080010E030910008E410002000D0035008B503F042
S315080010F0ABF8054B00F0553020F05020C3F820041B
S31508001100BDE80840FFF7B8BD00E0035008B503F096
S315080011109BF8054B00F0AA3020F0A020C3F8200465
S31508001120BDE80840FFF7A8BD00E0035070B50446C7
S3150800113086B018B9AC212E4805F07BF82368B3F1C0
S31508001140B64F07D02B4A93424BD12B4807F029FCC0
S31508001150012503E0294807F024FC0025A38801227D
S31508001160ADF80030E3880A216846ADF80430FFF789
S31508001170CDFD01220A2101A8FFF7C8FD0A26684607
S31508001180FFF730FE642004F03DF96846FFF7FEFDE0
S31508001190642004F037F9013EF1D10323184A02EB23
S315080011A00511C1F8E834607923794F3543EA0043DD
S315080011B0C1F8EC34E179A3792D0143EA014353518F
S315080011C040F20113ADF80830E36820680493A36879
S315080011D002A90393237C8DF8143002F02BFD06B088
S315080011E070BDD121024806B0BDE8704005F021B8AF
S315080011F0899100080080065084970008889700089F
S3150800120000C0035038B5054602F058FE044C0128C4
S3150800121001D1013C00D138BD284602F03DFDF6E774
S31508001220E193040013B504460A4807F0BAFBA2780E
S315080012300421B2FA82F2237852098DF804306378D1
S315080012400DEB01008DF80530FFF760FD002002B0B8
S3150800125010BD00BF8C9700082DE9F04F9A46564BF3
S3150800126085B01B7806460F461546DDF83C909DF876
S3150800127044B0DDF85080002B00F09780072A00F272
S3150800128096800E9B002B00F09280B9F1000F00F0BB
S315080012908E80129BB3F5006F00F38980012803D175
S315080012A0109B002B00F08380444B03EB05131B7B3C
S315080012B0002B7ED0424C10220021684605F054FBD4
S315080012C004EB45141022A7BB3946204605F04CFB13
S315080012D043F210036380BBF1000F03D1E37843F0B8
S315080012E00303E370364A0E9B02EB451CCCE90193D7
S315080012F0129B6901581E9DF84C30C0F30A0003F092
S3150800130003039B0643EA001E53582E48012E00EAA3
S3150800131003004EEA0003CDF800A0535017D0B8F1E9
S31508001320000F2ED19CF8023068F304138CF80230B3
S3150800133027E00021204605F017FB4FF4447363802D
S31508001340BBF1000FCED1E37843F03003C9E713238E
S315080013500CF1100ECCF80C309CE80F008EE80F004C
S315080013606FF00301DCF81C20109B61F39F02012F2C
S31508001370CCF81C20CCF8143003D1CCF81890CCF853
S31508001380043000270D4A290102EB051342F80180B3
S31508001390159A28465A60694622469F605E7302F08F
S315080013A055FE384605B0BDE8F08F0748FAE7074806
S315080013B0F8E70748F6E700BF7D2100204C13002018
S315080013C04C1200200F80FFF3028000F0018000F02D
S315080013D0078000F038B5124B05461B78DBB1E0B143
S315080013E007F0D4FA0F4A00231146147B54B92B6030
S315080013F001251A0101EB03131D738C5007F0C1FA7E
S31508001400204638BD0133082B02F11002EDD107F052
S31508001410B8FA0548F5E70548F3E70548F1E700BFD8
S315080014207D2100204C130020048000F0028000F08B
S31508001430018000F0154B13B51868002301908DF84C
S31508001440043007F0A3FA124B1C7824B107F099FA76
S31508001450104802B010BD01221A7007F092FA0E4B1E
S3150800146001A81C731C7783F82C4083F83C4083F84A
S315080014704C4083F85C4083F86C4083F87C40082332
S315080014808DF8073002F09AFD2046E2E7E69100085B
S315080014907D210020038000F04C1300200A4A08B57D
S315080014A012785AB107280BD8084A02EB00131B7B9F
S315080014B043B1002102F062FD002008BD0448FCE7A4
S315080014C00448FAE70448F8E77D2100204C13002079
S315080014D0028000F0018000F0078000F00A4A08B593
S315080014E012785AB107280BD8084A02EB00131B7B5F
S315080014F043B1012102F042FD002008BD0448FCE783
S315080015000448FAE70448F8E77D2100204C13002038
S31508001510028000F0018000F0078000F0184B2DE9EA
S31508001520F0411F6D5B6D1F4000D5FEE701260025C3
S31508001530144CDFF85880374218D02368C8F8506032
S31508001540A3B1A168284601316268A1609847637B08
S31508001550012B0BD150B90C4B03EB45131A7B60F3E7
S3150800156041021A731A7F60F341021A770135082D72
S315080015704FEA460604F11004DDD1BDE8F08100BF4C
S31508001580000004504C1300204C1200200020045088
S3150800159038B504460D4607F0F9F9A3889BB223B976
S315080015A02B6007F0EEF9064838BD142263889BB213
S315080015B002FB034408342C6007F0E3F90020F3E744
S315080015C00B7000F038B141B1013AB2F5006F04482A
S315080015D038BF00207047034870470148704700BF6E
S315080015E0037000F0027000F0104930B50A78104B0D
S315080015F02AB9C3E90022C3E9022201220A700C496A
S3150800160000220C4654F8045B854208D00132042AAD
S31508001610F8D1002251F8044B1CB943F822000020E7
S3150800162030BD0132042AF5D10248F9E77E210020AF
S31508001630CC130020027000F0002313B51D4A52F89F
S31508001640044B94F8211081420ED00133042BF6D1B5
S3150800165002B010BD0028FBD19DF80730002BF7D04B
S31508001660A068FFF71BFFF3E794F83530022BEFD19C
S31508001670204604F02CFF637E2076022BE8D194F8EE
S31508001680323003F0FF02002BE2D1A0680DF107010A
S315080016908DF8072005F048FB237E1BB194F83330FC
S315080016A0002BD7D00023A06884F83330FFF716FF45
S315080016B0CEE700BFCC13002010B50446FFF7BAFEEC
S315080016C0002104F10800FFF785FE014608B1044829
S315080016D010BD04F10C00FFF77DFE0028F8D0F6E7F0
S315080016E00E7000F0F8B5044616460F4607F04EF998
S315080016F0A388E2889BB29A42054605D80023336040
S3150800170007F03FF91748F8BD1422238807F1100C93
S315080017109BB202FB03433A460833174603CF674595
S31508001720186059603A4603F10803F6D1142238685E
S315080017301860238828469BB202FB034308333360AC
S315080017402388E2889BB20133B3FBF2F102FB113323
S315080017509BB22380A38801339BB2A38007F011F9BB
S315080017600020D0E70A7000F07FB5012380F83030FA
S3150800177090F836309BB903682433826B0132826352
S315080017800C4A04900392002202924A6801920122AE
S3150800179000920A684169C06804F018FE07E0022B47
S315080017A002D103683C33E8E7002380F8303007B0FD
S315080017B05DF804FBF11C00087FB5012380F8313081
S315080017C090F836309BB902683C32836B01338363E9
S315080017D00C4B04900393002302934B680193012357
S315080017E000930B680169806804F0D6FD07E0022BB8
S315080017F002D102684432E8E7002380F8313007B0A6
S315080018005DF804FBCD18000890F8363063B901225C
S3150800181003685A619A69D207FCD504210379084AF4
S31508001820B9335B01D1507047022B07D10068836C2E
S315080018309B074CBF0521092101F090BE704700BFE8
S3150800184000C0035090F8363053B9042103790A4A88
S3150800185003F239135B01D150022203685A617047BB
S31508001860022B07D10068816C11F0020118BF06210E
S3150800187001F074BE704700BF00C0035010B590F861
S315080018803630044663B9042203685A619A69920796
S31508001890FCD523790C4AB9335B011021995010BD48
S315080018A0022BFCD10068836CDB074CBF052106219F
S315080018B001F054FE237941F294425B0103F1A043FF
S315080018C003F57033E9E700BF00C003502DE9F34183
S315080018D0D06A01A91446FFF75BFE0546204605F0C7
S315080018E049FA194B9D4228D0019D25B940F2A531E8
S315080018F0164804F09EFC00272F61AF6007F046F8F3
S31508001900D5F80C800646B8F1000F04D0D5E90023B7
S3150800191039462046C047E06A01A904F0F1FDE06AAD
S3150800192083889BB26BB101A9FFF732FE2046019965
S31508001930FFF742FF304607F024F8012002B0BDE861
S31508001940F08184F83130F5E70B7000F0EA91000871
S315080019502DE9F04104461746FFF734FE8846064649
S31508001960E8B9152003F078F80546E26A93889BB231
S3150800197013B194F83230ABB194F83630BBB923685A
S315080019809D6915F002052CD0012384F834304744AC
S31508001990B845206849D183699B06FCD56DB33046A6
S315080019A0BDE8F081002DE1D0FFF7B8FDDDE7022B99
S315080019B012D123689D6C15F0020512D0012384F814
S315080019C0343047444745206836D142F22002836CBA
S315080019D032EA0303FBD1E1E740F697111E4804F00B
S315080019E028FC2046FFF74AFF012394F8365084F86E
S315080019F03430002DCBD0022D1CD094F8363003B3EA
S31508001A00022BCCD12068816C11F0010118BF092185
S31508001A1001F0A4FD42F29442102123795B0103F1FF
S31508001A20A04303F570339950B9E718F8011B04F081
S31508001A300DFEADE70025C4E718F8011B04F001FE0A
S31508001A40C0E710212379054A03F239135B01D15007
S31508001A50082223685A61A2E7EA91000800C00350E9
S31508001A6010B5044680B190F832302BB904F02FFD3A
S31508001A7010B9A068FFF712FD002094F83230013340
S31508001A80DBB284F8323010BD0048FCE7027000F083
S31508001A9010B50446A0B190F832309BB190F83230B8
S31508001AA0012B05D104F013FD10B9A068FFF716FD48
S31508001AB0002094F83230013BDBB284F8323010BD96
S31508001AC00148FCE70148FAE7027000F0057000F0EB
S31508001AD030B50025437F85B08DF8083090F8213061
S31508001AE0044604228DF80930039303A9064B009592
S31508001AF002A8FFF709FA4FF4007320462383A57658
S31508001B0004F021FD05B030BD391600082DE9F04175
S31508001B1004468EB06B4F06AE0D460FCF0FC697E83C
S31508001B200F0086E80F0018220021684604F01CFF03
S31508001B30002C00F0C58025B9634E30460EB0BDE8CE
S31508001B40F08164220021204604F00EFF02232F684C
S31508001B5084F8363027602B7C20462371FFF744FD36
S31508001B6006460028E9D12B7F84F83530AB68236612
S31508001B70564B9F4200F09680554B9F42DCD14FF45E
S31508001B8080135449544AC4E904230023616284F843
S31508001B903130D5E9091284F83030A1624F480B80FC
S31508001BA04B808B8084F83030E262138053809380B8
S31508001BB084F8313084F8333006F0F3FE636ADFF8D0
S31508001BC02C81986806F0EDFE10212B7C08EB431259
S31508001BD0C2F894142E7BA87B253346EA0041C2F846
S31508001BE0AC14697BEA7B08EB431341EA02475F6062
S31508001BF0E676E077217784F820206B7F01216377EA
S31508001C00AB7F204684F82130EB7FA37795F8203008
S31508001C1084F8223004F0F4FB064600288DD1AB6820
S31508001C20022608936B8A8DF82560ADF82830AB8AB2
S31508001C30CDF834D0ADF82630AB7D8DF82430AB69BD
S31508001C400B930123ADF8063006F0A0FE2A7F07465F
S31508001C50032A2CD141F294412B7C08EB43135E50A6
S31508001C6095F82000E97F41EA004103F5A550016097
S31508001C70A87F697F41EA004141F29C4019508DF8DE
S31508001C80002006238DF818302B79286806A9A3B1F9
S31508001C9001F0D4FE2046FFF70FFD0646384606F04B
S31508001CA070FE4AE74FF470230D490E4A6BE7022A85
S31508001CB0E7D12046FFF70CFFE3E701F091FEE9E7DD
S31508001CC0094E3AE764920008037000F00000015BD1
S31508001CD000000A50A4970008010010008C9700081D
S31508001CE0B097000801000F00027000F000C0035012
S31508001CF0F7B5906A01A91446FFF74AFC054620463F
S31508001D0005F038F83B4B9D4236D0019D25B940F287
S31508001D10D121394804F08DFA94F83610002939D1C2
S31508001D2023689A6C12F4007229D0344AA9602A6191
S31508001D304FF4007203F500539A6406F027FEEF6825
S31508001D40064637B16A68AB682046D31A29692A68F5
S31508001D50B847A06A01A904F0D3FBA06A8588ADB28A
S31508001D60002D37D001A9FFF713FC20460199FFF78C
S31508001D70FBFC304606F005FE012003B0F0BD996C69
S31508001D80C80523D51E49AA6029614FF4807203F558
S31508001D900053D1E7022919D12368DA6C12F40072CC
S31508001DA009D0164A03F500532A610022AA604FF4A7
S31508001DB00072DA64C1E7D96CC90507D51049AA606B
S31508001DC029614FF4807203F50053F2E700232B6173
S31508001DD0AB60B2E701232046237604F0B4FB94F8FF
S31508001DE0353084F83050032BC3D02046FFF72AFD40
S31508001DF0BFE700BF0B7000F0EA9100080D7000F015
S31508001E000C7000F030B587B004461346FFF7DAFBCE
S31508001E1030BBCDE901130393124B04906A46A06ABE
S31508001E2001A90593FFF75EFCD0B9A26A93889BB215
S31508001E30012BFBD82046FFF7E7FC94F83530032B37
S31508001E4004D000232046237604F07DFB009D20461F
S31508001E502946FFF789FC94F83030002BFBD1286916
S31508001E6007B030BD017000F030B587B004461346A0
S31508001E70FFF7A8FB40BBCDE901130393194B049068
S31508001E80059394F836300BBB23689B6903F002036D
S31508001E9013B92046FFF7F2FC6A46E06A01A9FFF784
S31508001EA021FC88B9E26A93889BB2012BFBD8009D76
S31508001EB020462946FFF780FC012384F8343094F83D
S31508001EC03130002BFBD1286907B030BD022B02D177
S31508001ED023689B6CDAE740F6FB21034804F0A9F96E
S31508001EE0D7E700BF017000F0EA910008044BD3F869
S31508001EF08420D206FBD4D3F88400C0F3811070473F
S31508001F000040005038B5104B0546D3F800310C4652
S31508001F1003F00303022B0BD0032B0DD0012B0FD19B
S31508001F2004F07CFE032305B1286004B1236038BDA4
S31508001F3004F0C6FE0923F6E704F076FE0823F2E766
S31508001F4001230020EFE700BF0080005038B5104B92
S31508001F500546D3F840310C4603F00303022B0BD099
S31508001F60032B0DD0012B0FD106F0FCFC0A2305B17B
S31508001F70286004B1236038BD04F0A2FE0923F6E701
S31508001F8006F0F3FC0C23F2E701230020EFE700BF7D
S31508001F900080005038B5104B0546D3F860310C4622
S31508001FA003F00303022B0BD0032B0DD0012B0FD10B
S31508001FB006F0D8FC0A2305B1286004B1236038BDB1
S31508001FC004F07EFE0923F6E706F0CFFC0C23F2E7C1
S31508001FD001230020EFE700BF0080005038B5104B02
S31508001FE00546D3F840320C4603F00303022B0BD008
S31508001FF0032B0DD0012B0FD106F0B4FC0A2305B133
S31508002000286004B1236038BD04F05AFE0923F6E7B8
S3150800201006F0ABFC0C23F2E701230020EFE700BF34
S315080020200080005038B5124B0546D3F880300C4670
S3150800203003F00303022B0BD0032B0DD0012B0FD17A
S3150800204004F0B2FD0E2305B1286004B1236038BD43
S3150800205004F0EEFD0723F6E704F0A0FD0623F2E7F9
S31508002060044841F2142104F0E4F800231846EAE78C
S31508002070008000508492000838B51A4B0546D3F8FC
S3150800208020010C4600F00700062821D8DFE800F0FA
S3150800209028040C1410181C0004F080FD052305B153
S315080020A0286004B1236038BD04F0B8FD0323F6E7C1
S315080020B004F0BEFD0723F2E704F0ACFD0223EEE7C9
S315080020C004F06CFD0623EAE704F0A8FD0423E6E71E
S315080020D0054841F2912104F0ACF800231846DEE7E2
S315080020E00123DCE7008000508492000838B5194BBC
S315080020F00546D3F828310C4603F00703013B052BA8
S3150800210020D8DFE803F003131B0F0B1704F046FD76
S31508002110052305B1286004B1236038BD04F03EFDEF
S315080021200623F6E704F084FD0723F2E704F076FDBC
S315080021300323EEE704F072FD0423EAE704F06AFDE0
S315080021400223E6E7044841F2990104F072F80023F5
S315080021501846DEE70080005084920008002337B551
S315080021600193194B0546D3F820320C4603F00703B2
S31508002170042B1FD8DFE803F025030F1419000021EC
S3150800218001A8FFF7B3FF12230DB1019A2A6004B123
S31508002190236003B030BD04F04BFD07230190F3E73D
S315080021A006F0E0FB0A230190EEE704F089FD092317
S315080021B00190E9E741F25601044804F03AF8002391
S315080021C0E2E70123E0E700BF0080005084920008A0
S315080021D0F7B50027144B0197D3F88041064604F05B
S315080021E00304022C0D4614D0032C0DD0012C14D157
S315080021F0394601A8FFF740FF10240EB1019B336052
S3150800220005B12C6003B0F0BD04F012FD072401905F
S31508002210F3E704F0FFFC0190EFE741F2E6310348EB
S3150800222004F007F83C46E8E700800050849200086E
S3150800223038B5164B0546D3F800020C4600F00700E1
S31508002240042819D8DFE800F020030B0F130006F066
S3150800225089FB0A2305B1286004B1236038BD04F060
S315080022602FFD0923F6E706F080FB0C23F2E704F0BE
S31508002270BBFC0F23800AEDE7054841F2A44103F0B1
S31508002280D8FF00231846E5E70123E3E7008000505E
S315080022908492000838B5164B0546D3F808020C4652
S315080022A000F00700042819D8DFE800F020030B0F18
S315080022B0130006F057FB0A2305B1286004B1236012
S315080022C038BD04F0FDFC0923F6E706F04EFB0C23A7
S315080022D0F2E704F089FC0F23800AEDE7054841F28E
S315080022E0DC4103F0A6FF00231846E5E70123E3E7F0
S315080022F00080005084920008002337B50193184BDC
S315080023000546D3F860320C4603F00703013B032B5E
S315080023101FD8DFE803F0020E1914002101A8FFF701
S31508002320ABFE10230DB1019A2A6004B1236003B0F5
S3150800233030BD002101A8FFF709FE1123F2E704F0DA
S3150800234077FC07230190EDE704F064FC0223019073
S31508002350E8E741F2FD01034803F06BFF0023E1E7DC
S315080023600080005084920008002337B50193184B6B
S315080023700546D3F894320C4603F00703013B032BBA
S315080023801FD8DFE803F0020E1914002101A8FFF791
S3150800239073FE10230DB1019A2A6004B1236003B0BD
S315080023A030BD002101A8FFF7D1FD1123F2E704F0A3
S315080023B03FFC07230190EDE704F02CFC0223019073
S315080023C0E8E741F23011034803F033FF0023E1E761
S315080023D0008000508492000873B500240F4B0194C6
S315080023E0D3F87032064603F00303012B0D4607D0D7
S315080023F0022B11D041F25B11094803F01AFF04E0E1
S31508002400214601A8FFF7A2FD11240EB1019B3360F6
S3150800241005B12C6002B070BD1524F6E700800050A7
S315080024208492000808B5334B98424FD027D8324BD0
S31508002430984245D017D8314B98423ED00AD838B181
S315080024402F4B984239D041F2BB312E4803F0F1FEAA
S31508002450002034E02C4B98422FD02C4B9842F2D1D6
S315080024602B4B586E2BE02B4B98422CD003F5371389
S3150800247003F5D8639842E6D1254B986F1FE0264BA3
S3150800248098422FD00CD8254B984223D0244B9842FB
S3150800249024D0244B9842D6D11D4BD3F884000EE0A5
S315080024A0214B984222D003F5740303F51053984242
S315080024B0C9D1174BD3F8980001E0154B986D08BDA4
S315080024C0134B186FFBE7124B586FF8E7104BD3F80E
S315080024D08000F4E70E4BD3F88800F0E70C4BD3F8EE
S315080024E08C00ECE70A4BD3F89000E8E7084BD3F8E2
S315080024F09400E4E780BA8C01405DC60080841E0023
S3150800250040420F008492000800093D00C0CF6A00CF
S315080025100080E00F0024F400007E560380D54302B5
S31508002520006CDC020048E8010090D003B0F5207F7B
S3150800253010B52ED009D8B0F5007F24D003D868B1DD
S31508002540B0F5C07F0AD000241BE0B0F5607FFAD151
S31508002550124BD3F88040C4F3011412E00F4B1C6FE2
S31508002560230B13F00E0FC4F303340AD0072C08D03C
S315080025700F2C06D0032C04D04FF42271084803F020
S3150800258058FE601C10BD054BD3F89040C4F3046494
S31508002590F7E7024B1C6FC4F38024F2E70080005073
S315080025A0849200084FF4803238B5104B04469A6678
S315080025B000200D46FFF7BAFF41F671320C4B604317
S315080025C0DC69DA635A6804F4803422F440125DB98F
S315080025D00849884294BF00200120000502435A603A
S315080025E00CB10022DA6338BD0349F2E700900050C7
S315080025F000000350005A6202002D310138B5430924
S3150800260004460D460ED140F235310D4803F011FE51
S31508002610002304F01F0485B103F580530122A2406C
S315080026201A6038BD012B04D0022B04D040F2433186
S31508002630EBE7044BEDE7044BEBE703F50053EDE757
S31508002640849200086480005068800050002130B5EC
S31508002650B0F5807F85B00446CDE9001100F0D3803F
S315080026603DD85E2833D85E2833D8DFE800F04832F4
S31508002670323232323232323232323232323232322C
S31508002680323232323232323232323232323248AD8B
S3150800269048ADBDBDBDBDBDADC7516EDD51ADADAD1E
S315080026A03232323232323232ADADAD81E7AD32320C
S315080026B03232323232323232323232BD484848E26F
S315080026C05151EC9066C23232323232984800802834
S315080026D06AD040F2A441604803F0ABFD67E0B0F56C
S315080026E0D06F00F0A18035D8B0F5607F77D01AD8C2
S315080026F0B0F5007F5ED005D8B0F5C07FE9D104F00B
S3150800270073FA53E0B0F5207F5ED0B0F5407FE0D194
S3150800271004F06AFA04464FF42070FFF707FFB4FB8B
S31508002720F0F4640859E0B0F5B06F67D00AD8B0F590
S31508002730806F59D0B0F5A06FCBD100216846FFF75E
S315080027400DFD34E0B0F5C06FC3D100216846FFF730
S31508002750FDFB2CE0B0F5106F6BD00ED8B0F5086F06
S3150800276076D0B6D8B0F5E06F68D0B0F5F06FB0D1D6
S3150800277000216846FFF70EFC19E0B0F5406F38D027
S315080027800AD8B0F5206F5ED0B0F5286FA1D1002128
S315080027906846FFF721FE0AE0B0F5486F99D1002197
S315080027A06846FFF7E1FD02E004F0FEF900900098A4
S315080027B005B030BD04F0F8F905462046FFF7B6FE29
S315080027C0B5FBF0F50095F2E704F00EFA04464FF46F
S315080027D02070FFF7ABFEB4FBF0F40094E7E701A81E
S315080027E0FFF720FC019DE8E700216846FFF744FC57
S315080027F0DDE700216846FFF779FCD8E7002168463F
S31508002800FFF7E6FCD3E74FF0E02302911B695B076D
S3150800281005D504F0E9F90290029B0093C7E703A9DE
S3150800282002A8FFF793FBF7E700216846FFF700FDCC
S31508002830BDE700216846FFF72DFDB8E70021684689
S31508002840FFF7CCFBB3E700216846FFF755FDAEE777
S315080028506846FFF757FBAAE78492000808B5802068
S31508002860FFF7F4FE034B98429EBF4FF48032024BAB
S315080028701A6708BD005A620200A000501FB5034639
S315080028800020B3F5807F019000F0C58063D85D2BEA
S3150800289054D84C2B06D82D2B46D8232B2AD840F2B1
S315080028A08951A7E04D3B102BF9D801A252F823F025
S315080028B00D2A00089F2800089F2800089F2800085E
S315080028C0B72900089F2800089F280008672A0008DB
S315080028D0D52900087B2900085D2A00089F280008DA
S315080028E09F2800089F2800089F2800089F2800089E
S315080028F0712A0008243B092BD1D801A252F823F0EB
S315080029000D2A00080D2A00080D2A00080D2A0008BD
S315080029100D2A00089F280008FD2900089F2800089E
S3150800292097290008432A00083D2B00F085803E2B96
S31508002930B5D1002001A9FFF751FB63E0802BAED18A
S315080029404E4B1B6F03F00703013B032B50D8DFE800
S3150800295003F04D46494BB3F5F06F6DD020D8B3F56B
S31508002960B06F4BD00ED8B3F5607F73D097D3B3F55D
S31508002970806F4BD0B3F5A06F91D1002001A9FFF766
S31508002980EDFB3FE0B3F5D06F5BD0B3F5E06FD0D089
S31508002990B3F5C06F83D1002001A9FFF7D7FA31E05C
S315080029A0B3F5206F5FD00BD8B3F5086F4ED0B3F5EB
S315080029B0106F7FF474AF002001A9FFF76BFC21E0CC
S315080029C0B3F5406F4AD0B3F5486F51D0B3F5286FC9
S315080029D07FF465AF002001A9FFF7FEFC12E005238E
S315080029E001930FE00323FBE70823F9E70223F7E740
S315080029F040F2D641224803F01CFC03E0002001A95E
S31508002A00FFF7E6FB019805B05DF804FB002001A975
S31508002A10FFF732FBF6E74FF0E02302901B695B07EE
S31508002A2005D504F0E1F80D230393039BD8E703A922
S31508002A3002A8FFF78BFAF8E7002001A9FFF7AAFA20
S31508002A40E0E7002001A9FFF7F3FBDBE701A9FFF7A1
S31508002A5059FAD7E701A9FFF7E5FAD3E7002001A954
S31508002A60FFF744FBCEE7002001A9FFF745FCC9E7BD
S31508002A70002001A9FFF778FCC4E700BF00800050DA
S31508002A80849200084FF48032074B0849586E03F5C4
S31508002A9080535A664B6A23F001034B62C3035CBF3B
S31508002AA0034B5A66704700BF0080005000C00750AD
S31508002AB000A0005038B5036804460F2B04D940F629
S31508002AC08A317C4803F0B5FB63680F2B04D940F6BE
S31508002AD08D31784803F0ADFBA3680F2B04D94FF46A
S31508002AE03961744803F0A5FB237B0F2B04D940F604
S31508002AF09331704803F09DFB637B0F2B04D940F696
S31508002B0096316C4803F095FBA37B3F2B04D940F61E
S31508002B109931684803F08DFBE37B3F2B04D940F6D7
S31508002B209C31644803F085FB2369032B04D940F6DE
S31508002B309F31604803F07DFB6369032B04D940F697
S31508002B40A2315C4803F075FBE369032B04D940F610
S31508002B50A531584803F06DFB8020FFF78FFE032848
S31508002B6000F083804FF48012534B4FF0A0615A66F1
S31508002B7045F60E02514BC3F88020514A91624FF434
S31508002B80803102F5805291629A6DD203FCD4996D18
S31508002B9011F08041FBD1D4E90002120542EA006235
S31508002BA0E07B0243207B42EA0042607B42EA003235
S31508002BB0A07B42EA80121A619869D4E90452120687
S31508002BC042EA856200F000400243A07EE57E0243A9
S31508002BD0207E42EA0042607E42EA00229A611A6A30
S31508002BE0E06922F00F0242EA8502364D00283DD1FF
S31508002BF01A6294F82420996A94F82000D200294091
S31508002C0042EA40120A4394F8211042EA011242F4B9
S31508002C1080329A622C49294A936D31EA0303FBD123
S31508002C204FF08071264881621369A56823F4700302
S31508002C3043EA055313614FF00043836194F8223049
S31508002C400BB9224B996294F823303BB94FF4803282
S31508002C501E4B9A62194A936D5B00FCD494F8253092
S31508002C601BB1164B1A4AC3F8802038BD024342F0FE
S31508002C70080202281A6208D119614FF408529961AC
S31508002C8014484FF47F4103F09AFC0C4994F822301B
S31508002C908A6A94F820001B062A4043EA4013134325
S31508002CA094F8242043EAC20394F8232043EA024313
S31508002CB08B62D3E784920008009000500040005AC7
S31508002CC00050005AC7FFFEFE030001000060005ACC
S31508002CD0F1A7FFFF3440005A014B93F900007047F3
S31508002CE0F3230020436810B5072B044604D940F6A1
S31508002CF0E6512A4803F09DFAA368032B04D940F647
S31508002D00E851264803F095FA2378032B04D940F6B0
S31508002D10EA51224803F08DFA94F90130002B04DABF
S31508002D2040F6EC511D4803F084FA4FF400011C4AA2
S31508002D30637851664FF4D151022002F5B8325162D8
S31508002D4018494F2B48604FF0010028BF4F2301F563
S31508002D50805148601169C903FCD4217843EA0123EC
S31508002D605361D4E901131B0143EA0123617B0B4339
S31508002D70217B43EA41039360E37BA17B1B0143EA82
S31508002D804113617C0B43217C43EA41035360A37CD6
S31508002D9013B16FF4D153536210BD00BF849200087B
S31508002DA00090005000100250014B1880704700BF79
S31508002DB0EE230020014B1880704700BFEC2300204B
S31508002DC04FF4800208B5184B5A660223174A536017
S31508002DD0936813F48033FBD1012822D103F01EFF38
S31508002DE0134B984215D003F5122303F5F86398425E
S31508002DF013D0104B00EB8002400AB3FBF0F3520AE3
S31508002E000A49CA620B6301234B620022074B5A60C8
S31508002E1008BD45F67A13084AF2E745F61A03074A43
S31508002E20EEE75362F1E700BF009000500040025001
S31508002E3000F0490264666666D8B80500BBCF05008F
S31508002E40B0F5207F38B577D00ED8B0F5007F61D0C1
S31508002E5003D890B3B0F5C07F2FD04FF44671BDE8C4
S31508002E6038403D4803F0E5B9B0F5607FF5D13B4AF7
S31508002E704C1ED2F8FC5015F080751EBFD2F8FC30F7
S31508002E8023F08073C2F8FC30032C04D940F2F721F2
S31508002E90314803F0CEF9324AD2F8803023F03003B5
S31508002EA043EA0413C2F8803035B12C4AD2F8FC3014
S31508002EB043F08073C2F8FC3038BD4C1E012C0AD989
S31508002EC0102903D8274BCB40DB0704D440F2CB218B
S31508002ED0214803F0AEF903F081FB03F08DFB4FF4B4
S31508002EE08031214B1E4A1967136F23F4704343EA56
S31508002EF00433136703F078FE0446FEF7F7FFC0F1C4
S31508002F000201204603F072FB00F048F8BDE838409D
S31508002F10FFF7A4BC4C1E1F2C04D94FF443710E486E
S31508002F2003F087F90E4AD2F8903023F0F85343EAB3
S31508002F300463C2F89030BFE74C1E012C04D940F256
S31508002F401231054803F075F9054A136F23F48063B7
S31508002F5043EA84231367AFE78492000800ED00E094
S31508002F6000800050100101000090005008B50121B2
S31508002F70022000F099F94FF42070FFF7D7FA054BB5
S31508002F80187003F02BFB03F037FB4FF48032024B2B
S31508002F901A6708BD7F2100200090005008B54FF43D
S31508002FA0C070FFF753FBBDE808400449884294BF48
S31508002FB0012102214FF42070FFF742BF80F0FA0288
S31508002FC038B5044603F010FE0546FEF78FFFC0F13C
S31508002FD00201284603F00AFB0121002000F0B8F997
S31508002FE02CB1FFF7DBFFBDE83840FFF737BC034BD2
S31508002FF04FF420701978FFF723FFF4E77F210020AC
S315080030002DE9F0410546FFF70DFA431E0333044642
S3150800301004D940F6E2113B4803F00BF94FF4C022FD
S31508003020394B5A6603F598335A68012A04D1374949
S315080030304A605A689207FCD48020FFF71FFC0528CF
S3150800304007D103F0CBFA03F0D7FA4FF480322E4BB0
S315080030501A672F4B24F040749D4239D02D4B9D4260
S3150800306039D003F09BFD8542064603D9012128463F
S3150800307000F06EF9284FFB6813F0060FFBD1D7F85E
S315080030800880BC60BB68634013F4F81F26D1284645
S31508003090FDF794FD8020FFF7F1FB052814D103F016
S315080030A0A3FDA842044604D940F63B21154803F07F
S315080030B0C0F8FEF71BFFC0F10201204603F096FA9E
S315080030C0FFF76CFFFFF7CAFBAE4213D2BDE8F081EB
S315080030D044F00074C5E744F08074C2E740F62A213C
S315080030E0084803F0A6F88020C7F80880FFF7C6FB53
S315080030F0052805D0BDE8F0410121002000F028B9D7
S315080031003546CCE7849200080090005000E0015054
S3150800311040420F0080841E00000001504E4B70B5DF
S315080031209842054673D041D8A3F5B703A3F558636B
S31508003130984265D033D8494B494E984251D017D852
S31508003140002877D041F2DE11464803F072F840F6BF
S315080031508671444803F06DF84FF40022404B5A66D6
S315080031603E4B9D4276D000243F4A954236D05DE0DC
S315080031703D4B984227D03D4B9842E3D13C4BD3F880
S31508003180A040621E033224F040744CD940F6867182
S31508003190344803F04EF84FF400237366E4E7354BE2
S315080031A09842CFD1324BD3F8BC402CE0324B9842F0
S315080031B031D0324B984232D0314B9842C2D12C4B47
S315080031C0D3F8C8401FE02A4BD3F8A040621E03324A
S315080031D024F04074DAD84FF40023736644F0807400
S315080031E024E0234BD3F8A040621E033224F0407437
S315080031F02AD84FF400237366234643F0007415E07B
S315080032001B4BD3F8B840621E154E0332BBE7184B6A
S31508003210D3F8C040F7E7164BD3F8CC40F3E7144B86
S31508003220D3F8D040EFE74FF4002373664FF0B4426B
S31508003230946070BD40F686710A4802F0FAFF4FF4B2
S3150800324000232C467366F1E740F68671054802F0BE
S31508003250F0FFCEE70023D0E7C0EA210140420F0085
S31508003260009000508492000880841E0000093D00EA
S315080032700080E00F0024F4000048E801005A6202CA
S3150800328080BA8C01024A536B0342FCD1704700BFD7
S3150800329000400950034A0179D36E23F030030B43EB
S315080032A0D366704700400050F8B50446244BD3F85F
S315080032B08420D006FBD4D3F88430C3F381139C4210
S315080032C03CD003F071FC012C05460BD11D4B9842EE
S315080032D004D940F29B711C4802F0ABFF0121284635
S315080032E003F084F905F049FB4FF00072174B0746C7
S315080032F05A66204603F085F94FF48063104E621E25
S3150800330093403367736E9A0103D4D6F884309B06CC
S315080033100AD5384605F02CFB022C0FD12846BDE805
S31508003320F840002103F062B9D6F884309906E9D549
S3150800333040F2B371044802F07CFFE3E7F8BD00BF32
S3150800334000400050005A6202D69200080060005001
S3150800335010B50C4608B903F027FC074B21461B7825
S315080033603BB1064B984204D80120BDE81040FFF750
S315080033709BBF0220F9E700BF80210020005A6202A5
S315080033804FF0004238B5244B244C5A664AF6CD33E2
S31508003390656C014605F00105236428BB0120FFF78B
S315080033A071FF6368DB0715D51D4B586008461D4B32
S315080033B0226BD2070CD4984208D1072415B1174BB3
S315080033C0194A1A6403F01EF9204638BD0130EFE7A2
S315080033D09842F2D00024F1E70132236B13F0080378
S315080033E005D08A42F8D1E8E700220E49F5E78A4275
S315080033F0E3D020210A4A91620121A2F58052516048
S315080034000649084A886A800603D49342D5D0013310
S31508003410F8E79342DDE700BF0090005000400950EE
S315080034200060095040420F003254FFFF4FF000423F
S3150800343038B5164B01465A664AF6CD33144C154A2A
S31508003440656C236443780B205B0043F00103D36368
S31508003450FFF718FF63688A7823F4F87343EA0213C0
S315080034606360CA784B7943EA0223A3600A798B79A9
S3150800347043EA022323610878FFF782FFEB0744BF7C
S31508003480054B236403F0BEF8012038BD00900050B8
S3150800349000400950004000503254FFFF0F2870B515
S315080034A0044605D940F67461124802F0C2FE0F249C
S315080034B04FF00042104B11495D6E03F580535A6672
S315080034C04AF6CD334E6C80200B64FFF7DBFE0B6AA1
S315080034D023F00F0323430B62F30744BF084B0B6427
S315080034E0002DA2BF4FF00042064B5A6603F08AF839
S315080034F070BD00BFD69200080080005000400950F9
S315080035003254FFFF00A0005010B503F080F80423E2
S3150800351000F5805100F500520B6113610B611361D0
S315080035200B6113610B611361202341F202010361F0
S315080035300023C360836041614FF4A02183618365E2
S3150800354041620549C36103628362C36243630365DB
S31508003550D164036310BD00BFFF3F0D0338B5174B99
S31508003560044698420D4607D0154B984204D040F2BF
S315080035706911144802F05DFE25B92046BDE83840B9
S3150800358003F045B8012204F580535A6040F6FF71EE
S31508003590204605F00F0203F036F8A263782103F0FF
S315080035A032F805F001036A0748BF43F00203A26C2C
S315080035B002F003029A42FAD138BD00BF0000015B4F
S315080035C000000A5028930008F8B505460C4616462A
S315080035D022B940F227216B4802F02BFE6A4B9D4226
S315080035E002D19CB956240DE0684B9D4247D040F263
S315080035F02A21644802F01DFE44B940F27931614837
S3150800360002F017FE2046FFF721F80446AB68D807F4
S3150800361045D5B44204D24FF40D715A4802F009FE5A
S31508003620B4FBF6F46F68013CFF2C07F0010704D9D8
S315080036304FF40F71534802F0FCFD24064FB32821BE
S31508003640284602F0E0FFAB6C99071CD1AB6CDA0791
S315080036501BD4AE6C16F0020619D140F2492149482E
S3150800366002F0E7FD284602F0D2FF2B69314623F027
S315080036707F4323432B61BDE8F840FFF76FBF002C5B
S31508003680C4D15724BEE70526ECE70926EAE706264D
S31508003690E8E72B6923F07F4323432B61F8BD6B686A
S315080036A0012B04D04FF41771364802F0C2FDAB6DFA
S315080036B0DB07AB6848BF760003F0E003402B42D037
S315080036C009D893B1202B1AD040F29E21BDE8F840C4
S315080036D02C4802F0AEBD602B42D0802BF4D106EB0D
S315080036E04603A34247D801230DE0B6EB141F04D9BD
S315080036F04FF42171234802F09CFD102303E0B6EB3A
S31508003700D40F1AD8082373436401B4FBF3F4204F8B
S31508003710203CB7EBC40F4FEAC40604D240F2A921F5
S31508003720184802F086FD28463E40012102F06BFF4C
S315080037302E63BDE8F84002F066BF40F289211148C1
S3150800374002F077FDDEE70623B4FBF3F3B34201D3B9
S315080037500623D8E740F28E210A4802F06AFDF7E709
S31508003760B6EB940F01D80423CDE740F29321054820
S3150800377002F05FFDF7E74FF42671024802F059FDA3
S31508003780B1E700BF289300080000015B00000A505B
S31508003790F8FF7F002DE9F0419846436804460E4637
S315080037A017461BB140F6FF7102F02DFF2046FFF7C2
S315080037B0ABFEF189737B62690B43318A22F44C5262
S315080037C022F00F020B4313436361A26896F818C0F0
S315080037D0337B22F0804222F0E2024CEA03031343D1
S315080037E072691343B268A3601AB9A36843F0004329
S315080037F0A360F06904F58053002878D0857A017AA9
S315080038006D04D4F808E045EA81556E490EEA0101CF
S315080038100D43818801F4C0410D43417845EA81058D
S31508003820417B45EAC105817B45EA0115817845EA70
S315080038308125A560D4F80CE0D0E904152943624D2A
S315080038400EEA05052943857941EA8521C57941EAC4
S315080038504521E16001785D4D012914D1E16841F007
S315080038600401E160AC4200F0928059498C420CBFD9
S3150800387001214FF0FF31490101F1A04142F294457F
S3150800388001F5703114E003297BD1E16841F00401A8
S31508003890E160AC4279D04E498C420CBF01214FF011
S315080038A0FF3141F29445490101F1A04101F570311A
S315080038B04FF0020E41F805E0417A996219B1E168C4
S315080038C041F40061E160C17A59B1E16841F400410F
S315080038D0E1603E498C425CD1017B3E4D01F00F010F
S315080038E06967616AC07B21F00301014361622FB1F8
S315080038F097F82010002956D001211962B8F1000F57
S315080039002DD0BCF1000F02D04FF4004199652F4924
S31508003910B8F822508C4298F8211051D02C4884428D
S3150800392013D10120112934BF4FF0010C4FF0020CBE
S31508003930294FB5F5006F07F800C094BF4FF0010C8A
S315080039404FF0020C254F07F800C0A06D294320F45C
S31508003950F95020F01E000143A16501219965012156
S3150800396059601AB120467168FFF72EFE2046317855
S31508003970FFF7F4FDA36CDB4313F4405FFAD1BDE80F
S31508003980F0810239012984D96CE7002189E70021F1
S3150800399071E70F498C4201BF017B0E4D01F00F0103
S315080039A0C5F880109DE7E06997F8221097F821502E
S315080039B020F009002943014341F00101D9619DE73F
S315080039C00020AFE7E39BBDFFFFF9F0870000015B2E
S315080039D000000A5000900350832100208121002016
S315080039E0134B70B5984205460C4606D0114B9842C3
S315080039F003D07021104802F01CFC1CB972210E4835
S31508003A0002F017FC237B802B03D176210A4802F0AB
S31508003A1010FC637B032B03D97921074802F009FCC4
S31508003A20002321462846BDE870401A46FFF7B2BE75
S31508003A300000015B00000A50289300082B4B70B564
S31508003A40984205460C4643D119B98C21284802F0FC
S31508003A50F0FB5620FEF712FF0C2807D0A0F1090349
S31508003A60012B03D9A0F11103012B3AD8637B032B51
S31508003A7003D9AD211E4802F0DCFB237B802B03D043
S31508003A80AF211B4802F0D5FB6369B3F1804F03D021
S31508003A90B121174802F0CDFB238A23F400539BB2C9
S31508003AA0B3F5805F03D0B321114802F0C2FBA368C7
S31508003AB0013BB3F5165F03D3B5210D4802F0B9FBF8
S31508003AC0002321462846BDE870401A46FFF762BE25
S31508003AD08A21074802F0ADFB1CB98C21044802F084
S31508003AE0A8FB9E21024802F0A4FBBFE70000015B89
S31508003AF028930008F8B506460F461546002A6AD0E8
S31508003B0003F00304836823F44073836004F035FFED
S31508003B10B26882EA042303F440735340B36004F0A6
S31508003B2027FF37B9B6F1B64F0DD12E20FEF78EFD19
S31508003B300746B3689A0717D5012C1BD0022C27D045
S31508003B4064B9264B17E0264B9E4201D12F20EDE79C
S31508003B5040F22F11234802F06CFBB3684FF4B271A0
S31508003B60204802F066FB08E0012C13D0022CE7D1AE
S31508003B701D4B00E01D4B9F42F0D91D4B1B5D6B434F
S31508003B800AD140F27511BDE8F840164802F051BB5B
S31508003B90184BF0E7184BEEE7A3EBC504013C3C4491
S31508003BA0B4FBF3F4013C0CD540F27B110D4802F04E
S31508003BB040FB4FF4BE710B4802F03BFBB368B4619F
S31508003BC0F8BDB4F5007FF4D2B3689B07F7D5002C8F
S31508003BD008BF0124F3E740F21511D4E780841E00DC
S31508003BE0008006507D930008002D3101404B4C00A3
S31508003BF0CF930008809FD50040548900B0F1B64F96
S31508003C0038B504460D4607D0084B984204D040F212
S31508003C109511074802F00DFB043425B104F58054CC
S31508003C200123236038BD04F50054F9E700800650E7
S31508003C307D930008B0F1B64F38B504460D4607D057
S31508003C40124B984204D04FF4D571114802F0F1FA9C
S31508003C500023104A236404F50053DA636A7804F1F2
S31508003C6008037AB903F5805302221A602046D5E97B
S31508003C7001122B7BFFF73EFF20462978BDE8384026
S31508003C80FFF7BCBF03F50053EEE700BF0080065000
S31508003C907D930008FFFF1F00B0F1B64F70B50AD03C
S31508003CA0824B98421DD0824840F2012102F0C1FAA7
S31508003CB06FF0030070BD7F4B9968C26B12F4C06F3A
S31508003CC015D091050FD5FD225A7009221A700022C7
S31508003CD0026493F90110012900D15A7093F9010081
S31508003CE0E8E7754BE8E75605EFD5FE22ECE71C78C2
S31508003CF0082C00F2D680DFE814F009001F00450002
S31508003D00530070007E009C00A700CB004C880A88F0
S31508003D10E5060AD5120A02F0060242F0F00201216F
S31508003D2019704263C1600120C4E702F0FE02A107D0
S31508003D3048BF42F00102F2E7160608D5802100F5D1
S31508003D400052D1634FF608721A80022318E055060E
S31508003D50E9D5402400F50052D4634A88D40604D530
S31508003D6002221A700B784363DDE796076AD50722A5
S31508003D701A701B7901EBC3031B89012BD3D10823C6
S31508003D80C360D0E71506D9D45406CCD5402400F52F
S31508003D900052D4634A88920754D503221A708CE7D6
S31508003DA04C880A88E60643BF120A02F0060242F069
S31508003DB0F00202F0FE02650709D51C7942F00102FD
S31508003DC001EBC4010989012904BF0821C160042146
S31508003DD019700123C3604263A5E71406AED45206E0
S31508003DE0A1D5402400F50052D4634A88560729D540
S31508003DF007221A7097E71A795D8801EBC2042689AB
S31508003E00AE420FD800240132D2B21A715C804C88B7
S31508003E106507C2D4E40702D4012A7FF64EAF08220A
S31508003E201A7092E76268691C5980525D42630622DD
S31508003E30DFE7160682D455067FF575AF402400F5F0
S31508003E400052D4630522A9E794067FF56CAF2026B5
S31508003E501A7900F5005401EBC2010A89456AE6633E
S31508003E605C88A24281BF4968661C5E800D555988E8
S31508003E708A42D4D90424012AC46004D0013A914262
S31508003E8001D10822C2601A78092A3FF420AF4AE70E
S31508003E90D2057FF548AF4FF4807100F50052D16323
S31508003EA013E74FF609321A8011E700BF0080065063
S31508003EB07D930008DC130020E8130020B0F1B64F0C
S31508003EC038B504460D4607D121B940F26A3126486D
S31508003ED002F0AFF9254B13E0254B98420DD040F27E
S31508003EE06931214802F0A5F925B940F26A311E4820
S31508003EF002F09FF96FF0030038BD00292BD01D4B47
S31508003F002269D00744BF2022E2606A88910702D559
S31508003F1029890029EED0520702D52A8A002AE9D033
S31508003F204FF480721A6000229D601A71C023E36004
S31508003F306369DB0515D4202204F50053DA630E4ABB
S31508003F402046DA634FF4FC6204F580531A64BDE830
S31508003F503840FFF7A1BE40F26A31034802F069F91A
S31508003F60CDE7636AE4E700BF7D930008DC13002011
S31508003F7000800650E8130020FFFF1F00072838B509
S31508003F8004460D4603DD7721084802F052F91F2C36
S31508003F9003D99121064802F04CF9064A064B002D32
S31508003FA008BF13460122A2401A6038BDD393000801
S31508003FB026940008401004504020045010B50446CA
S31508003FC018B991211F4802F034F923781B0613F01B
S31508003FD0604F03D092211B4802F02BF9E3780F2B90
S31508003FE003D99521174802F024F901212020FEF76C
S31508003FF005FB01212120FEF701FB0122124B1520AA
S315080040005A60227812069A606178A27842EA0142DA
S315080040109A61FF229A6200229A631A644FF000425C
S315080040205A654FF0FF3203F500531A6500F04AFD52
S315080040301520E17800F054FDBDE81040152000F089
S31508004040D9BC00BFD393000800000450F8B5012678
S31508004050C3B2072805460C46174606FA03F603DDDB
S31508004060DE21344802F0E5F81CB9DF21314802F0B8
S31508004070E0F8236823F47C1323F00F031BB1E22135
S315080040802C4802F0D6F8A37A1B0413F47C0F03D04D
S31508004090E721284802F0CDF8E37A1B0513F07E6F76
S315080040A003D0E921234802F0C4F8237B5B0513F00B
S315080040B0FE5F03D0EB211F4802F0BBF81E4B27F02A
S315080040C003071E65AB00226803F1A04303F58823A6
S315080040D05A60302202FB05F0637B00F1A04000F530
S315080040E080200366E37AA27A1B0543EA0243227B11
S315080040F043EA4253C365076704F048FC0F4B227A2C
S315080041005E6502B11E64627A02B19E632279A37962
S3150800411043EA0243084A93616179E37943EA014332
S3150800412006498B61064B56639E64BDE8F84004F069
S3150800413028BC00BFD3930008002004500010045088
S315080041400000045010B5044620B940F23A21104840
S3150800415002F06FF82378C3B1012B03D0022B14D0D9
S31508004160032B04D13F236278D340DB0704D440F203
S315080041703D21074802F05DF80122637821789A40CC
S3150800418030235943034B5A5010BD40F2FF33EAE738
S315080041907994000840E0035010B5044620B940F26F
S315080041A05A21124802F045F82378E3B1012B03D0CF
S315080041B0022B18D0032B04D13F236278D340DB07A8
S315080041C004D440F25D21094802F033F830222378FE
S315080041D0534303F1A04303F57033586C6378D84012
S315080041E000F0010010BD40F2FF33E6E779940008BD
S315080041F010B5044620B940F26E21124802F019F8AB
S315080042002378E3B1012B03D0022B18D0032B04D15A
S315080042103F236278D340DB0704D440F27121094872
S3150800422002F007F830222378534303F1A04303F53D
S315080042307033186C6378D84000F0010010BD40F266
S31508004240FF33E6E779940008034BD3F82424D3F820
S3150800425020041040704700BF00C0035010B5044644
S3150800426020B94FF449711C4801F0E3FF23782BB9B4
S315080042706078053818BF4FF0FF3010BD012B08D104
S315080042806378012B1CD0032B14BF4FF0FF3004209A
S31508004290F3E7022B09D16378A3B1052B14D0072BBA
S315080042A014BF4FF0FF300820E7E7032B0ED16378E1
S315080042B0022B0ED0052B14BF4FF0FF300A20DCE787
S315080042C00320DAE70620D8E70720D6E74FF0FF30C5
S315080042D0D3E70920D1E700BF79940008064BDA6EC8
S315080042E002F03002202A06D0DA6E22F0300208B137
S315080042F042F01002DA667047004000502DE9F0419E
S31508004300037804460D46164613B3012B03D0022B39
S315080043101ED0032B04D13F236278D340DB0703D496
S315080043205D21274801F085FF264BD3F810331BB1D2
S315080043306021234801F07DFF0F2D0CD8DFE805F03A
S31508004340373232323232323232323232323232323A
S3150800435040F2FF33E0E7B421194801F06AFF4FF055
S315080043600008204606B302F015FD0F21677823786A
S31508004370072F03EB430388BF083F4FEA031312488E
S3150800438095BFBF00BF0004330C3308FA07F2B940E3
S31508004390184402F060F985B9204656B1BDE8F041E7
S315080043A002F0F8BCA846DCE7FFF7CCFEDDE7A84636
S315080043B0DBE7BDE8F041FFF7C5BEBDE8F08100BF09
S315080043C0D694000800C0035030C003502DE9F047CA
S315080043D0037806460C461546002B50D0012B03D011
S315080043E0022B4CD0032B04D13F237278D340DA0733
S315080043F004D44FF49C714A4801F01BFF022D06D9DC
S31508004400042D04D040F23911454801F012FF454FFA
S31508004410D7F8103323B14FF49D71414801F009FFD5
S31508004420002C2FDB73786340032B04D94FF49F715C
S315080044303B4801F0FEFE0127072C05F005094FF061
S315080044400308327805F0060507FA04F726DC4FEA72
S31508004450840A08FA0AF84146334802FA0AF202F0D0
S31508004460FAF87278414602F00302304802FA0AF274
S3150800447002F0F1F8B9F1000F37D12D4B36E040F2D2
S31508004480FF33B2E7631C06D1D7F82414707802F01C
S31508004490F1F8041ECFDA2046BDE8F087A4F1080A31
S315080044A04FEA8A0A08FA0AF84146224802FA0AF244
S315080044B002F0D1F87278414602F003021E4802FA69
S315080044C00AF202F0C8F8B9F1000F14D01F2C0CDD5F
S315080044D074211A4801F0ADFE194BC3F8107495B94A
S315080044E07421164801F0A5FE03E0154BC3F81074B5
S315080044F06DB90F4B0CE01F2CBFDD74210F4801F07E
S3150800450098FE0B4BE9E774210C4801F092FE0C4B20
S31508004510C3F814740123064AA340C2F82034BAE744
S31508004520D694000800C0035000C4035008C40350C2
S3150800453000E0035004C403500CC40350329500082D
S3150800454000D0035070B5154E054630420C4604D0CF
S3150800455040F28911124801F06CFE344204D04FF43F
S31508004560C5710F4801F065FE0E4B2C40D3F8302478
S31508004570012022EA0502C3F83024D3F83024144374
S31508004580C3F83044D3F82C242A43C3F82C24FFF765
S31508004590A5FE054BC3F8205470BD00BFFFFF00F011
S315080045A0D694000800C0035000E00350F8B503781D
S315080045B005460F46164613B3012B03D0022B1ED011
S315080045C0032B04D13F236A78D340D80704D440F29A
S315080045D09B11174801F02DFE164BD3F8103323B163
S315080045E04FF4CE71124801F024FE2846FFF736FE36
S315080045F0791C044606D1421C08D12046F8BD40F273
S31508004600FF33E0E7431CF8D0B8420ED12846032111
S3150800461086F00102FFF772FE012004F1100306FA84
S3150800462003F19840FFF78EFFE7E74FF0FF34E4E722
S31508004630D694000800C00350054B9A689107FCD42D
S315080046405A689207F9D4DA69002AF6D1704700BF8A
S3150800465000800A5010B5074C6368DB0704D44FF492
S315080046609F71054801F0E5FD02F0E8FB022323618E
S3150800467010BD00BF00800A508E95000808B5FFF7E8
S31508004680DBFF0122024B03F580514A601A6108BD1F
S3150800469000800A50044B10B55C68012C03D1FFF763
S315080046A0D9FF024B5C6010BD00800A5000A00A507A
S315080046B038B5074DFFF7C0FF6B680446012B03D1D9
S315080046C0FFF7E8FFFFF7B8FF2378EB6038BD00BFB8
S315080046D000800A5038B505460C4602F0B9FBBDB94C
S315080046E06268237812B1127843EAC203627843EA11
S315080046F04203A26812B1127843EA8213E27843EAC7
S315080047008203226912B1127843EA4223014A93646A
S3150800471038BD00BF00800A5030B58D488BB004F014
S3150800472040F920B14FF44E718A4801F082FD6C467B
S31508004730894D0FCD0FC42B68884A2360FF238DF857
S315080047400130D2F84C3113F4802340F0F580D2F8CA
S3150800475050218DF801309DF801306C46FF2B08BFBB
S31508004760252368467E4D8DF80130FEF7BBFA3220C8
S31508004770FEF71AFB0FCD0FC40FCD0FC495E8030043
S3150800478084E80300754BD3F84C21120340F1B88036
S31508004790A3F5FE431C88B4F5807F28BF64248DF8F2
S315080047A01940FEF799FA044484F308046D488DF815
S315080047B01840FCF709FA6846FEF77CF93220FEF73E
S315080047C0F9FA6948FEF71CFC6848FEF7A7FC684832
S315080047D004F0E7F820B140F2CB115E4801F029FD5C
S315080047E0644C0020FEF7ECFAFEF7C0FB236F0020AE
S315080047F023F0070343F003032367FEF7E1FB236F68
S315080048005D4923F4744323675C4BD3F8FC2012F00C
S31508004810807279D1D4F8803023F0030343F0010382
S31508004820C4F88030C1F88020524CD4F8203123F0E7
S31508004830070343F00203C4F82031D4F8283123F0E3
S31508004840070343F00203C4F82831D4F8803123F073
S31508004850030343F00103C4F88031D4F8403123F050
S31508004860030343F00203C4F84031D4F8603123F05F
S31508004870030343F00203C4F86031D4F8403223F04E
S31508004880030343F00203C4F84032D4F8003223F09D
S31508004890070343F00203C4F80032D4F8083223F0C1
S315080048A0070343F00203C4F80832D4F8703223F041
S315080048B0030343F00103C4F87032D4F8203223F01E
S315080048C0070343F00103C4F82032FEF7DBF84FF084
S315080048D0E0220020136943F004031361D4F8603220
S315080048E023F0070343F00103C4F86032D4F8943286
S315080048F023F0070343F00103C4F894320BB030BD2C
S31508004900D3F85041E4B24AE7D3F8FC2022F080728B
S31508004910C3F8FC20D4F8802022F0030242F00102FA
S31508004920C4F880200022C1F88020D3F8FC2042F089
S315080049308072C3F8FC2077E74FF07E6393F89C20DB
S3150800494093F99C30002BFFF606AF8DF8012002E79D
S315080049507C970008BE960008389700080080E00F8C
S315080049604C970008C017530200B4C404C0EA2101DA
S3150800497080970008008000500090005000ED00E08D
S3150800498007B5094B18689A889B7900906846ADF870
S3150800499004208DF80630FEF749FD0C20FEF77EFD53
S315080049A0002003B05DF804FB7497000813B50024D3
S315080049B0064A6846536F43F00103536700948DF81F
S315080049C00440FEF767FC204602B010BD00400050C8
S315080049D00028ABBF00F16040054B00F5614000F0D0
S315080049E00F00ACBF90F80003185C0009704700BFC1
S315080049F014ED00E04C2810B5044608D801236109D7
S31508004A00074A04F01F04A34042F8213010BD4FF4B2
S31508004A109871044801F00DFC002CF7DBEEE700BFA7
S31508004A2000E100E0BC9700084B2810B5044604D9FD
S31508004A3040F23B11064801F0FCFB064B621153F8A5
S31508004A40220004F01F04E040C04300F0010010BD3E
S31508004A50BC97000800E100E000F10C03572B10B5E5
S31508004A60044604D940F24B11144801F0E2FBEFF377
S31508004A701083DB0702D50122104610BD2046FFF73A
S31508004A80D3FF02460028F6D160B2FFF7A1FF014620
S31508004A90EFF3118313B1B0EB131FECD2084B5B682D
S31508004AA0C3F30803002BE7D0103B58B2FFF790FF7B
S31508004AB0814234BF00220122DEE700BFBC9700080E
S31508004AC000ED00E0002808DB01224309034900F055
S31508004AD01F008240603341F82320704700E100E060
S31508004AE038B500F110035C2B04460D4604D94FF483
S31508004AF0EF710E4801F09DFB0F2D04D940F2DF112E
S31508004B000A4801F096FB60B20028ACBF00F160408D
S31508004B10074B4FEA0515EDB2ABBF00F5614000F053
S31508004B200F0080F800531D5438BD00BFBC9700081D
S31508004B3014ED00E010B503F029FF0A4B1A786AB99C
S31508004B4001226FF004041A7003F01BFF20460521AA
S31508004B500134FFF7C5FF4C2CF8D110BDBDE8104055
S31508004B6003F00FBF8521002007B5684600F04EFB0D
S31508004B70DDE900010022034B03B05DF804EB00F009
S31508004B807BBB00BFF41300202DE9F04F9B46531C56
S31508004B9005460E46174687B035D170B308244FF040
S31508004BA00008784BCDF8148083F80080109B002B02
S31508004BB000F0DF80C3F80080002E00F0DC806B6810
S31508004BC0B34240F2D88003F0E1FE073605AB26F083
S31508004BD007063A46CDE9008382465B4631462846B3
S31508004BE001F0E9FD059F814607B1F8B9504603F083
S31508004BF0C8FE192007B0BDE8F08F40F2A721624829
S31508004C0001F017FBCAE7531EB3F5007F01D21A421B
S31508004C1004D040F2A2215C4801F00BFB25B940F212
S31508004C20A721594801F005FB3C46B8E7B7F80280CA
S31508004C3029694FEAC802C0EBC8080139B8F1270F3D
S31508004C4029617BD9BBF1000F51D1864206F10808CC
S31508004C5048D022463946284601F02CFD04460590E0
S31508004C60059B9844404601F0A2FD059906F10F0000
S31508004C704A88C308A2EBD002A8F80220CA88A8F876
S31508004C800430002A30D0D31A9BB201EBC202A8F82E
S31508004C90063093808B88F608A380B8F804303A4625
S31508004CA0E380414600232846668001F0CFFDAB68C5
S31508004CB00833AB60237843F0010323702B69013373
S31508004CC02B616288AB68504603EBC203EA68AB60A7
S31508004CD0934288BFEB6003F054FE109B0834002013
S31508004CE01C6087E73C46BBE7A8F80620D2E707EB37
S31508004CF008042046039201F05AFD09F10701C90884
S31508004D000598618008F10701C908A180C18899B191
S31508004D10C900039ACE1DB21A02EB0903C3F3CF03E7
S31508004D200144E3808B80A38808F1FF384FEAD8084E
S31508004D30A0F80280C380BAE7E180F4E7BBF1010F6F
S31508004D401BD107F10803B3FBF4F204FB1233B3B12A
S31508004D5022463946284601F0ADFC044623783A46F1
S31508004D6043F00103237021460123284601F06EFD16
S31508004D70A7E722203EE721203CE78642E8D13C46C9
S31508004D80ECE700BFF42300203898000807B5009325
S31508004D9013460A4601460348FFF7F6FE03B05DF8D8
S31508004DA004FB00BFF413002013460A4601460148D7
S31508004DB001F0C7BCF41300202DE9F74F0C46054651
S31508004DC020B940F28531724801F033FA002C00F020
S31508004DD0DC80D5E9056803F0D9FD14F8087C34F8B9
S31508004DE006CCFB07009002D5BCF1000F06D100984F
S31508004DF003F0C7FD012003B0BDE8F08FAB68D5F816
S31508004E00109034F804ECA3EBCC0B09F10103A4F1E0
S31508004E1008010CF10102C5F808B02B61BEF1000FBC
S31508004E2039D0A1EBCE03D888B3F802A00190187840
S31508004E3007F00207C00723D41FBB0198A0EB0A0797
S31508004E40012F28D10CF10202ABF108075244C5F82C
S31508004E501090AF6034F802ECBEF1000F1DD114F8C3
S31508004E60081C24F806EC6EF3000104F8081C013A45
S31508004E705A801A786EF300021A700022DA8040E02F
S31508004E804FB114F8087C72446FF3410704F8087CA4
S31508004E9000279F80DEE70B46DCE701EBCE0AD5E963
S31508004EA0007007EB0009CA450ED314F8081C013A2E
S31508004EB06FF3000104F8081C002124F8061C5A8028
S31508004EC01A7861F30002D7E711F83E10574611F039
S31508004ED001012FD014F8081C013A6FF3000104F8F9
S31508004EE0081C002192B224F8061C5A801A7861F32D
S31508004EF000021A70C3F107023A44C2F3CF02DA80FD
S31508004F00BA80002E3FD0B3423DD37288002A08BF2C
S31508004F101E46B8F1000F06D0434504D8B8F802205B
S31508004F20002A18BF43460098C5E9056303F029FD22
S31508004F30002060E7AEEB0C0EBEF1010FCAD1BAF83D
S31508004F4002C0AAF802109444BAF80620CAB10AEBBD
S31508004F50C20700212A69013A2A61AA68083AAA60A2
S31508004F6014F8082C24F8061C6FF3000204F8082C21
S31508004F701A78A3F802C061F300021A70002FB9D19B
S31508004F807BE71746E5E71E46C3E7222033E700BF5F
S31508004F90389800082DE9F74F0D46144699460646F7
S31508004FA020B940F26741984801F043F9B9F1000F7A
S31508004FB000F026810023C9F800307368A34240F246
S31508004FC0218155B9002C00F01D814A462946204604
S31508004FD003B0BDE8F04FFFF7E7BE2CB9284603B08B
S31508004FE0BDE8F04F01F0B7BB03F0D0FC35F8067CFE
S31508004FF007344FEAC70B24F00704A3458246A5F1F8
S31508005000080180F0878035F8023C002B65D0DA1B52
S31508005010012A62D101EBC30811F83330D8075CD4F2
S31508005020B8F80220ABEB040313EBC20355D41F2BCD
S3150800503038DDC4F3CF022F1925F8062C013225F8DE
S31508005040022C3846009301F0B2FB35F8022C009B7F
S31508005050BA80B8F80620DB087B800AB3B8F80210D5
S31508005060511A11FA83F39BB208EBC202FB809380B4
S31508005070002342463946304601F0E8FB404601F037
S3150800508096FBB368A4EB0B041C44F368C9F80050FC
S315080050909C42B4603CD8504603F073FC002426E0DA
S315080050A0FA80E5E733690137013B3361B8F8063022
S315080050B0174425F8067C6BB1B8F802209A1A12FA3A
S315080050C087F7BFB208EBC30325F8027C9F8001234C
S315080050D04246D0E725F8023CF9E720464A46002131
S315080050E0FFF762FE044630B1504603F04AFC2046FC
S315080050F003B0BDE8F08F5A462946D9F8000001F0FA
S315080051003BFC284601F027FB04460028C3D0EBE702
S31508005110F460C0E771D935F8022CABEB0408531ECE
S31508005120DB1B002A38D001EBC20711F83220D20760
S3150800513033D493BBC4F3CF03291925F8063C0133AE
S31508005140084625F8023C009101F031FB009935F834
S31508005150022C7B888A80FA8803EBD8034B80C2B17D
S315080051607888101A10FA83F39BB207EBC202CB8039
S315080051709380304600233A4601F068FB384601F032
S3150800518016FBB368A4EB0B042344C9F80050B360BC
S3150800519081E70023CB80ECE71746B8F1270FF0D953
S315080051A0C4F3CF02291925F8062C0132084625F83A
S315080051B0022C0091019308F1FF3801F0F8FA0099E2
S315080051C035F8022C4FEAD808A1F802808A8097B1F0
S315080051D0019B013313FA88F81FFA88F8A1F80680AC
S315080051E0A7F80480336930460133336100231A4631
S315080051F001F02CFBC5E7CF80F4E7C9F800504AE771
S31508005200222474E7212472E7389800080249034AE1
S315080052100160521A426070470024002000000420F2
S3150800522038B503690D4614460BB33AB999B90468FB
S3150800523024B940F239110F4800F0FBFF2378D9074B
S3150800524007D555B9E38893B104EBC3042378DA0785
S31508005250F8D4204638BD8469EAE7012D07D1A3882A
S315080052602BB1A4EBC3042378DB07F8D4F1E70024B9
S31508005270EFE700BFA6980008F8B50D4617461C4686
S31508005280064618B111B1042A00D823B940F28F1185
S315080052900E4800F0CEFF00213046C4E90065C4E997
S315080052A00211C4E9056621612777616201F07FFA78
S315080052B02369013DED08013375802361A36808461B
S315080052C00833A360E3680833E360F8BDA6980008CE
S315080052D000487047F413002008B500F06CFF034B34
S315080052E01868BDE8084003F05DBC00BF1C14002028
S315080052F030B5094D8BB001AC0FCD0FC40FCD0FC41F
S315080053002B68002101AA0548236003F0F8FB044B2B
S3150800531018600BB030BD00BF1C990008D9520008B0
S315080053201C14002070B503F031FB144E0546347882
S31508005330FCB9134B1C60134B1C60134B1C6000F02C
S315080053402BF8012003F096FB01F056FF0F4B02469F
S31508005350186020B9284603F014FB232070BD2346A5
S3150800536040F2E7310A4800F07FFA0A4B1860012339
S315080053703370284603F005FB0020EFE7882100205C
S315080053802814002024140020301400202C14002097
S3150800539018FCFFFF2014002010B5002486B0142244
S315080053A0214601A88DF8004001F0DEFA01231348D2
S315080053B08DF8043003F0F5FABFF34F8F6846FFF710
S315080053C077F9204601A98DF80440FFF783F92046AE
S315080053D00F2101F05DFD0F21204601F067FDFFF763
S315080053E04DF901F02BFD064B43209C61FFF76AFB44
S315080053F04320FFF7FFFA06B010BD00BF7C970008F0
S3150800540000800A5010B5044601F0EEFB4FF47A729C
S315080054109042B0FBF2F105D23621BDE810400C48A7
S3150800542000F007BF0B4BB3FBF1F30B49884201D9D8
S315080054303C21F2E702FB04F0B0FBF3F0022806D9A0
S31508005440BDE810400323B0FBF3F0FAF791BE10BD98
S31508005450A699000840420F00E7CD9A3B40F6B131C5
S31508005460014800F0E6BE00BF049A0008002307B50D
S315080054700193084B1B68013304D040F221310648DA
S3150800548000F0D7FE03F0F4FC019B002BFCD003B020
S315080054905DF804FB882300209D9B000808B5EFF300
S315080054A005830F2B0AD90E4A9B5C0E4A12789A423C
S315080054B004D940F2A1710C4800F0BBFE4FF0E0237E
S315080054C00A4AD3F80C3D126803F4E063934206D9FE
S315080054D0BDE8084040F2B171034800F0AABE08BD15
S315080054E0F0E300E0292200209D9B0008C41F00204D
S315080054F081F0004102E000BF83F0004330B54FEA77
