S0240000626C696E6B5F6B65726E656C5F6672656572746F735F70726F6A6563742E733337C1
S3150800000000040020C9040008DD4C0008DD4C000887
S31508000010DD4C0008DD4C0008DD4C0008DD4C00080E
S31508000020DD4C0008DD4C0008DD4C0008B9700008FE
S31508000030DD4C0008DD4C00085D70000851720008B0
S31508000040DD4C0008DD4C0008DD4C0008DD4C0008DE
S31508000050DD4C0008DD4C0008DD4C0008DD4C0008CE
S31508000060DD4C0008DD4C0008DD4C0008DD4C0008BE
S31508000070DD4C0008DD4C0008DD4C0008DD4C0008AE
S31508000080DD4C0008DD4C0008DD4C0008DD4C00089E
S31508000090DD4C0008D90E0008DD4C0008DD4C0008D0
S315080000A0DD4C0008E90A0008C90A0008DD4C00080A
S315080000B0DD4C0008DD4C0008DD4C0008DD4C00086E
S315080000C0DD4C0008DD4C0008DD4C0008DD4C00085E
S315080000D0DD4C0008DD4C0008DD4C0008DD4C00084E
S315080000E0DD4C0008DD4C0008DD4C0008DD4C00083E
S315080000F0DD4C0008DD4C0008DD4C0008DD4C00082E
S31508000100DD4C0008DD4C0008DD4C0008DD4C00081D
S31508000110DD4C0008DD4C0008DD4C0008DD4C00080D
S31508000120DD4C0008DD4C0008DD4C0008DD4C0008FD
S31508000130DD4C0008DD4C0008DD4C0008DD4C0008ED
S31508000140DD4C0008DD4C0008DD4C0008F3710008A2
S31508000150DD4C0008DD4C0008DD4C0008DD4C0008CD
S31508000160DD4C0008DD4C0008DD4C0008DD4C0008BD
S31508000170013800D0FCE770470348044B834202D09D
S31508000180034B03B11847704754190020541900202F
S3150800019000000000064B0749C91A891048BF0131FB
S315080001A0491003D0044B0BB101481847704700BFEC
S315080001B054190020541900200000000010B5064C00
S315080001C0237843B9FFF7D8FF044B13B10448AFF3BC
S315080001D000800123237010BDD41600200000000003
S315080001E06082000808B5054B1BB105490548AFF301
S315080001F00080BDE80840FFF7CDBF00BF0000000043
S315080002000004002060820008A3F5803A704700BF0A
S31508000210174B002B08BF134B9D46FFF7F5FF002130
S315080002208B460F461348144A121A05F0CDF80E4BA2
S31508000230002B00D098470D4B002B00D09847002084
S31508000240002104000D000D48002802D00C48AFF329
S31508000250008004F0EDFC2000290005F061F804F0A8
S31508000260D5FC00BF000008000000000000000000E8
S315080002700004002000040020D4170020000000001D
S31508000280000000002DE9F041A8B000F0F9F8354D5E
S315080002903549286008A805F0B4F808A805F0A9F8B3
S315080002A008A90246286801F0BDFA304908A805F0F1
S315080002B0A8F808A805F09DF808A90246286801F0DC
S315080002C0B1FA00242A4E2B4FDFF8B880012228689D
S315080002D00DF1070101F074FA9DF807300A2B01D0D9
S315080002E00D2B35D104F1A0030DEB030400230222E4
S315080002F0314604A804F8903C05F054F898B1032256
S31508000300394604A805F04EF8044670B91A4903A8F8
S3150800031005F077F823464FF0FF321848029402A9F1
S31508000320006805F04DFC0024D0E70322414604A8E6
S3150800033005F038F804460028F5D10F4903A805F05A
S3150800034060F823464FF0FF320D48029402A9E7E70A
S315080003500E2CE8D004F1A0026A4402F8903C01345D
S31508000360B4E700BF980700205876000863760008AF
S31508000370987600089B7600089F7600089407002068
S3150800038090070020A27600081FB500240821134B09
S31508000390134A0520009405F0A1FD124B08211860A8
S315080003A0114A124B0520009405F098FD104BA02227
S315080003B01860104B10490293104B11480193012302
S315080003C00093234605F040FF30B967210D4804B075
S315080003D0BDE8104004F090BC04B010BD40070020F2
S315080003E0FD16002094070020D5160020F0060020F0
S315080003F09007002018040020A67600087004002044
S3150800040085020008B176000808B5044806F07FFEA4
S31508000410BDE80840024800F077BB00BFCC7D000865
S31508000420D417002008B5044804F068FCBDE8084065
S31508000430024804F063BC00BFDC760008C4760008F6
S31508000440014804F0BFBC00BFF476000818B1034B9E
S315080004501860002070472520704700BF9C070020C1
S3150800046010B5054C0549206801F02EF82068BDE84E
S315080004701040FFF7EBBF00BF14190020E817002053
S31508000480014B1868704700BF9C07002008B5034851
S3150800049006F03DFEBDE8084004F0FCBBCC7D000834
S315080004A0014806F034BE00BFCC7D00080348044A64
S315080004B00449121A921004F012BC00BF7001000819
S315080004C070010008D417002008B5154B83F30A8875
S315080004D000F030F8FFF7EAFF124B13498B4212D3AC
S315080004E00020124B12498B4218D3FFF791FE186869
S315080004F050F82240586840F82240013298688242F3
S31508000500F5D30C33EAE70022F8E71C6844F8220022
S3150800051001325C68A242F8D30833E4E70022F8E720
S3150800052000000020688200087482000874820008AF
S31508000530748200084FF48041124B134A70B59A60D2
S31508000540D3F88820114D42F47002C3F88820104A67
S3150800055005F5005491664FF0FF3222660D4A626631
S315080005600222C3F8D020BFF34F8FBFF36F8F4FF42B
S315080005704036002003F012FE0020E66003F0A6FDD8
S315080005802E6170BD00ED00E0000000080080004408
S3150800059000900050F7FF3700014B1860704700BF06
S315080005A01C190020054B1860054B1B6F03F0070349
S315080005B0032B01D104F054BF704700BF2419002053
S315080005C00080005030B5056887B0AB8804461E48E1
S315080005D0ADF80C3006F09BFD0022012103A800F0BF
S315080005E083F80DF10B0103A800F04AF99DF80B30CA
S315080005F083F001032B70AB79022B19D14FF0FF332F
S315080006000022CDE904330094104B04A903A800F096
S31508000610FFF9049B009401330C4B0CD1042205A965
S3150800062003A800F05FF918B16F21094804F064FBCC
S31508000630002007B030BD012205A903A800F052F931
S315080006400028F5D07E21F0E7CC7D0008094D00088A
S315080006500C7700082DE9F04104460C254FF00108F7
S31508000660124E0CB314F001000BD0002024F0010444
S3150800067005FB00625768002FF3D09168C0B2B847EF
S31508000680EFE72246013020284FEA520201D0D3076D
S31508000690F8D508FA00F20F2824EA0204E8D9103837
S315080006A005FB0062B432E5E7BDE8F08104080020E6
S315080006B008B50C4806F02BFD192003F021FD28B1DA
S315080006C0192003F06BFD192003F000FD1A2003F032
S315080006D017FD28B11A2003F061FD1A2003F0F6FC75
S315080006E0002008BDCC7D00082DE9F0410E46904655
S315080006F0044638B993211A4804F0FEFA22252846FA
S31508000700BDE8F0810F290CD8037883B1012B03D0FB
S31508000710022B0CD0032B04D13F236278D340DB078E
S3150800072008D497210E4804F0E7FA2125E7E740F2B6
S31508000730FF33F2E70B4BD3F810532DB19B21084832
S3150800074004F0DAFA0225DAE706F0D6FC074642464E
S315080007502046314603F03EF9384606F0C8FCCEE797
S315080007607077000800C0035038B5044628B9134806
S31508000770E42104F0C1FA222038BD037883B1012BA5
S3150800078003D0022B0CD0032B04D13F236278D3402D
S31508000790DB0708D40948E82104F0AEFA2120EBE784
S315080007A040F2FF33F2E706F0A7FC0546204604F0C0
S315080007B02DFF284606F09BFC0020DDE77077000831
S315080007C038B5044628B91448FC2104F095FA2220C5
S315080007D038BD03788BB1012B03D0022B0DD0032B28
S315080007E004D13F236278D340DB0709D40A484FF483
S315080007F0807104F081FA2120EAE740F2FF33F1E73D
S3150800080006F07AFC0546204603F008F8284606F066
S315080008106EFC0020DCE700BF7077000870B50D4657
S31508000820044600B131B9154840F22D1104F064FAB6
S31508000830222070BD03788BB1012B03D0022B0DD07B
S31508000840032B04D13F236278D340DB0709D40B4836
S3150800085040F2311104F050FA2120EAE740F2FF3362
S31508000860F1E706F049FC0646204603F02DF8287005
S31508000870304606F03CFC0020DBE700BF7077000836
S3150800088070B50D46044600B131B915484FF4A37149
S3150800089004F032FA222070BD03788BB1012B03D005
S315080008A0022B0DD0032B04D13F236278D340DB07FC
S315080008B009D40B484FF4A57104F01EFA2120EAE783
S315080008C040F2FF33F1E706F017FC0646204602F031
S315080008D0CFFF2870304606F00AFC0020DBE700BF91
S315080008E0707700082DE9F0410D46164698460446ED
S315080008F000B139B92F484FF4E07104F0FDF9222010
S31508000900BDE8F081027872B1012A19D0022A0AD00C
S31508000910032A15D0FF2A0CD04FF4E271254804F0BB
S31508000920EBF92120ECE740F2FF336278D340DA078F
S31508000930F2D5022E07D9042E05D04FF4E471EDE75F
S315080009403F236278F2E706F0D7FB23780746FF2BAA
S3150800095005D032462046296803F0A4F828602B689B
S31508000960013309D12378FF2B06D1134B6078D3F8CE
S31508000970241404F0DEFB286029684B1C14D00C23D1
S315080009800E4A03FB0122069BC2F804809360237873
S31508000990FF2B04D001230A4A8B40C2F82434384678
S315080009A006F0A5FB0020ABE7384606F0A0FB2D2095
S315080009B0A6E700BF7077000800C0035004080020AF
S315080009C000D003500F2810B5044606D90D4840F24A
S315080009D0F11104F091F9212010BD06F08DFB0123D9
S315080009E0094AA340C2F82034C2F824340C22074B23
S315080009F002FB04330024C3E9014406F078FB2046D1
S31508000A00EAE700BF7077000800E0035004080020FA
S31508000A102DE9F0410D4690461F46044600B139B906
S31508000A2026484FF40B7104F067F92220BDE8F081DF
S31508000A30017871B1012938D002290AD0032934D0A6
S31508000A40FF290CD01D4840F2312104F055F9212028
S31508000A50ECE740F2FF336278D340DA07F2D506F0C6
S31508000A604BFB23780646FF2B05D0424620462968CD
S31508000A7003F008F928602A68531C19D00C2310497A
S31508000A8003FB0211069BC1F8B870C1F8BC30237885
S31508000A90FF2B05D00123103293400A4AC2F82434AA
S31508000AA0304606F024FB0020C0E73F236278D3E7F0
S31508000AB0304606F01CFB2D20B8E700BF707700080B
S31508000AC00408002000D0035008B502F029FF054BA2
S31508000AD000F0553020F05020C3F82004BDE8084047
S31508000AE0FFF7B8BD00E0035008B502F019FF054B43
S31508000AF000F0AA3020F0A020C3F82004BDE8084082
S31508000B00FFF7A8BD00E0035070B5044686B018B9D3
S31508000B10AC212E4804F0F0F82368B3F1B64F07D09D
S31508000B202B4A93424BD12B4806F0F1FA012503E0F4
S31508000B30294806F0ECFA0025A3880122ADF8003012
S31508000B40E3880A216846ADF80430FFF7CDFD012297
S31508000B500A2101A8FFF7C8FD0A266846FFF730FEF6
S31508000B60642003F077FE6846FFF7FEFD642003F075
S31508000B7071FE013EF1D10323184A02EB0511C1F8B3
S31508000B80E834607923794F3543EA0043C1F8EC34F9
S31508000B90E179A3792D0143EA0143535140F2011348
S31508000BA0ADF80830E36820680493A36802A90393A4
S31508000BB0237C8DF8143002F01BFD06B070BDD121E0
S31508000BC0024806B0BDE8704004F096B8C977000838
S31508000BD000800650C47D0008C87D000800C0035088
S31508000BE013B504460A4806F092FAA2780421B2FA26
S31508000BF082F2237852098DF8043063780DEB0100F0
S31508000C008DF80530FFF770FD002002B010BD00BF5B
S31508000C10CC7D00082DE9F04F9A46564B85B01B78D7
S31508000C2006460F461546DDF83C909DF844B0DDF8BB
S31508000C305080002B00F09780072A00F296800E9BC2
S31508000C40002B00F09280B9F1000F00F08E80129B05
S31508000C50B3F5006F00F38980012803D1109B002BA0
S31508000C6000F08380444B03EB05131B7B002B7ED0DF
S31508000C70424C10220021684604F0A6FB04EB4514FA
S31508000C801022A7BB3946204604F09EFB43F2100308
S31508000C906380BBF1000F03D1E37843F00303E370ED
S31508000CA0364A0E9B02EB451CCCE90193129B69015F
S31508000CB0581E9DF84C30C0F30A0003F003039B0648
S31508000CC043EA001E53582E48012E00EA03004EEA56
S31508000CD00003CDF800A0535017D0B8F1000F2ED15D
S31508000CE09CF8023068F304138CF8023027E00021E0
S31508000CF0204604F069FB4FF444736380BBF1000F90
S31508000D00CED1E37843F03003C9E713230CF1100E74
S31508000D10CCF80C309CE80F008EE80F006FF003014A
S31508000D20DCF81C20109B61F39F02012FCCF81C20D5
S31508000D30CCF8143003D1CCF81890CCF8043000273E
S31508000D400D4A290102EB051342F80180159A284637
S31508000D505A60694622469F605E7302F0E3FC384695
S31508000D6005B0BDE8F08F0748FAE70748F8E70748EF
S31508000D70F6E700BF251700206C0A00206C09002042
S31508000D800F80FFF3028000F0018000F0078000F07A
S31508000D9038B5124B05461B78DBB1E0B106F0ACF965
S31508000DA00F4A00231146147B54B92B6001251A01FA
S31508000DB001EB03131D738C5006F099F9204638BDD4
S31508000DC00133082B02F11002EDD106F090F905481F
S31508000DD0F5E70548F3E70548F1E700BF25170020C2
S31508000DE06C0A0020048000F0028000F0018000F008
S31508000DF0154B13B51868002301908DF8043006F0DA
S31508000E007BF9124B1C7824B106F071F9104802B030
S31508000E1010BD01221A7006F06AF90E4B01A81C7360
S31508000E201C7783F82C4083F83C4083F84C4083F8C1
S31508000E305C4083F86C4083F87C4008238DF80730C3
S31508000E4002F028FC2046E2E726780008251700204D
S31508000E50038000F06C0A00200A4A08B512785AB1D5
S31508000E6007280BD8084A02EB00131B7B43B1002165
S31508000E7002F0F0FB002008BD0448FCE70448FAE746
S31508000E800448F8E7251700206C0A0020028000F0C5
S31508000E90018000F0078000F00A4A08B512785AB1B6
S31508000EA007280BD8084A02EB00131B7B43B1012124
S31508000EB002F0D0FB002008BD0448FCE70448FAE726
S31508000EC00448F8E7251700206C0A0020028000F085
S31508000ED0018000F0078000F0184B2DE9F0411F6DE6
S31508000EE05B6D1F4000D5FEE701260025144CDFF890
S31508000EF05880374218D02368C8F85060A3B1A16853
S31508000F00284601316268A1609847637B012B0BD1A3
S31508000F1050B90C4B03EB45131A7B60F341021A7365
S31508000F201A7F60F341021A770135082D4FEA460603
S31508000F3004F11004DDD1BDE8F08100BF00000450C3
S31508000F406C0A00206C0900200020045038B50446BD
S31508000F500D4606F0D1F8A3889BB223B92B6006F09C
S31508000F60C6F8064838BD142263889BB202FB0344C0
S31508000F7008342C6006F0BBF80020F3E70B7000F08D
S31508000F8038B141B1013AB2F5006F044838BF0020C4
S31508000F907047034870470148704700BF037000F068
S31508000FA0027000F0104930B50A78104B2AB9C3E927
S31508000FB00022C3E9022201220A700C4900220C46CB
S31508000FC054F8045B854208D00132042AF8D100227D
S31508000FD051F8044B1CB943F82200002030BD0132F9
S31508000FE0042AF5D10248F9E726170020EC0A002062
S31508000FF0027000F0002313B51D4A52F8044B94F80A
S31508001000211081420ED00133042BF6D102B010BD57
S315080010100028FBD19DF80730002BF7D0A068FFF712
S315080010201BFFF3E794F83530022BEFD1204603F087
S31508001030ADFF637E2076022BE8D194F8323003F0B8
S31508001040FF02002BE2D1A0680DF107018DF80720F9
S3150800105004F0A6FA237E1BB194F83330002BD7D0C0
S315080010600023A06884F83330FFF716FFCEE700BFE9
S31508001070EC0A002010B50446FFF7BAFE002104F179
S315080010800800FFF785FE014608B1044810BD04F1C3
S315080010900C00FFF77DFE0028F8D0F6E70E7000F08A
S315080010A0F8B5044616460F4606F026F8A388E288E1
S315080010B09BB29A42054605D80023336006F017F816
S315080010C01748F8BD1422238807F1100C9BB202FBBF
S315080010D003433A460833174603CF674518605960F5
S315080010E03A4603F10803F6D11422386818602388B3
S315080010F028469BB202FB0343083333602388E28801
S315080011009BB20133B3FBF2F102FB11339BB223808E
S31508001110A38801339BB2A38005F0E9FF0020D0E73E
S315080011200A7000F07FB5012380F8303090F8363029
S315080011309BB903682433826B013282630C4A04909C
S315080011400392002202924A680192012200920A68DA
S315080011504169C06803F099FE07E0022B02D10368D3
S315080011603C33E8E7002380F8303007B05DF804FB2D
S31508001170AD1600087FB5012380F8313090F8363077
S315080011809BB902683C32836B013383630C4B049032
S315080011900393002302934B680193012300930B6882
S315080011A00169806803F057FE07E0022B02D1026846
S315080011B04432E8E7002380F8313007B05DF804FBD5
S315080011C08912000890F8363063B9012203685A611B
S315080011D09A69D207FCD504210379084AB9335B0119
S315080011E0D1507047022B07D10068836C9B074CBF10
S315080011F00521092101F090BE704700BF00C00350C9
S3150800120090F8363053B9042103790A4A03F23913A0
S315080012105B01D150022203685A617047022B07D13D
S315080012200068816C11F0020118BF062101F074BE36
S31508001230704700BF00C0035010B590F8363004461A
S3150800124063B9042203685A619A699207FCD523791F
S315080012500C4AB9335B011021995010BD022BFCD101
S315080012600068836CDB074CBF0521062101F054FE9C
S31508001270237941F294425B0103F1A04303F57033ED
S31508001280E9E700BF00C003502DE9F341D06A01A980
S315080012901446FFF75BFE0546204604F0A7F9194BEE
S315080012A09D4228D0019D25B940F2A531164803F084
S315080012B023FD00272F61AF6005F01EFFD5F80C80CF
S315080012C00646B8F1000F04D0D5E900233946204672
S315080012D0C047E06A01A903F072FEE06A83889BB200
S315080012E06BB101A9FFF732FE20460199FFF742FFCD
S315080012F0304605F0FCFE012002B0BDE8F08184F816
S315080013003130F5E70B7000F02A7800082DE9F04136
S3150800131004461746FFF734FE88460646E8B9152000
S3150800132002F006FF0546E26A93889BB213B194F869
S315080013303230ABB194F83630BBB923689D6915F0E5
S3150800134002052CD0012384F834304744B845206878
S3150800135049D183699B06FCD56DB33046BDE8F0815B
S31508001360002DE1D0FFF7B8FDDDE7022B12D1236887
S315080013709D6C15F0020512D0012384F834304744D9
S315080013804745206836D142F22002836C32EA0303CD
S31508001390FBD1E1E740F697111E4803F0ADFC204665
S315080013A0FFF74AFF012394F8365084F83430002DAD
S315080013B0CBD0022D1CD094F8363003B3022BCCD1F7
S315080013C02068816C11F0010118BF092101F0A4FD04
S315080013D042F29442102123795B0103F1A04303F5FD
S315080013E070339950B9E718F8011B03F08EFEADE784
S315080013F00025C4E718F8011B03F082FEC0E7102198
S315080014002379054A03F239135B01D1500822236870
S315080014105A61A2E72A78000800C0035010B50446AE
S3150800142080B190F832302BB903F0B0FD10B9A0683E
S31508001430FFF712FD002094F832300133DBB284F84E
S31508001440323010BD0048FCE7027000F010B50446C3
S31508001450A0B190F832309BB190F83230012B05D10B
S3150800146003F094FD10B9A068FFF716FD002094F864
S315080014703230013BDBB284F8323010BD0148FCE75C
S315080014800148FAE7027000F0057000F030B5002553
S31508001490437F85B08DF8083090F821300446042241
S315080014A08DF80930039303A9064B009502A8FFF7A8
S315080014B019FA4FF4007320462383A57603F0A2FD9C
S315080014C005B030BDF50F00082DE9F04104468EB091
S315080014D06B4F06AE0D460FCF0FC697E80F0086E88E
S315080014E00F0018220021684603F06EFF002C00F05A
S315080014F0C58025B9634E30460EB0BDE8F08164223A
S315080015000021204603F060FF02232F6884F8363056
S3150800151027602B7C20462371FFF744FD06460028EA
S31508001520E9D12B7F84F83530AB682366564B9F424A
S3150800153000F09680554B9F42DCD14FF480135449F6
S31508001540544AC4E904230023616284F83130D5E99A
S31508001550091284F83030A1624F480B804B808B808B
S3150800156084F83030E26213805380938084F83130F7
S3150800157084F8333005F0CBFD636ADFF82C81986870
S3150800158005F0C5FD10212B7C08EB4312C2F8941414
S315080015902E7BA87B253346EA0041C2F8AC14697B4A
S315080015A0EA7B08EB431341EA02475F60E676E07799
S315080015B0217784F820206B7F01216377AB7F204653
S315080015C084F82130EB7FA37795F8203084F8223011
S315080015D003F075FC064600288DD1AB6802260893F1
S315080015E06B8A8DF82560ADF82830AB8ACDF834D0F3
S315080015F0ADF82630AB7D8DF82430AB690B9301230B
S31508001600ADF8063005F078FD2A7F0746032A2CD167
S3150800161041F294412B7C08EB43135E5095F8200069
S31508001620E97F41EA004103F5A5500160A87F697F7B
S3150800163041EA004141F29C4019508DF800200623EA
S315080016408DF818302B79286806A9A3B101F0D4FEC5
S315080016502046FFF70FFD0646384605F048FD4AE7DF
S315080016604FF470230D490E4A6BE7022AE7D120464C
S31508001670FFF70CFFE3E701F091FEE9E7094E3AE7C9
S31508001680A4780008037000F00000015B00000A500F
S31508001690E47D000801001000CC7D0008F07D0008FC
S315080016A001000F00027000F000C00350F7B5906A01
S315080016B001A91446FFF74AFC0546204603F096FFA3
S315080016C03B4B9D4236D0019D25B940F2D121394880
S315080016D003F012FB94F83610002939D123689A6C66
S315080016E012F4007229D0344AA9602A614FF40072B4
S315080016F003F500539A6405F0FFFCEF68064637B118
S315080017006A68AB682046D31A29692A68B847A06A66
S3150800171001A903F054FCA06A8588ADB2002D37D024
S3150800172001A9FFF713FC20460199FFF7FBFC304699
S3150800173005F0DDFC012003B0F0BD996CC80523D582
S315080017401E49AA6029614FF4807203F50053D1E758
S31508001750022919D12368DA6C12F4007209D0164AE4
S3150800176003F500532A610022AA604FF40072DA6476
S31508001770C1E7D96CC90507D51049AA6029614FF494
S31508001780807203F50053F2E700232B61AB60B2E7E2
S3150800179001232046237603F035FC94F8353084F887
S315080017A03050032BC3D02046FFF72AFDBFE700BF02
S315080017B00B7000F02A7800080D7000F00C7000F02D
S315080017C030B587B004461346FFF7DAFB30BBCDE9E0
S315080017D001130393124B04906A46A06A01A9059364
S315080017E0FFF75EFCD0B9A26A93889BB2012BFBD89F
S315080017F02046FFF7E7FC94F83530032B04D0002386
S315080018002046237603F0FEFB009D20462946FFF777
S3150800181089FC94F83030002BFBD1286907B030BD1D
S31508001820017000F030B587B004461346FFF7A8FBF1
S3150800183040BBCDE901130393194B0490059394F823
S3150800184036300BBB23689B6903F0020313B92046A5
S31508001850FFF7F2FC6A46E06A01A9FFF721FC88B99E
S31508001860E26A93889BB2012BFBD8009D2046294645
S31508001870FFF780FC012384F8343094F83130002BCC
S31508001880FBD1286907B030BD022B02D123689B6CB7
S31508001890DAE740F6FB21034803F02EFAD7E700BF44
S315080018A0017000F02A780008044BD3F88420D20689
S315080018B0FBD4D3F88400C0F3811070470040005071
S315080018C038B5104B0546D3F800310C4603F0030330
S315080018D0022B0BD0032B0DD0012B0FD103F0DAFD11
S315080018E0032305B1286004B1236038BD03F024FE44
S315080018F00923F6E703F0D4FD0823F2E701230020C5
S31508001900EFE700BF0080005038B5104B0546D3F806
S3150800191040310C4603F00303022B0BD0032B0DD0EA
S31508001920012B0FD105F0D4FB0A2305B1286004B1B9
S31508001930236038BD03F000FE0923F6E705F0CBFB6C
S315080019400C23F2E701230020EFE700BF00800050D8
S3150800195038B5104B0546D3F860310C4603F003033F
S31508001960022B0BD0032B0DD0012B0FD105F0B0FBAA
S315080019700A2305B1286004B1236038BD03F0DCFDF5
S315080019800923F6E705F0A7FB0C23F2E7012300205D
S31508001990EFE700BF0080005038B5104B0546D3F876
S315080019A040320C4603F00303022B0BD0032B0DD059
S315080019B0012B0FD105F08CFB0A2305B1286004B171
S315080019C0236038BD03F0B8FD0923F6E705F083FB6D
S315080019D00C23F2E701230020EFE700BF0080005048
S315080019E038B5124B0546D3F880300C4603F003038E
S315080019F0022B0BD0032B0DD0012B0FD103F010FDBA
S31508001A000E2305B1286004B1236038BD03F04CFDF0
S31508001A100723F6E703F0FEFC0623F2E7044841F243
S31508001A20142103F069F900231846EAE700800050FC
S31508001A30C478000838B51A4B0546D3F820010C4679
S31508001A4000F00700062821D8DFE800F028040C1467
S31508001A5010181C0003F0DEFC052305B1286004B14C
S31508001A60236038BD03F016FD0323F6E703F01CFDDB
S31508001A700723F2E703F00AFD0223EEE703F0CAFCA8
S31508001A800623EAE703F006FD0423E6E7054841F2E4
S31508001A90912103F031F900231846DEE70123DCE73C
S31508001AA000800050C478000838B5194B0546D3F8AD
S31508001AB028310C4603F00703013B052B20D8DFE845
S31508001AC003F003131B0F0B1703F0A4FC052305B142
S31508001AD0286004B1236038BD03F09CFC0623F6E7B2
S31508001AE003F0E2FC0723F2E703F0D4FC0323EEE756
S31508001AF003F0D0FC0423EAE703F0C8FC0223E6E778
S31508001B00044841F2990103F0F7F800231846DEE786
S31508001B1000800050C4780008002337B50193194B9C
S31508001B200546D3F820320C4603F00703042B1FD8CA
S31508001B30DFE803F025030F141900002101A8FFF7B9
S31508001B40B3FF12230DB1019A2A6004B1236003B0D2
S31508001B5030BD03F0A9FC07230190F3E705F0B8FAB6
S31508001B600A230190EEE703F0E7FC09230190E9E771
S31508001B7041F25601044803F0BFF80023E2E70123C7
S31508001B80E0E700BF00800050C4780008F7B50027DA
S31508001B90144B0197D3F88041064604F00304022C3F
S31508001BA00D4614D0032C0DD0012C14D1394601A8AA
S31508001BB0FFF740FF10240EB1019B336005B12C607E
S31508001BC003B0F0BD03F070FC07240190F3E703F0BF
S31508001BD05DFC0190EFE741F2E631034803F08CF82B
S31508001BE03C46E8E700800050C478000838B5164B34
S31508001BF00546D3F800020C4600F00700042819D859
S31508001C00DFE800F020030B0F130005F061FA0A2342
S31508001C1005B1286004B1236038BD03F08DFC0923A3
S31508001C20F6E705F058FA0C23F2E703F019FC0F2340
S31508001C30800AEDE7054841F2A44103F05DF8002368
S31508001C401846E5E70123E3E700800050C47800085A
S31508001C5038B5164B0546D3F808020C4600F00700BF
S31508001C60042819D8DFE800F020030B0F130005F04D
S31508001C702FFA0A2305B1286004B1236038BD03F0A2
S31508001C805BFC0923F6E705F026FA0C23F2E703F0D6
S31508001C90E7FB0F23800AEDE7054841F2DC4103F034
S31508001CA02BF800231846E5E70123E3E700800050F8
S31508001CB0C4780008002337B50193184B0546D3F8B6
S31508001CC060320C4603F00703013B032B1FD8DFE8FD
S31508001CD003F0020E1914002101A8FFF7ABFE10232A
S31508001CE00DB1019A2A6004B1236003B030BD00210A
S31508001CF001A8FFF709FE1123F2E703F0D5FB072336
S31508001D000190EDE703F0C2FB02230190E8E741F2F8
S31508001D10FD01034802F0F0FF0023E1E700800050D0
S31508001D20C4780008002337B50193184B0546D3F845
S31508001D3094320C4603F00703013B032B1FD8DFE858
S31508001D4003F0020E1914002101A8FFF773FE1023F1
S31508001D500DB1019A2A6004B1236003B030BD002199
S31508001D6001A8FFF7D1FD1123F2E703F09DFB072336
S31508001D700190EDE703F08AFB02230190E8E741F2C0
S31508001D803011034802F0B8FF0023E1E70080005055
S31508001D90C478000873B500240F4B0194D3F8703249
S31508001DA0064603F00303012B0D4607D0022B11D07C
S31508001DB041F25B11094802F09FFF04E0214601A8A1
S31508001DC0FFF7A2FD11240EB1019B336005B12C600B
S31508001DD002B070BD1524F6E700800050C4780008EC
S31508001DE008B5334B98424FD027D8324B984245D046
S31508001DF017D8314B98423ED00AD838B12F4B984263
S31508001E0039D041F2BB312E4802F076FF002034E08B
S31508001E102C4B98422FD02C4B9842F2D12B4B586E14
S31508001E202BE02B4B98422CD003F5371303F5D863D8
S31508001E309842E6D1254B986F1FE0264B98422FD043
S31508001E400CD8254B984223D0244B984224D0244BB7
S31508001E509842D6D11D4BD3F884000EE0214B984208
S31508001E6022D003F5740303F510539842C9D1174BD2
S31508001E70D3F8980001E0154B986D08BD134B186F01
S31508001E80FBE7124B586FF8E7104BD3F88000F4E7DE
S31508001E900E4BD3F88800F0E70C4BD3F88C00ECE730
S31508001EA00A4BD3F89000E8E7084BD3F89400E4E728
S31508001EB080BA8C01405DC60080841E0040420F0037
S31508001EC0C478000800093D00C0CF6A000080E00F12
S31508001ED00024F400007E560380D54302006CDC0221
S31508001EE00048E8010090D003B0F5207F10B52ED049
S31508001EF009D8B0F5007F24D003D868B1B0F5C07F03
S31508001F000AD000241BE0B0F5607FFAD1124BD3F853
S31508001F108040C4F3011412E00F4B1C6F230B13F01F
S31508001F200E0FC4F303340AD0072C08D00F2C06D0A2
S31508001F30032C04D04FF42271084802F0DDFE601C21
S31508001F4010BD054BD3F89040C4F30464F7E7024B81
S31508001F501C6FC4F38024F2E700800050C4780008A0
S31508001F604FF4803238B5104B04469A6600200D4669
S31508001F70FFF7BAFF41F671320C4B6043DC69DA634E
S31508001F805A6804F4803422F440125DB9084988423C
S31508001F9094BF00200120000502435A600CB10022BC
S31508001FA0DA6338BD0349F2E7009000500000035099
S31508001FB0005A6202002D310138B5430904460D4620
S31508001FC00ED140F235310D4802F096FE002304F09A
S31508001FD01F0485B103F580530122A2401A6038BD5B
S31508001FE0012B04D0022B04D040F24331EBE7044B1B
S31508001FF0EDE7044BEBE703F50053EDE7C47800087B
S315080020006480005068800050002130B5B0F5807FAC
S3150800201085B00446CDE9001100F0D3803DD85E288E
S3150800202033D85E2833D8DFE800F04832323232320D
S315080020303232323232323232323232323232323272
S315080020403232323232323232323248AD48ADBDBD2A
S31508002050BDBDBDADC7516EDD51ADADAD323232320B
S3150800206032323232ADADAD81E7AD32323232323252
S3150800207032323232323232BD484848E25151EC905F
S3150800208066C2323232323298480080286AD040F22C
S31508002090A441604802F030FE67E0B0F5D06F00F06A
S315080020A0A18035D8B0F5607F77D01AD8B0F5007F13
S315080020B05ED005D8B0F5C07FE9D103F0D1F953E079
S315080020C0B0F5207F5ED0B0F5407FE0D103F0C8F9C7
S315080020D004464FF42070FFF707FFB4FBF0F46408DA
S315080020E059E0B0F5B06F67D00AD8B0F5806F59D00F
S315080020F0B0F5A06FCBD100216846FFF70DFD34E09F
S31508002100B0F5C06FC3D100216846FFF7FDFB2CE090
S31508002110B0F5106F6BD00ED8B0F5086F76D0B6D87C
S31508002120B0F5E06F68D0B0F5F06FB0D10021684621
S31508002130FFF70EFC19E0B0F5406F38D00AD8B0F5B5
S31508002140206F5ED0B0F5286FA1D100216846FFF751
S3150800215021FE0AE0B0F5486F99D100216846FFF7DD
S31508002160E1FD02E003F05CF90090009805B030BD8F
S3150800217003F056F905462046FFF7B6FEB5FBF0F51F
S315080021800095F2E703F06CF904464FF42070FFF768
S31508002190ABFEB4FBF0F40094E7E701A8FFF720FCD8
S315080021A0019DE8E700216846FFF744FCDDE70021CA
S315080021B06846FFF779FCD8E700216846FFF7E6FC92
S315080021C0D3E74FF0E02302911B695B0705D503F0BF
S315080021D047F90290029B0093C7E703A902A8FFF7F5
S315080021E093FBF7E700216846FFF700FDBDE70021EE
S315080021F06846FFF72DFDB8E700216846FFF7CCFBD8
S31508002200B3E700216846FFF755FDAEE76846FFF7D6
S3150800221057FBAAE7C478000808B58020FFF7F4FE44
S31508002220034B98429EBF4FF48032024B1A6708BD93
S31508002230005A620200A000501FB503460020B3F5FD
S31508002240807F019000F0C58063D85D2B54D84C2B55
S3150800225006D82D2B46D8232B2AD840F28951A7E039
S315080022604D3B102BF9D801A252F823F0C9230008D8
S315080022705B2200085B2200085B2200087323000823
S315080022805B2200085B22000823240008912300082B
S3150800229037230008192400085B2200085B2200087F
S315080022A05B2200085B2200085B2200082D24000838
S315080022B0243B092BD1D801A252F823F0C9230008E0
S315080022C0C9230008C9230008C9230008C923000830
S315080022D05B220008B92300085B2200085323000884
S315080022E0FF2300083D2B00F085803E2BB5D100204A
S315080022F001A9FFF751FB63E0802BAED14E4B1B6F54
S3150800230003F00703013B032B50D8DFE803F04D46E3
S31508002310494BB3F5F06F6DD020D8B3F5B06F4BD0FD
S315080023200ED8B3F5607F73D097D3B3F5806F4BD0D3
S31508002330B3F5A06F91D1002001A9FFF7EDFB3FE0AF
S31508002340B3F5D06F5BD0B3F5E06FD0D0B3F5C06FFF
S3150800235083D1002001A9FFF7D7FA31E0B3F5206F42
S315080023605FD00BD8B3F5086F4ED0B3F5106F7FF476
S3150800237074AF002001A9FFF76BFC21E0B3F5406FAD
S315080023804AD0B3F5486F51D0B3F5286F7FF465AFDF
S31508002390002001A9FFF7FEFC12E0052301930FE0D8
S315080023A00323FBE70823F9E70223F7E740F2D641C0
S315080023B0224802F0A1FC03E0002001A9FFF7E6FB92
S315080023C0019805B05DF804FB002001A9FFF732FB70
S315080023D0F6E74FF0E02302901B695B0705D503F08B
S315080023E03FF80D230393039BD8E703A902A8FFF739
S315080023F08BFAF8E7002001A9FFF7AAFAE0E7002020
S3150800240001A9FFF7F3FBDBE701A9FFF759FAD7E7BD
S3150800241001A9FFF7E5FAD3E7002001A9FFF744FB76
S31508002420CEE7002001A9FFF745FCC9E7002001A96E
S31508002430FFF778FCC4E700BF00800050C4780008A6
S315080024404FF48032074B0849586E03F580535A6695
S315080024504B6A23F001034B62C3035CBF034B5A6606
S31508002460704700BF0080005000C0075000A0005011
S3150800247038B5036804460F2B04D940F68A317C48E0
S3150800248002F03AFC63680F2B04D940F68D31784880
S3150800249002F032FCA3680F2B04D94FF43961744853
S315080024A002F02AFC237B0F2B04D940F6933170489F
S315080024B002F022FC637B0F2B04D940F696316C4858
S315080024C002F01AFCA37B3F2B04D940F699316848E1
S315080024D002F012FCE37B3F2B04D940F69C3164489A
S315080024E002F00AFC2369032B04D940F69F316048A1
S315080024F002F002FC6369032B04D940F6A2315C485A
S3150800250002F0FAFBE369032B04D940F6A5315848D3
S3150800251002F0F2FB8020FFF78FFE032800F083808D
S315080025204FF48012534B4FF0A0615A6645F60E02DF
S31508002530514BC3F88020514A91624FF4803102F51D
S31508002540805291629A6DD203FCD4996D11F0804144
S31508002550FBD1D4E90002120542EA0062E07B02439D
S31508002560207B42EA0042607B42EA0032A07B42EAD4
S3150800257080121A619869D4E90452120642EA856201
S3150800258000F000400243A07EE57E0243207E42EA38
S315080025900042607E42EA00229A611A6AE06922F0E5
S315080025A00F0242EA8502364D00283DD11A6294F898
S315080025B02420996A94F82000D200294042EA401261
S315080025C00A4394F8211042EA011242F480329A62D0
S315080025D02C49294A936D31EA0303FBD14FF08071E8
S315080025E0264881621369A56823F4700343EA0553F4
S315080025F013614FF00043836194F822300BB9224BE4
S31508002600996294F823303BB94FF480321E4B9A6294
S31508002610194A936D5B00FCD494F825301BB1164B10
S315080026201A4AC3F8802038BD024342F0080202283D
S315080026301A6208D119614FF40852996114484FF487
S315080026407F4102F01BFD0C4994F822308A6A94F8FF
S3150800265020001B062A4043EA4013134394F824201B
S3150800266043EAC20394F8232043EA02438B62D3E782
S31508002670C4780008009000500040005A0050005AE4
S31508002680C7FFFEFE030001000060005AF1A7FFFF26
S315080026903440005A014B93F900007047471900204F
S315080026A0436810B5072B044604D940F6E6512A4874
S315080026B002F022FBA368032B04D940F6E85126480A
S315080026C002F01AFB2378032B04D940F6EA51224874
S315080026D002F012FB94F90130002B04DA40F6EC51B3
S315080026E01D4802F009FB4FF400011C4A6378516645
S315080026F04FF4D151022002F5B832516218494F2BD6
S3150800270048604FF0010028BF4F2301F5805148600B
S315080027101169C903FCD4217843EA01235361D4E93A
S3150800272001131B0143EA0123617B0B43217B43EA27
S3150800273041039360E37BA17B1B0143EA4113617C60
S315080027400B43217C43EA41035360A37C13B16FF426
S31508002750D153536210BD00BFC478000800900050E2
S3150800276000100250014B1880704700BF4219002024
S31508002770014B1880704700BF401900204FF48002B3
S3150800278008B5184B5A660223174A5360936813F420
S315080027908033FBD1012822D102F07CFE134B9842EC
S315080027A015D003F5122303F5F863984213D0104B9E
S315080027B000EB8002400AB3FBF0F3520A0A49CA62E8
S315080027C00B6301234B620022074B5A6008BD45F68E
S315080027D07A13084AF2E745F61A03074AEEE7536200
S315080027E0F1E700BF009000500040025000F0490297
S315080027F064666666D8B80500BBCF0500B0F5207FCD
S3150800280038B577D00ED8B0F5007F61D003D890B32D
S31508002810B0F5C07F2FD04FF44671BDE838403D482B
S3150800282002F06ABAB0F5607FF5D13B4A4C1ED2F881
S31508002830FC5015F080751EBFD2F8FC3023F080736B
S31508002840C2F8FC30032C04D940F2F721314802F0D3
S3150800285053FA324AD2F8803023F0300343EA04139D
S31508002860C2F8803035B12C4AD2F8FC3043F0807378
S31508002870C2F8FC3038BD4C1E012C0AD9102903D8E1
S31508002880274BCB40DB0704D440F2CB21214802F08A
S3150800289033FA02F002FC02F00EFC4FF48031214BB1
S315080028A01E4A1967136F23F4704343EA0433136708
S315080028B002F0D6FD0446FEF7F7FFC0F102012046F6
S315080028C002F0F3FB00F048F8BDE83840FFF7A4BC77
S315080028D04C1E1F2C04D94FF443710E4802F00CFA13
S315080028E00E4AD2F8903023F0F85343EA0463C2F84C
S315080028F09030BFE74C1E012C04D940F2123105482E
S3150800290002F0FAF9054A136F23F4806343EA842335
S315080029101367AFE7C478000800ED00E000800050B8
S31508002920100101000090005008B50121022000F0B6
S3150800293099F94FF42070FFF7D7FA054B187002F093
S31508002940ACFB02F0B8FB4FF48032024B1A6708BDA5
S31508002950271700200090005008B54FF4C070FFF705
S3150800296053FBBDE808400449884294BF012102216F
S315080029704FF42070FFF742BF80F0FA0238B50446DC
S3150800298002F06EFD0546FEF78FFFC0F102012846EC
S3150800299002F08BFB0121002000F0B8F92CB1FFF7FB
S315080029A0DBFFBDE83840FFF737BC034B4FF4207018
S315080029B01978FFF723FFF4E7271700202DE9F041E0
S315080029C00546FFF70DFA431E0333044604D940F6BD
S315080029D0E2113B4802F090F94FF4C022394B5A668F
S315080029E003F598335A68012A04D137494A605A6868
S315080029F09207FCD48020FFF71FFC052807D102F0B8
S31508002A004CFB02F058FB4FF480322E4B1A672F4BC3
S31508002A1024F040749D4239D02D4B9D4239D002F0A6
S31508002A20F9FC8542064603D90121284600F06EF9CD
S31508002A30284FFB6813F0060FFBD1D7F80880BC6057
S31508002A40BB68634013F4F81F26D12846FDF7A4FD9A
S31508002A508020FFF7F1FB052814D102F001FDA842FA
S31508002A60044604D940F63B21154802F045F9FEF71D
S31508002A701BFFC0F10201204602F017FBFFF76CFFAF
S31508002A80FFF7CAFBAE4213D2BDE8F08144F00074EA
S31508002A90C5E744F08074C2E740F62A21084802F0E8
S31508002AA02BF98020C7F80880FFF7C6FB052805D054
S31508002AB0BDE8F0410121002000F028B93546CCE7F1
S31508002AC0C47800080090005000E0015040420F0012
S31508002AD080841E00000001504E4B70B59842054692
S31508002AE073D041D8A3F5B703A3F55863984265D0C8
S31508002AF033D8494B494E984251D017D8002877D039
S31508002B0041F2DE11464802F0F7F840F6867144486D
S31508002B1002F0F2F84FF40022404B5A663E4B9D42B3
S31508002B2076D000243F4A954236D05DE03D4B984228
S31508002B3027D03D4B9842E3D13C4BD3F8A040621EC8
S31508002B40033224F040744CD940F68671344802F0BA
S31508002B50D3F84FF400237366E4E7354B9842CFD198
S31508002B60324BD3F8BC402CE0324B984231D0324B32
S31508002B70984232D0314B9842C2D12C4BD3F8C84038
S31508002B801FE02A4BD3F8A040621E033224F040749B
S31508002B90DAD84FF40023736644F0807424E0234B9C
S31508002BA0D3F8A040621E033224F040742AD84FF4AA
S31508002BB000237366234643F0007415E01B4BD3F8D5
S31508002BC0B840621E154E0332BBE7184BD3F8C04017
S31508002BD0F7E7164BD3F8CC40F3E7144BD3F8D040BD
S31508002BE0EFE74FF4002373664FF0B442946070BD6C
S31508002BF040F686710A4802F07FF84FF400232C4607
S31508002C007366F1E740F68671054802F075F8CEE777
S31508002C100023D0E7C0EA210140420F00009000508F
S31508002C20C478000880841E0000093D000080E00F7B
S31508002C300024F4000048E801005A620280BA8C01B8
S31508002C40024A536B0342FCD1704700BF004009504B
S31508002C50034A0179D36E23F030030B43D3667047DA
S31508002C6000400050F8B50446244BD3F88420D0061B
S31508002C70FBD4D3F88430C3F381139C423CD002F0D2
S31508002C80CFFB012C05460BD11D4B984204D940F2C7
S31508002C909B711C4802F030F80121284602F005FA1B
S31508002CA004F021FA4FF00072174B07465A66204681
S31508002CB002F006FA4FF48063104E621E93403367A3
S31508002CC0736E9A0103D4D6F884309B060AD5384623
S31508002CD004F004FA022C0FD12846BDE8F84000217A
S31508002CE002F0E3B9D6F884309906E9D540F2B37113
S31508002CF0044802F001F8E3E7F8BD00BF00400050C1
S31508002D00005A6202167900080060005010B50C4699
S31508002D1008B902F085FB074B21461B783BB1064BE9
S31508002D20984204D80120BDE81040FFF79BBF022057
S31508002D30F9E700BF28170020005A62024FF0004248
S31508002D4038B5244B244C5A664AF6CD33656C014691
S31508002D5005F00105236428BB0120FFF771FF6368AE
S31508002D60DB0715D51D4B586008461D4B226BD2074D
S31508002D700CD4984208D1072415B1174B194A1A647E
S31508002D8002F09FF9204638BD0130EFE79842F2D0AD
S31508002D900024F1E70132236B13F0080305D08A42B9
S31508002DA0F8D1E8E700220E49F5E78A42E3D0202168
S31508002DB00A4A91620121A2F5805251600649084AE1
S31508002DC0886A800603D49342D5D00133F8E7934244
S31508002DD0DDE700BF00900050004009500060095030
S31508002DE040420F003254FFFF4FF0004238B5164BF1
S31508002DF001465A664AF6CD33144C154A656C236467
S31508002E0043780B205B0043F00103D363FFF718FFF9
S31508002E1063688A7823F4F87343EA02136360CA780E
S31508002E204B7943EA0223A3600A798B7943EA0223A2
S31508002E3023610878FFF782FFEB0744BF054B23643D
S31508002E4002F03FF9012038BD0090005000400950BB
S31508002E50004000503254FFFF0F2870B5044605D9CC
S31508002E6040F67461124801F047FF0F244FF0004204
S31508002E70104B11495D6E03F580535A664AF6CD33F9
S31508002E804E6C80200B64FFF7DBFE0B6A23F00F0302
S31508002E9023430B62F30744BF084B0B64002DA2BF04
S31508002EA04FF00042064B5A6602F00BF970BD00BFA0
S31508002EB01679000800800050004009503254FFFF80
S31508002EC000A0005010B502F001F9042300F5805166
S31508002ED000F500520B6113610B6113610B611361FD
S31508002EE00B611361202341F2020103610023C360D1
S31508002EF0836041614FF4A02183618365416205497E
S31508002F00C36103628362C36243630365D164036377
S31508002F1010BD00BFFF3F0D0338B5174B0446984256
S31508002F200D4607D0154B984204D040F26911144853
S31508002F3001F0E2FE25B92046BDE8384002F0C6B8E1
S31508002F40012204F580535A6040F6FF71204605F0C9
S31508002F500F0202F0B7F8A263782102F0B3F805F081
S31508002F6001036A0748BF43F00203A26C02F003029A
S31508002F709A42FAD138BD00BF0000015B00000A5032
S31508002F8068790008F8B505460C46164622B940F297
S31508002F9027216B4801F0B0FE6A4B9D4202D19CB9CD
S31508002FA056240DE0684B9D4247D040F22A216448DA
S31508002FB001F0A2FE44B940F27931614801F09CFE65
S31508002FC02046FFF721F80446AB68D80745D5B44232
S31508002FD004D24FF40D715A4801F08EFEB4FBF6F494
S31508002FE06F68013CFF2C07F0010704D94FF40F71F5
S31508002FF0534801F081FE24064FB32821284602F0E3
S3150800300061F8AB6C99071CD1AB6CDA071BD4AE6CB4
S3150800301016F0020619D140F24921494801F06CFE22
S31508003020284602F053F82B69314623F07F432343A1
S315080030302B61BDE8F840FFF76FBF002CC4D15724B9
S31508003040BEE70526ECE70926EAE70626E8E72B6940
S3150800305023F07F4323432B61F8BD6B68012B04D013
S315080030604FF41771364801F047FEAB6DDB07AB68C6
S3150800307048BF760003F0E003402B42D009D893B14D
S31508003080202B1AD040F29E21BDE8F8402C4801F0CA
S3150800309033BE602B42D0802BF4D106EB4603A34205
S315080030A047D801230DE0B6EB141F04D94FF421715C
S315080030B0234801F021FE102303E0B6EBD40F1AD8FB
S315080030C0082373436401B4FBF3F4204F203CB7EBA9
S315080030D0C40F4FEAC40604D240F2A921184801F0E9
S315080030E00BFE28463E40012101F0ECFF2E63BDE8A9
S315080030F0F84001F0E7BF40F28921114801F0FCFDD4
S31508003100DEE70623B4FBF3F3B34201D30623D8E77D
S3150800311040F28E210A4801F0EFFDF7E7B6EB940F6F
S3150800312001D80423CDE740F29321054801F0E4FDD8
S31508003130F7E74FF42671024801F0DEFDB1E700BF5C
S31508003140687900080000015B00000A50F8FF7F005C
S315080031502DE9F0419846436804460E4617461BB1CA
S3150800316040F6FF7101F0AEFF2046FFF7ABFEF1898E
S31508003170737B62690B43318A22F44C5222F00F02A8
S315080031800B4313436361A26896F818C0337B22F099
S31508003190804222F0E2024CEA0303134372691343A6
S315080031A0B268A3601AB9A36843F00043A360F06944
S315080031B004F58053002878D0857A017A6D04D4F80E
S315080031C008E045EA81556E490EEA01010D438188FA
S315080031D001F4C0410D43417845EA8105417B45EA42
S315080031E0C105817B45EA0115817845EA8125A560F7
S315080031F0D4F80CE0D0E904152943624D0EEA05051A
S315080032002943857941EA8521C57941EA4521E16065
S3150800321001785D4D012914D1E16841F00401E160AE
S31508003220AC4200F0928059498C420CBF01214FF004
S31508003230FF31490101F1A04142F2944501F570318F
S3150800324014E003297BD1E16841F00401E160AC4256
S3150800325079D04E498C420CBF01214FF0FF3141F223
S315080032609445490101F1A04101F570314FF0020E74
S3150800327041F805E0417A996219B1E16841F40061C3
S31508003280E160C17A59B1E16841F40041E1603E4923
S315080032908C425CD1017B3E4D01F00F016967616A82
S315080032A0C07B21F00301014361622FB197F820101A
S315080032B0002956D001211962B8F1000F2DD0BCF1B2
S315080032C0000F02D04FF4004199652F49B8F82250F3
S315080032D08C4298F8211051D02C48844213D10120F1
S315080032E0112934BF4FF0010C4FF0020C294FB5F5E8
S315080032F0006F07F800C094BF4FF0010C4FF0020CA6
S31508003300254F07F800C0A06D294320F4F95020F096
S315080033101E000143A16501219965012159601AB171
S3150800332020467168FFF72EFE20463178FFF7F4FD38
S31508003330A36CDB4313F4405FFAD1BDE8F081023990
S31508003340012984D96CE7002189E7002171E70F4933
S315080033508C4201BF017B0E4D01F00F01C5F88010AC
S315080033609DE7E06997F8221097F8215020F00900A8
S315080033702943014341F00101D9619DE70020AFE7E8
S31508003380E39BBDFFFFF9F0870000015B00000A50D0
S31508003390009003502B17002029170020134B70B5F7
S315080033A0984205460C4606D0114B984203D0702128
S315080033B0104801F0A1FC1CB972210E4801F09CFCD2
S315080033C0237B802B03D176210A4801F095FC637B89
S315080033D0032B03D97921074801F08EFC00232146E7
S315080033E02846BDE870401A46FFF7B2BE0000015BEA
S315080033F000000A50687900082B4B70B598420546BC
S315080034000C4643D119B98C21284801F075FC562081
S31508003410FEF712FF0C2807D0A0F10903012B03D9E8
S31508003420A0F11103012B3AD8637B032B03D9AD21F5
S315080034301E4801F061FC237B802B03D0AF211B487B
S3150800344001F05AFC6369B3F1804F03D0B1211748E4
S3150800345001F052FC238A23F400539BB2B3F5805F34
S3150800346003D0B321114801F047FCA368013BB3F52B
S31508003470165F03D3B5210D4801F03EFC0023214613
S315080034802846BDE870401A46FFF762BE8A210748FB
S3150800349001F032FC1CB98C21044801F02DFC9E2158
S315080034A0024801F029FCBFE70000015B68790008C3
S315080034B0F8B506460F461546002A6AD003F00304F7
S315080034C0836823F44073836003F00DFEB26882EAD2
S315080034D0042303F440735340B36003F0FFFD37B988
S315080034E0B6F1B64F0DD12E20FEF78EFD0746B3680E
S315080034F09A0717D5012C1BD0022C27D064B9264B66
S3150800350017E0264B9E4201D12F20EDE740F22F11FE
S31508003510234801F0F1FBB3684FF4B271204801F07B
S31508003520EBFB08E0012C13D0022CE7D11D4B00E081
S315080035301D4B9F42F0D91D4B1B5D6B430AD140F2D0
S315080035407511BDE8F840164801F0D6BB184BF0E7F0
S31508003550184BEEE7A3EBC504013C3C44B4FBF3F47B
S31508003560013C0CD540F27B110D4801F0C5FB4FF428
S31508003570BE710B4801F0C0FBB368B461F8BDB4F581
S31508003580007FF4D2B3689B07F7D5002C08BF012447
S31508003590F3E740F21511D4E780841E000080065038
S315080035A0BD790008002D3101404B4C000F7A000808
S315080035B0809FD50040548900B0F1B64F38B504460F
S315080035C00D4607D0084B984204D040F2951107489B
S315080035D001F092FB043425B104F5805401232360DD
S315080035E038BD04F50054F9E700800650BD79000897
S315080035F0B0F1B64F38B504460D4607D0124B98427F
S3150800360004D04FF4D571114801F076FB0023104A17
S31508003610236404F50053DA636A7804F108037AB977
S3150800362003F5805302221A602046D5E901122B7B46
S31508003630FFF73EFF20462978BDE83840FFF7BCBFB4
S3150800364003F50053EEE700BF00800650BD79000879
S31508003650FFFF1F00072838B504460D4603DD77210E
S31508003660084801F049FB1F2C03D99121064801F0AF
S3150800367043FB064A064B002D08BF13460122A2400B
S315080036801A6038BD137A0008667A0008401004509C
S315080036904020045010B5044618B991211F4801F07E
S315080036A02BFB23781B0613F0604F03D092211B488F
S315080036B001F022FBE3780F2B03D99521174801F077
S315080036C01BFB01212020FEF777FC01212120FEF7B4
S315080036D073FC0122124B15205A60227812069A6052
S315080036E06178A27842EA01429A61FF229A62002230
S315080036F09A631A644FF000425A654FF0FF3203F599
S3150800370000531A6500F04AFD1520E17800F054FDD3
S31508003710BDE81040152000F0D9BC00BF137A000898
S3150800372000000450F8B50126C3B2072805460C4622
S31508003730174606FA03F603DDDE21344801F0DCFA03
S315080037401CB9DF21314801F0D7FA236823F47C132A
S3150800375023F00F031BB1E2212C4801F0CDFAA37A1E
S315080037601B0413F47C0F03D0E721284801F0C4FAA0
S31508003770E37A1B0513F07E6F03D0E921234801F095
S31508003780BBFA237B5B0513F0FE5F03D0EB211F48D2
S3150800379001F0B2FA1E4B27F003071E65AB0022683C
S315080037A003F1A04303F588235A60302202FB05F093
S315080037B0637B00F1A04000F580200366E37AA27AD5
S315080037C01B0543EA0243227B43EA4253C365076764
S315080037D003F092FC0F4B227A5E6502B11E64627A90
S315080037E002B19E632279A37943EA0243084A9361A8
S315080037F06179E37943EA014306498B61064B5663CF
S315080038009E64BDE8F84003F072BC00BF137A000856
S3150800381000200450001004500000045010B504465F
S3150800382020B940F23A21104801F066FA2378C3B16C
S31508003830012B03D0022B14D0032B04D13F2362782B
S31508003840D340DB0704D440F23D21074801F054FA7F
S315080038500122637821789A4030235943034B5A5002
S3150800386010BD40F2FF33EAE7B97A000840E003509A
S3150800387010B5044620B940F25A21124801F03CFA24
S315080038802378E3B1012B03D0022B18D0032B04D1E4
S315080038903F236278D340DB0704D440F25D21094810
S315080038A001F02AFA30222378534303F1A04303F5A3
S315080038B07033586C6378D84000F0010010BD40F2B0
S315080038C0FF33E6E7B97A000810B5044620B940F296
S315080038D06E21124801F010FA2378E3B1012B03D0C8
S315080038E0022B18D0032B04D13F236278D340DB0781
S315080038F004D440F27121094801F0FEF930222378F8
S31508003900534303F1A04303F57033186C6378D8402A
S3150800391000F0010010BD40F2FF33E6E7B97A00086F
S31508003920034BD3F82424D3F820041040704700BF73
S3150800393000C0035010B5044620B94FF449711C481D
S3150800394001F0DAF923782BB96078053818BF4FF0FB
S31508003950FF3010BD012B08D16378012B1CD0032B37
S3150800396014BF4FF0FF300420F3E7022B09D1637828
S31508003970A3B1052B14D0072B14BF4FF0FF30082036
S31508003980E7E7032B0ED16378022B0ED0052B14BF65
S315080039904FF0FF300A20DCE70320DAE70620D8E7F5
S315080039A00720D6E74FF0FF30D3E70920D1E700BF5D
S315080039B0B97A0008064BDA6E02F03002202A06D0E1
S315080039C0DA6E22F0300208B142F01002DA66704769
S315080039D0004000502DE9F041037804460D4616468E
S315080039E013B3012B03D0022B1ED0032B04D13F2384
S315080039F06278D340DB0703D45D21274801F07CF9C0
S31508003A00264BD3F810331BB16021234801F074F913
S31508003A100F2D0CD8DFE805F0373232323232323227
S31508003A20323232323232323240F2FF33E0E7B421F8
S31508003A30194801F061F94FF00008204606B301F075
S31508003A40E5FD0F2167782378072F03EB430388BF2B
S31508003A50083F4FEA0313124895BFBF00BF0004335F
S31508003A600C3308FA07F2B940184401F053FB85B93C
S31508003A70204656B1BDE8F04101F0C8BDA846DCE7CE
S31508003A80FFF7CCFEDDE7A846DBE7BDE8F041FFF728
S31508003A90C5BEBDE8F08100BF167B000800C0035014
S31508003AA030C003502DE9F047037806460C46154604
S31508003AB0002B50D0012B03D0022B4CD0032B04D162
S31508003AC03F237278D340DA0704D44FF49C714A48EE
S31508003AD001F012F9022D06D9042D04D040F239114D
S31508003AE0454801F009F9454FD7F8103323B14FF48B
S31508003AF09D71414801F000F9002C2FDB7378634073
S31508003B00032B04D94FF49F713B4801F0F5F80127C0
S31508003B10072C05F005094FF00308327805F006056D
S31508003B2007FA04F726DC4FEA840A08FA0AF8414637
S31508003B30334802FA0AF201F0EDFA7278414602F0C9
S31508003B400302304802FA0AF201F0E4FAB9F1000F6A
S31508003B5037D12D4B36E040F2FF33B2E7631C06D16E
S31508003B60D7F82414707801F0E4FA041ECFDA204658
S31508003B70BDE8F087A4F1080A4FEA8A0A08FA0AF8A3
S31508003B804146224802FA0AF201F0C4FA727841461E
S31508003B9002F003021E4802FA0AF201F0BBFAB9F172
S31508003BA0000F14D01F2C0CDD74211A4801F0A4F85C
S31508003BB0194BC3F8107495B97421164801F09CF88E
S31508003BC003E0154BC3F810746DB90F4B0CE01F2CAE
S31508003BD0BFDD74210F4801F08FF80B4BE9E774211C
S31508003BE00C4801F089F80C4BC3F814740123064AF3
S31508003BF0A340C2F82034BAE7167B000800C0035079
S31508003C0000C4035008C4035000E0035004C4035022
S31508003C100CC40350727B000800D0035070B5154ED3
S31508003C20054630420C4604D040F28911124801F08C
S31508003C3063F8344204D04FF4C5710F4801F05CF8BC
S31508003C400E4B2C40D3F83024012022EA0502C3F893
S31508003C503024D3F830241443C3F83044D3F82C2442
S31508003C602A43C3F82C24FFF7A5FE054BC3F82054B6
S31508003C7070BD00BFFFFF00F0167B000800C00350B0
S31508003C8000E00350F8B5037805460F46164613B309
S31508003C90012B03D0022B1ED0032B04D13F236A78B5
S31508003CA0D340D80704D440F29B11174801F024F8F2
S31508003CB0164BD3F8103323B14FF4CE71124801F0E6
S31508003CC01BF82846FFF736FE791C044606D1421C27
S31508003CD008D12046F8BD40F2FF33E0E7431CF8D090
S31508003CE0B8420ED12846032186F00102FFF772FE7C
S31508003CF0012004F1100306FA03F19840FFF78EFF3E
S31508003D00E7E74FF0FF34E4E7167B000800C00350EE
S31508003D10054B9A689107FCD45A689207F9D4DA6970
S31508003D20002AF6D1704700BF00800A5010B5074C2C
S31508003D306368DB0704D44FF49F71054800F0DCFF85
S31508003D4001F0B8FC0223236110BD00BF00800A50B1
S31508003D50CE7B000808B5FFF7DBFF0122024B03F50F
S31508003D6080514A601A6108BD00800A50044B10B59C
S31508003D705C68012C03D1FFF7D9FF024B5C6010BDCC
S31508003D8000800A5000A00A5038B5074DFFF7C0FF5B
S31508003D906B680446012B03D1FFF7E8FFFFF7B8FF6E
S31508003DA02378EB6038BD00BF00800A5038B5054659
S31508003DB00C4601F089FCBDB96268237812B1127805
S31508003DC043EAC203627843EA4203A26812B1127850
S31508003DD043EA8213E27843EA8203226912B112782F
S31508003DE043EA4223014A936438BD00BF00800A5063
S31508003DF030B58D488BB003F08AF920B14FF44E7177
S31508003E008A4800F079FF6C46894D0FCD0FC42B68A0
S31508003E10884A2360FF238DF80130D2F84C3113F419
S31508003E20802340F0F580D2F850218DF801309DF8B6
S31508003E3001306C46FF2B08BF252368467E4D8DF85A
S31508003E400130FEF72DFC3220FEF78CFC0FCD0FC497
S31508003E500FCD0FC495E8030084E80300754BD3F82B
S31508003E604C21120340F1B880A3F5FE431C88B4F533
S31508003E70807F28BF64248DF81940FEF70BFC0444A4
S31508003E8084F308046D488DF81840FCF78BFB6846E8
S31508003E90FEF7EEFA3220FEF76BFC6948FEF78EFD58
S31508003EA06848FEF719FE684803F031F920B140F278
S31508003EB0CB115E4800F020FF644C0020FEF75EFC44
S31508003EC0FEF732FD236F002023F0070343F00303B8
S31508003ED02367FEF753FD236F5D4923F47443236775
S31508003EE05C4BD3F8FC2012F0807279D1D4F880307C
S31508003EF023F0030343F00103C4F88030C1F880209F
S31508003F00524CD4F8203123F0070343F00203C4F8D7
S31508003F102031D4F8283123F0070343F00203C4F80C
S31508003F202831D4F8803123F0030343F00103C4F8A1
S31508003F308031D4F8403123F0030343F00203C4F878
S31508003F404031D4F8603123F0030343F00203C4F888
S31508003F506031D4F8403223F0030343F00203C4F877
S31508003F604032D4F8003223F0070343F00203C4F8C2
S31508003F700032D4F8083223F0070343F00203C4F8EA
S31508003F800832D4F8703223F0030343F00103C4F86F
S31508003F907032D4F8203223F0070343F00103C4F843
S31508003FA02032FEF74DFA4FF0E0220020136943F065
S31508003FB004031361D4F8603223F0070343F00103C6
S31508003FC0C4F86032D4F8943223F0070343F00103AF
S31508003FD0C4F894320BB030BDD3F85041E4B24AE786
S31508003FE0D3F8FC2022F08072C3F8FC20D4F8802095
S31508003FF022F0030242F00102C4F880200022C1F830
S315080040008020D3F8FC2042F08072C3F8FC2077E7C2
S315080040104FF07E6393F89C2093F99C30002BFFF6B3
S3150800402006AF8DF8012002E7BC7D0008FE7C00087B
S31508004030787D00080080E00F8C7D0008C0175302C9
S3150800404000B4C404C0EA2101C07D00080080005005
S315080040500090005000ED00E007B5094B18689A88F3
S315080040609B7900906846ADF804208DF80630FEF777
S31508004070BBFE0C20FEF7F0FE002003B05DF804FB43
S31508004080B47D000813B50024064A6846536F43F00A
S315080040900103536700948DF80440FEF7D9FD2046C6
S315080040A002B010BD004000500028ABBF00F16040D0
S315080040B0054B00F5614000F00F00ACBF90F8000317
S315080040C0185C0009704700BF14ED00E04C2810B5D5
S315080040D0044608D801236109074A04F01F04A340CF
S315080040E042F8213010BD4FF49871044800F004FEE0
S315080040F0002CF7DBEEE700BF00E100E0FC7D0008DE
S315080041004B2810B5044604D940F23B11064800F086
S31508004110F3FD064B621153F8220004F01F04E04039
S31508004120C04300F0010010BDFC7D000800E100E07E
S3150800413000F10C03572B10B5044604D940F24B1175
S31508004140144800F0D9FDEFF31083DB0702D50122EE
S31508004150104610BD2046FFF7D3FF02460028F6D1C9
S3150800416060B2FFF7A1FF0146EFF3118313B1B0EB7D
S31508004170131FECD2084B5B68C3F30803002BE7D088
S31508004180103B58B2FFF790FF814234BF002201224C
S31508004190DEE700BFFC7D000800ED00E0002808DB34
S315080041A001224309034900F01F008240603341F8A9
S315080041B02320704700E100E038B500F110035C2BBE
S315080041C004460D4604D94FF4EF710E4800F094FDED
S315080041D00F2D04D940F2DF110A4800F08DFD60B2B8
S315080041E00028ACBF00F16040074B4FEA0515EDB259
S315080041F0ABBF00F5614000F00F0080F800531D5476
S3150800420038BD00BFFC7D000814ED00E010B502F0D3
S3150800421073FF0A4B1A786AB901226FF004041A7000
S3150800422002F065FF204605210134FFF7C5FF4C2C37
S31508004230F8D110BDBDE8104002F059BF2D17002077
S3150800424007B5684600F00AFADDE900010022034BCB
S3150800425003B05DF804EB00F037BA00BFFC0A002093
S315080042602DE9F04F9B46531C05460E46174687B068
S3150800427035D170B308244FF00008784BCDF8148078
S3150800428083F80080109B002B00F0DF80C3F80080C5
S31508004290002E00F0DC806B68B34240F2D88002F052
S315080042A02BFF073605AB26F007063A46CDE900830D
S315080042B082465B463146284600F0B1FF059F814697
S315080042C007B1F8B9504602F012FF192007B0BDE849
S315080042D0F08F40F2A721624800F00EFDCAE7531E90
S315080042E0B3F5007F01D21A4204D040F2A2215C48FD
S315080042F000F002FD25B940F2A721594800F0FCFC60
S315080043003C46B8E7B7F8028029694FEAC802C0EB0D
S31508004310C8080139B8F1270F29617BD9BBF1000F0D
S3150800432051D1864206F1080848D022463946284621
S3150800433000F01FFF04460590059B9844404600F090
S315080043406AFF059906F10F004A88C308A2EBD00256
S31508004350A8F80220CA88A8F80430002A30D0D31A50
S315080043609BB201EBC202A8F8063093808B88F60848
S31508004370A380B8F804303A46E3804146002328462D
S31508004380668000F097FFAB680833AB60237843F08C
S31508004390010323702B6901332B616288AB68504691
S315080043A003EBC203EA68AB60934288BFEB6002F096
S315080043B09EFE109B083400201C6087E73C46BBE73E
S315080043C0A8F80620D2E707EB08042046039200F077
S315080043D022FF09F10701C9080598618008F107015C
S315080043E0C908A180C18899B1C900039ACE1DB21A1D
S315080043F002EB0903C3F3CF030144E3808B80A38850
S3150800440008F1FF384FEAD808A0F80280C380BAE757
S31508004410E180F4E7BBF1010F1BD107F10803B3FBF9
S31508004420F4F204FB1233B3B122463946284600F0AB
S31508004430A0FE044623783A4643F00103237021463A
S315080044400123284600F036FFA7E722203EE7212071
S315080044503CE78642E8D13C46ECE700BF4819002015
S31508004460787E000807B5009313460A4601460348B6
S31508004470FFF7F6FE03B05DF804FB00BFFC0A002058
S315080044802DE9F74F0C46054620B940F285317248AA
S3150800449000F032FC002C00F0DC80D5E9056802F05B
S315080044A02BFE14F8087C34F806CCFB07009002D5DE
S315080044B0BCF1000F06D1009802F019FE012003B0E6
S315080044C0BDE8F08FAB68D5F8109034F804ECA3EB90
S315080044D0CC0B09F10103A4F108010CF10102C5F89E
S315080044E008B02B61BEF1000F39D0A1EBCE03D888F6
S315080044F0B3F802A00190187807F00207C00723D482
S315080045001FBB0198A0EB0A07012F28D10CF1020264
S31508004510ABF108075244C5F81090AF6034F802ECC6
S31508004520BEF1000F1DD114F8081C24F806EC6EF332
S31508004530000104F8081C013A5A801A786EF3000242
S315080045401A700022DA8040E04FB114F8087C7244F1
S315080045506FF3410704F8087C00279F80DEE70B46C7
S31508004560DCE701EBCE0AD5E9007007EB0009CA457E
S315080045700ED314F8081C013A6FF3000104F8081C5E
S31508004580002124F8061C5A801A7861F30002D7E73E
S3150800459011F83E10574611F001012FD014F8081CE7
S315080045A0013A6FF3000104F8081C002192B224F8BE
S315080045B0061C5A801A7861F300021A70C3F10702C2
S315080045C03A44C2F3CF02DA80BA80002E3FD0B34213
S315080045D03DD37288002A08BF1E46B8F1000F06D0E0
S315080045E0434504D8B8F80220002A18BF4346009865
S315080045F0C5E9056302F07BFD002060E7AEEB0C0E13
S31508004600BEF1010FCAD1BAF802C0AAF80210944442
S31508004610BAF80620CAB10AEBC20700212A69013A8C
S315080046202A61AA68083AAA6014F8082C24F8061C15
S315080046306FF3000204F8082C1A78A3F802C061F395
S3150800464000021A70002FB9D17BE71746E5E71E4628
S31508004650C3E7222033E700BF787E00080249034AF1
S315080046600160521A42607047581900200000042061
S3150800467038B503690D4614460BB33AB999B90468B7
S3150800468024B940F239110F4800F036FB2378D907D0
S3150800469007D555B9E38893B104EBC3042378DA0741
S315080046A0F8D4204638BD8469EAE7012D07D1A388E6
S315080046B02BB1A4EBC3042378DB07F8D4F1E7002475
S315080046C0EFE700BFE67E0008F8B50D4617461C461C
S315080046D0064618B111B1042A00D823B940F28F1141
S315080046E00E4800F009FB00213046C4E90065C4E91C
S315080046F00211C4E9056621612777616200F08BFD26
S315080047002369013DED08013375802361A3680846D6
S315080047100833A360E3680833E360F8BDE67E000863
S3150800472000487047FC0A002008B500F0A7FA034BBA
S315080047301868BDE8084002F0EBBD00BF240B002056
S3150800474030B5094D8BB001AC0FCD0FC40FCD0FC4DA
S315080047502B68002101AA0548236002F086FD044B58
S3150800476018600BB030BD00BF5C7F00082947000801
S31508004770240B002070B502F0BFFC144E05463478B1
S31508004780FCB9134B1C60134B1C60134B1C6000F0E8
S315080047902BF8012002F024FD01F06AF90F4B0246BE
S315080047A0186020B9284602F0A2FC232070BD2346D3
S315080047B040F2E7310A4800F099F80A4B18600123DD
S315080047C03370284602F093FC0020EFE730170020EC
S315080047D0300B00202C0B0020380B0020340B002057
S315080047E018FCFFFF280B002010B5002486B0142201
S315080047F0214601A88DF8004000F0E6FD0123134884
S315080048008DF8043002F083FCBFF34F8F6846FFF73C
S31508004810BBFA204601A98DF80440FFF7C7FA2046DF
S315080048200F2100F071FF0F21204600F07BFFFFF7F4
S3150800483091FA00F03FFF064B43209C61FFF7AEFC60
S315080048404320FFF743FC06B010BD00BFBC7D00083F
S3150800485000800A5010B5044600F002FE4FF47A7242
S315080048609042B0FBF2F105D23621BDE810400C4863
S3150800487000F042BA0B4BB3FBF1F30B49884201D95E
S315080048803C21F2E702FB04F0B0FBF3F0022806D95C
S31508004890BDE810400323B0FBF3F0FBF769BC10BD7D
S315080048A0E67F000840420F00E7CD9A3B40F6B1315B
S315080048B0014800F021BA00BF44800008002307B56C
S315080048C00193084B1B68013304D040F22131064896
S315080048D000F012FA02F082FE019B002BFCD003B016
S315080048E05DF804FB2C190020DD81000853B94AB98C
S315080048F0002908BF00281CBF4FF0FF314FF0FF30DA
S3150800490000F082B9ADF1080C6DE904CE00F006F8A6
S31508004910DDF804E0DDE9022304B070472DE9F04F25
S31508004920099D0C46002B4DD18A420F468446964671
S31508004930B2FA82F360D94BB102FA03FEC3F1200240
S315080049409F4000FA03FC20FA02F217434FEA1E467C
S315080049501FFA8EF44FEA1C42B7FBF6F106FB1177F5
S3150800496001FB04F042EA0742904208D91EEB020214
S3150800497001F1FF3702D2904200F231813946121A0C
S315080049801FFA8CFCB2FBF6F006FB102200FB04F4BF
S315080049904CEA024C644508D91EEB0C0C00F1FF32B8
S315080049A002D2644500F21E81104640EA0140ACEB93
S315080049B0040C002125B12CFA03F30022C5E90032C4
S315080049C0BDE8F08F8B4205D90DB1C5E9000100217C
S315080049D00846F5E7B3FA83F100294DD1A342C0F0A2
S315080049E0F380904280F0F080064623460846002D64
S315080049F0E6D0C5E90063E3E7002B40F0A3808A1AF6
S31508004A004FEA1E471FFA8EF60121B2FBF7F407FBA1
S31508004A1014204FEA1C4242EA004206FB04F0904288
S31508004A200FD91EEB020204F1FF382CBF4FF0010923
S31508004A304FF00009904203D9B9F1000F00F0CC807D
S31508004A404446121A1FFA8CFCB2FBF7F007FB102239
S31508004A5000FB06F64CEA024C664508D91EEB0C0C20
S31508004A6000F1FF3202D2664500F2B3801046ACEB85
S31508004A70060C40EA04409DE7C1F120068B4004FA83
S31508004A8001FE22FA06F720FA06FCF4408A401F4384
S31508004A904EEA0C0300FA01FE4FEA17484FEA13499B
S31508004AA01FFA87FCB4FBF8F008FB104449EA0444F3
S31508004AB000FB0CF9A1450ED93C1900F1FF3A2CBFB1
S31508004AC04FF0010B4FF0000BA14503D9BBF1000FC6
S31508004AD000F08B805046A4EB09041FFA83F9B4FB57
S31508004AE0F8F308FB134403FB0CFC49EA0444A44509
S31508004AF006D93C1903F1FF3801D2A4457BD84346B1
S31508004B0043EA0040A4EB0C04A0FB02984445CC46BB
S31508004B10434602D306D1CE4504D20138B9EB020C7E
S31508004B2068EB0703002D6CD0BEEB0C0264EB0304A4
S31508004B3022FA01F304FA06F6CC4000211E43C5E921
S31508004B4000643DE702FA03FEC3F1200104FA03F20A
S31508004B5000FA03FCCC404FEA1E4720FA01F11FFA7F
S31508004B608EF6B4FBF7F00A4307FB1044110C41EA32
S31508004B70044100FB06F48C420ED91EEB010100F13C
S31508004B80FF382CBF4FF001094FF000098C4202D9BB
S31508004B90B9F1000F2CD04046091B92B2B1FBF7F4CD
S31508004BA007FB141142EA014204FB06F1914207D9B8
S31508004BB01EEB020204F1FF3801D291421ED8444688
S31508004BC0521A44EA004120E7861A64EB03030120DF
S31508004BD00DE7F44402384AE7023C724431E70239E9
S31508004BE07244CCE6F4440238DFE602383C4472E705
S31508004BF002387144D0E7023B3C4481E7023C7244E8
S31508004C00DEE72946DCE600BF704700BF08B5064B5D
S31508004C10044613B10021AFF30080044B1B6803B1AF
S31508004C209847204600F069F800000000D0160020DA
S31508004C3070B50D4D00260D4C641BA410A64209D173
S31508004C400B4D00260B4C02F0FBFC641BA410A6427D
S31508004C5005D170BD55F8043B01369847EEE755F87F
S31508004C60043B01369847F2E74C1900204C190020FE
S31508004C704C19002050190020FBF786BB08B500F038
S31508004C8058FBFFF7F9FF00F08BFB00B908BD00F0F1
S31508004C904FFBF8E77047704770477047704708B58D
S31508004CA0FBF7FEFB00F05FFABDE80840FBF7EEBB3A
S31508004CB0704700F051BF08B5FBF7FAFCFBF7A4FBF9
S31508004CC0FBF7B0FBFBF7BCFBBDE80840FBF7C8BB2E
S31508004CD000F002B8704770470F207047FEE70023C0
S31508004CE09A4200D1704710B550F8234041F8234046
S31508004CF001339A42F8D110BDFEE7FEE7436803B1D7
S31508004D00184722207047704737B50D680C46AB88A0
S31508004D10ADF804302B78022B0CD00DF1030101A855
S31508004D20FBF7AEFD9DF80330204683F001032B7098
S31508004D30FFF7E9FF03B030BD03681878704713B56D
S31508004D400468A388ADF804302378022B15D00DF13A
S31508004D50030101A8FBF794FDA2799DF80330012A07
S31508004D6013D1618843EA41034FF6E07163F03F03CC
S31508004D709BB28B4203D12270638002B010BD4FF6FE
S31508004D80DF729342F8D10022F5E7002AF5D183F0C5
S31508004D9001032370F1E703681A78022A03D1002277
S31508004DA05A80FBF70FBC704710B504682378022BAE
S31508004DB007D0A379022B02D16079FBF703FE022301
S31508004DC0237010BDD0E90003184707B503788DF89E
S31508004DD0043043788DF80530837801A823B9FBF7AA
S31508004DE0EFFC03B05DF804FBFBF7BEFCF9E707B57B
S31508004DF003788DF8043043788DF80530837801A858
S31508004E0023B9FBF7B1FC03B05DF804FBFBF7D8FC4C
S31508004E10F9E707B503788DF80430437801A88DF8CB
S31508004E20053000F08FFB03B05DF804FB13B50446AC
S31508004E3003780DF103018DF80430437801A88DF845
S31508004E400530FBF7EBFCA3789DF803000BB980F05F
S31508004E50010002B010BD10B588B00C460E9900923C
S31508004E6007910D99024606919DF8301005910B9908
S31508004E7004919DF8281003910021CDE901310846D7
S31508004E802346FBF7C7FE08B010BD10B588B0044628
S31508004E900E98009207900D98224606909DF83000CD
S31508004EA005900B9804909DF8280003900020CDE902
S31508004EB001300B460121FBF7ADFE08B010BD30B539
S31508004EC0C27EC37F85B004460D468DF800208DF856
S31508004ED0013081B3012204216846FBF705FC237FD4
S31508004EE001228DF8043094F82030022101A88DF8AB
S31508004EF00530FBF7F9FB94F83530023B012B17D840
S31508004F00637F00228DF8083094F82130012102A829
S31508004F108DF80930FBF7E8FB00220421A37F8DF802
S31508004F200C3094F822308DF80D3003A8FBF7DCFB23
S31508004F30002005B030BD0A466846FBF7D5FB237F3F
S31508004F402A468DF8043094F82030294601A88DF8B1
S31508004F500530FBF7C9FB94F83530023B012BE7D83F
S31508004F60637F2A468DF8083094F82130294602A82E
S31508004F708DF80930FBF7B8FBA37F2A468DF80C306D
S31508004F8094F8223029468DF80D30CEE7002307B570
S31508004F908DF8033090F83530022B0BD1437F0DF195
S31508004FA003018DF8043090F8213001A88DF80530FA
S31508004FB0FBF766FC9DF8030003B05DF804FB38B503
S31508004FC004460D4602F098F8A3889BB223B92B60D5
S31508004FD0BDE8384002F08BB8142263889BB202FB06
S31508004FE0034308332B606388E2889BB20133B3FB23
S31508004FF0F2F102FB11339BB26380A388013B9BB29B
S31508005000A380E5E737B590F835500446022D21D13F
S31508005010417E827F90F8223049B98DF804208DF8B8
S31508005020053001A8FBF7CCFB002003B030BD0129F1
S3150800503007D18DF804208DF8053001A8FBF794FBFD
S31508005040F2E7017E8DF804208DF8053001A80029C5
S31508005050F4D1E7E7012DE7D1037E6BB911238DF86B
S315080050600430FCF7DBF92A46204601A9FCF74EF97D
S315080050702046FCF7EBF9D7E71323F0E770B50546AA
S3150800508014460E4602F02FF82B685C4034405C400C
S315080050902C60BDE8704002F021B808B500F0F2F9BE
S315080050A0BDE808400021FCF75BBF0029CCBF012101
S315080050B00021FCF755BF02214FF42070FDF79EBB77
S315080050C070477047436D0B42FCD1704708B543687B
S315080050D0DA0714D58368DB0702D50369D90707D52C
S315080050E00A2350218363FFF7EDFF836C9A07FCD1EF
S315080050F0012200F500535A6043689B07FCD408BD9B
S31508005100836C5B06FCD54164704783695B06FCD5F6
S31508005110C163704770B5054614460E4601F0E3FFB5
S315080051202B685C4034405C402C60BDE8704001F060
S31508005130D5BF21FA00F2D20730B5034600F0FC04C9
S315080051400FD500220132D2B2042A02D14FF0FF3025
S3150800515008E0831803F00303234421FA03F5ED0757
S31508005160F0D4184630BD00F000B800207047FEF7AE
S315080051703FBEF8B50C468D18073552421540A5F1C5
S3150800518008070646384600F046F8A188381B6288A4
S3150800519001EBE00189B2A2EBE00225F8041C25F830
S315080051A0062CA288C310AAB1A4EBC202B2F802C0A8
S315080051B0D18003EB0C015180E28892B1D31A9BB2DD
S315080051C004EBC20425F8023CA380B3680344B36029
S315080051D03846F8BD15F8082C42F0020205F8082CE6
S315080051E0EAE725F8022CF0E707B500224FF0FF3171
S315080051F001AB0192FFF736F9019803B05DF804FB9D
S3150800520010B50446FFF78CFA2146BDE81040FFF7B3
S3150800521037B9FFF7F5BF0023036043607047F0B561
S31508005220D0E90540551C08BF0822002B4FF00005A1
S3150800523018BF0446DDF818C0CCF80050002C37D04B
S315080052409DF814706588FF0007EBC505C2F1000ECE
S315080052502078C00708D51BBBE088A0B104EBC004C2
S31508005260658807EBC505F3E78D42F4D363B904F106
S315080052700806B6FBF2F002FB106670180EB1A842DB
S31508005280EAD8CCF80040F0BD082A0FD06088013073
S3150800529004EBC000461A06EA0E06801B8542F0D2C9
S315080052A0A0880028EFD0A4EBC004D9E70846E8E7B1
S315080052B02046E8E72DE9F041D0E905450746884646
S315080052C01646F3B194420FD042B1954215D14246E3
S315080052D001213846FFF7CCF905460EE00A46314665
S315080052E0FFF7C6F90446F2E70A460021FFF7C0F9B8
S315080052F0B5420446EBD0002EE9D0C7E90545BDE81E
S31508005300F081944208D08C4228BF0C46B54205D09D
S31508005310454538BF4546F0E70C46F7E74546ECE70E
S3150800532008B500F013F800F039F8FEE77047704743
S31508005330704708B5FFF7B3FCFFF7BDFCFFF7C8FCDD
S31508005340FFF7C8FCBDE80840FFF7C5BC08B5FEF77F
S3150800535077FFFFF7EBFFFEF759FFFEF77DFEFFF736
S3150800536006FFFEF78FFEFFF705FAFFF7E0FF00F0EE
S31508005370DDFB00F007F8FFF79BFCBDE80840FFF7E8
S31508005380DFB9704708B5FFF786FCFFF785FCFFF71E
S3150800539084FCFFF783FCFFF7F4FF08BDFFF789BC21
S315080053A00020704710B56AB10139841810F8012B2E
S315080053B011F8013F9A4203D1A04201D0002AF5D143
S315080053C0D01A10BD1046FCE702440346934200D1AA
S315080053D0704703F8011BF9E70A44431E914200D1BE
S315080053E0704710B511F8014B914203F8014FF9D1F6
S315080053F010BD034613F8012B002AFBD1181A0138F1
S315080054007047034611F8012B03F8012B002AF9D13E
S3150800541070470000014B1868704700BF1C19002030
S315080054200A4B1B6F03F00703013B032B03D8DFE886
S3150800543003F00A030608FEE7054B18687047054B94
S31508005440FBE7054870470548704700BF00800050D5
S315080054501C1900202419002080D54302002D310193
S3150800546008B5FFF7DDFF054B1B6FC3F303330133A5
S31508005470B0FBF3F0024B186008BD00BF0080005077
S31508005480181900200048704700B4C4040048704743
S31508005490002D3101014B1868704700BF2419002000
S315080054A00048704780D543024FF40022184B5A66CD
S315080054B04FF0B4439868C0F304400C280AD8DFE8D4
S315080054C000F00B0909090909072119091B1D1F0005
S315080054D010487047002070479B6803F04073B3F18B
S315080054E0807F11D0B3F1007F10D00B4A002B08BF84
S315080054F01046704709487047094870470948704779
