:020000040800F2
:10000000000400205D1700089B8400089B84000802
:100010009B8400089B8400089B8400089B84000844
:100020009B8400089B8400089B840008C9B30008D7
:100030009B8400089B8400086DB3000861B500082C
:100040009B8400089B8400089B8400089B84000814
:100050009B8400089B8400089B8400089B84000804
:100060009B8400089B8400089B8400089B840008F4
:100070009B8400089B8400089B8400089B840008E4
:100080009B8400089B8400089B8400089B840008D4
:100090009B8400088D2100089B8400089B84000835
:1000A0009B8400087D1D00085D1D00089B840008DE
:1000B0009B8400089B8400089B8400089B840008A4
:1000C0009B8400089B8400089B8400089B84000894
:1000D0009B8400089B8400089B8400089B84000884
:1000E0009B8400089B8400089B8400089B84000874
:1000F0009B8400089B8400089B8400089B84000864
:100100009B8400089B8400089B8400089B84000853
:100110009B8400089B8400089B8400089B84000843
:100120009B8400089B8400089B8400089B84000833
:100130009B8400089B8400089B8400089B84000823
:100140009B8400089B8400089B84000803B500087A
:100150009B8400089B8400089B8400089B84000803
:100160009B8400089B8400089B8400089B840008F3
:10017000013800D0FCE770472DE9F04FC76997B010
:100180008346209E08910C92129355EC104B8DEDF6
:10019000000B7FB9102007F025F90246CBF81C00B0
:1001A00020B9A74BEF21A74807F08AFCC0E90177E7
:1001B0000760C760DBF81C30196859B15A68012321
:1001C000584693404A608B6007F054F9DBF81C30C6
:1001D00000221A602B1EB7BF23F000430023012228
:1001E0000193A8BF3360019F974BB8BF3260BB43F8
:1001F00019D142F20F73129A1360C7F3130323430A
:1002000000F0DB85219B53B9904B21E0904B039389
:100210000833219A1360039817B0BDE8F08F8B4B19
:1002200003930333F5E79DED007B0022002351EC9F
:10023000170B8DED0A7B08F085F8804650B101233D
:10024000129A1360219B13B1824B219A1360824B47
:100250000393E0E7C7F30A5614AA15A958469DED83
:100260000A0B07F08FFB0290002E76D00B9BA6F2B4
:10027000FF36CDF84C80C3F3130343F07F53DDE921
:100280000A0143F4401319460022744B05F07AFF2B
:1002900065A3D3E9002307F0EDFD65A3D3E90023AF
:1002A00005F072FF04460D46304606F0B9F862A329
:1002B000D3E9002307F0DEFD02460B46204629461F
:1002C00005F062FF04460D4608F084F80022074658
:1002D00000232046294608F03FF840B1384606F092
:1002E0009FF822462B4608F02DF800B9013F162F43
:1002F00052D85B4B03EBC703DDE90A01D3E90023C6
:1003000008F02AF8002849D0013F00231193149BDC
:100310009B1B5A1E4CBFC3F101030023079245BF2C
:100320000693002306930793002F39DB079B109752
:100330003B44079300230993089B092B66D8052BA0
:10034000C5BF043B002401240893089B023B032BF8
:1003500067D8DFE803F02D3A3859DDE914631E440D
:1003600006F23243202BC9BFC3F14003C3F120037F
:100370009F4006F21243D8BF04FA03F006F1FF369D
:10038000C4BF24FA03F347EA030006F039F8012258
:10039000A1F1F873139276E70123B7E71190B6E75E
:1003A000069BDB1B06937B42099300231093C3E754
:1003B00000230D930C9B002B56DC012399461A4613
:1003C00004930C920CE00123F3E700230D930C9BA4
:1003D000FB1803F1010904934B46012BB8BF01231D
:1003E000DBF81C000021042202F114059D423FD9D4
:1003F0004160584606F0FEFF039000283BD1194BA0
:10040000024640F2AF11CEE60123DFE701240023CC
:100410000D9408934FF0FF33002299460493122362
:10042000CFE701230D93F5E761436F63A787D23FC1
:10043000B3C8608B288AC63FFB799F501344D33FD3
:1004400036C800084DC800080000F07F32C8000818
:1004500029C8000805C7000804C700080000F83FC5
:1004600068C90008AEC800080C9B99460493B7E71A
:1004700001315200B8E7DBF81C30B9F10E0F039AD6
:100480001A606FD8002C6DD0002F36DD07F00F02F8
:10049000A04BF8054FEA271403EBC20393ED007B52
:1004A0008DED0E7B17D59C4B04F00F044FF0030825
:1004B000D3E90823DDE90A0107F006FECDE90001D2
:1004C000954D5CB9DDE90E23DDE9000107F0FCFD87
:1004D000CDE900012BE04FF00208F1E7E10709D573
:1004E00008F10108DDE90E01D5E9002307F0C2FC9F
:1004F000CDE90E0164100835E3E700F007817C4286
:10050000844B854D4FF0020804F00F02241103EBD9
:10051000C203DDE90A01D3E9002307F0ABFC0023A5
:10052000CDE90001002C40F0E580002BD0D1119BDB
:10053000DDE90045002B00F04C810022774B20467E
:10054000294607F009FF002800F04381B9F1000FA8
:1005500000F03F81049B002B00F3E480DDE90A34C6
:10056000CDE90034159B002B02DB0E2F40F34282B5
:100570000D9A002A40F06782099C0025DDF818805A
:10058000B8F1000F0DD0079B002B0ADD4345069AFA
:10059000A8BF4346D21AA8EB03080692079AD31ABB
:1005A0000793099B0BB30D9B002B00F0A682002C38
:1005B00000F0A18229462246584607F085F8029AA3
:1005C00001460546584606F0D5FF029906465846AC
:1005D00006F050FF099B1B1B099300F09182099ABA
:1005E0003146584607F070F802900121584606F04F
:1005F000ABFF109B0446002B00F084821A46014694
:10060000584607F061F8089B0446012B03DC009B69
:10061000002B00F07C820026236904EB8303186919
:1006200008F01AFEC0F120001096079B184410F045
:100630001F0000F09182C0F12003042B40F381825F
:10064000C0F11C00069B034480440693079B0344AF
:100650000793069B002B05DD1A460299584607F0C2
:100660008DF80290079B002B05DD21461A4658465F
:1006700007F084F80446119B002B00F07682214697
:10068000029808F038FE002880F26F8200230A22C8
:100690000299584606F010FF0D9B7E1E0290002B1B
:1006A00000F05C82002329460A22584606F004FF27
:1006B000049B0546002B03DC089B022B00F35E82A3
:1006C000B8F1000F05DD29464246584607F056F8B6
:1006D0000546109B002B00F0D0826968584606F052
:1006E00089FE0746002840F07F820D4B024640F20B
:1006F000EF2158E5E20706D508F10108D5E9002306
:1007000007F0B8FB0123641008350BE74FF002082F
:100710000DE700BF68C9000840C900080000F03FAD
:10072000AEC8000820460022AC4B294607F0A2FBC9
:100730007E1E08F10108049CCDE90001404605F049
:100740006FFEDDE9002307F095FBA54B002205F0C5
:100750001BFDA1F15073CDE90E010F93002C3BD18D
:100760000022A04BDDE9000105F00CFD02460B461E
:10077000CDE90023DDE90E2307F00CFE002840F050
:100780005781DDE90E2101F10043DDE9000107F0A9
:10079000E3FD00283FF4E2AE002425460C9BDDF883
:1007A0000CA0DE434FF000082146584606F062FEDA
:1007B000002D00F0A980B8F1000F05D0A84503D0A6
:1007C0004146584606F056FE2946584606F052FE67
:1007D0009AE03E464C46B1E7834B03EBC40353E932
:1007E0000201039B1C440D9B002B4AD002460B4682
:1007F00000207E4907F068FCDDE90E2305F0C2FC0D
:10080000DDF80CA0CDE90E01DDE9000107F0E2FD05
:10081000054605F005FE024630350B46DDE90001D0
:1008200005F0B0FC0AF8015B02460B46CDE9000179
:10083000DDE90E0107F0AEFD002865D100206C490E
:10084000DDE9002305F09EFC02460B46DDE90E01C2
:1008500007F0A0FD002840F00D81A24500F0EA80DD
:1008600000225E4BDDE90E0107F004FB00225B4B2A
:10087000CDE90E01DDE9000107F0FCFACDE9000148
:10088000C2E7DDE90E2307F0F5FAA046DDF80CA07B
:10089000CDE90E01DDE9000107F09CFD054605F0FC
:1008A000BFFD024630350B46DDE9000105F06AFC6C
:1008B0000AF8015B02460B46A245CDE900234FF042
:1008C000000223D1494BDDE90E0105F05DFC024633
:1008D0000B46DDE9000107F05DFD002840F0CA800D
:1008E00000204249DDE90E2305F04CFC02460B4690
:1008F000DDE9000107F030FD70B1C24608F1FF38B4
:100900001AF8013C302BF8D0374655E0334B07F04E
:10091000B1FACDE90001BDE7DDE90A34CDE90034E3
:10092000159B002BFFF628AE0E2F3FF725AE2E4B62
:1009300003EBC70393ED007B0C9B002B8DED047B39
:1009400002DAB9F1000F64D0DDF80CA0DDE9004552
:10095000DDE904232046294607F0B6FB07F03AFDFF
:10096000064605F05DFDDDE9042307F083FA024643
:10097000204606F130040B46294605F003FC0AF830
:10098000014B039C02460B46AAEB0404A14540F030
:10099000828005F0F9FB04460D46DDE9042307F0EB
:1009A000F9FC002865D120462946DDE9042307F03B
:1009B000C9FC08B1F3075CD40299584606F05AFD09
:1009C000002301378AF80030129B1F60219B002B07
:1009D0003FF421ACC3F800A01DE400BF0000244098
:1009E00000001C400000144068C900080000E03FFF
:1009F0000000F03FA24B03EBC70393ED007B0C9B81
:100A0000002B8DED047B9FDAB9F1000F9CDC7FF4A5
:100A1000C3AE00229B4BDDE9040107F02BFADDE9B0
:100A2000002307F0ADFC044600287FF4B5AE3E4637
:100A30002546B4E0DDE90A34CDE90034159B002BEE
:100A400001DB0E2FD6DD089A012A36DC139A82B319
:100A500003F23343099CDDF81880069A01215846B9
:100A60001A440692079A1A44079206F06DFD05464D
:100A700086E53E4653469A4613F8012D392A06D19B
:100A8000039A9A42F7D13022039901360A701A78F4
:100A900001321A7038E700227B4B07F0EBF9002295
:100AA000002304460D4607F04DFC00283FF450AFEC
:100AB00082E7149BC3F13603CCE709F1FF34099BAD
:100AC000A34208DBB9F1000FA3EB04040EDBDDF851
:100AD00018804B46C1E7099B109AE31A0994DDF888
:100AE000188000241A444B461092B6E7069BA3EBED
:100AF00009080023B1E7029E71E5099A029970E5A1
:100B0000029672E5089B012B17DC009BABB9019B99
:100B1000C3F313039BB9019B23F00046360D360542
:100B200036B1069B012601330693079B01330793D9
:100B3000109B002B7FF470AD1096012075E5002608
:100B4000F6E73FF486AD1C33069A1A4498440692A1
:100B5000079A1A4407927CE50346F4E7049B002BAE
:100B60002BDC089B022B09DC27E0B9F1000F1DDC10
:100B7000089B022B1ADD3E46CDF81090049B002BFB
:100B80007FF40CAE21460522584606F095FC01463E
:100B90000446029808F0AFFB00287FF7FFADDDF8B0
:100BA0000CA0312301360AF8013BFBE50D9B3E46C4
:100BB000CDF81090002B7FF483AD039F214602985F
:100BC00008F0B7F9039B00F13009049A07F8019B7C
:100BD000FB1A9A4240F3CB8000230A22029958461E
:100BE00006F06AFC0290E9E72A6905F10C010C3075
:100BF0000232920008F080F901223946584606F088
:100C0000BDFD039BA846054603F1010ADDE9032368
:100C100013440793009B03F0010309930AF1FF3388
:100C200021460298049308F084F94146069000F1A9
:100C30003009029808F05FFB2A46214607465846CD
:100C400006F008FEC268014602B3584606F012FCE0
:100C5000002F3ADA01220299584606F08FFD21460C
:100C6000029008F048FB002803DC29D119F0010F9D
:100C700026D0B9F1390F1DD132E02846C1E700BFB7
:100C800068C9000800001440000024400A9002983F
:100C900008F031FB0A990C90584606F0EBFB0C9AD1
:100CA0005ABB089B53B9099B43B9B9F1390F17D007
:100CB000002F05DD069B03F1310901E0002F2ADA40
:100CC000DDF810A00AF8019B6EE5089B3B4304D1B8
:100CD000009B03F00103002BBCD0B9F1390F36D1D2
:100CE000049F392307F8013BBA46013F1AF8013C3B
:100CF000392B5AD001333B7056E5002F06DB089B99
:100D00003B4306D1009B03F0010313B9002AA1DC89
:100D1000D6E7002AE1DC079B57460AF8019C5345B9
:100D20002ED000230A220299584606F0C5FBA8459A
:100D300002904FF000034FF00A02414658460BD193
:100D400006F0BAFB804605460AF1010A66E7DDF8BF
:100D500010A009F10109B5E706F0AEFB294680466F
:100D600000230A22584606F0A7FB0546ECE7049B41
:100D70004FF00008002BCCBF1F460127039B1F44E8
:100D800001220299584606F0F9FC2146029008F02B
:100D9000B2FA0028A8DC02D119F0010FA4D1BA469A
:100DA00017F8013D302BFAD0FEE4039BBB429BD1E8
:100DB0003123039A01361370F6E4219B002B7FF454
:100DC00025AA014BFFF744BA29C800080348044B81
:100DD000834202D0034B03B1184770477C40002088
:100DE0007C40002000000000064B0749C91A89100A
:100DF00048BF0131491003D0044B0BB101481847DB
:100E0000704700BF7C4000207C40002000000000B4
:100E100010B5064C237843B9FFF7D8FF044B13B144
:100E20000448AFF300800123237010BD083C00206C
:100E30000000000078CA000808B5054B1BB1054941
:100E40000548AFF30080BDE80840FFF7CDBF00BF05
:100E5000000000000004002078CA0008A3F5803AD2
:100E6000704700BF174B002B08BF134B9D46FFF781
:100E7000F5FF00218B460F461348144A121A08F05A
:100E800022F80E4B002B00D098470D4B002B00D0C2
:100E900098470020002104000D000D48002802D0D2
:100EA0000C48AFF3008006F07DF92000290007F020
:100EB00081FE05F0AFFC00BF00000800000000004C
:100EC000000000000004002000040020303D00204D
:100ED000000000000000000030B5002485B0054689
:100EE000019407F001FB012818D10D4B01AA1868E5
:100EF0000C4B02A99D424FF0040303930CBF002347
:100F00004FF07E530293234609F07EF8019B2BB1EC
:100F10004FF0E0234FF08052C3F8042D05B030BDF0
:100F2000782B002070BB00082DE9F0432DED028BDB
:100F3000584A8DB01188927802AB8DF80A20564A33
:100F4000564DCDE907230323ADF80810286807A9FB
:100F5000ADF824304FF0FF3400F08CFF9FED508A45
:100F6000504F514E2246386803A908F0C9FF0128A6
:100F7000814640F08A8002224C4903A807F091FF85
:100F80008046002863D107238DF8003001AB0A9317
:100F90000223286807A9ADF82C300796CDF820D099
:100FA000ADF8249000F066FF03464148002B45D180
:100FB0009DF804200068812A4FF0030206920CBFBE
:100FC0004FF07E52002205921A4605A908F0FAFE5B
:100FD0000222384903A807F064FF30B102223649E3
:100FE00003A807F05EFF0028BCD104238DF8003071
:100FF0006B440A934FF001080223286807A9ADF853
:101000002C300796CDF820D0ADF8248000F032FFC8
:1010100003460028A6D1BDF8042005A907EE902AB2
:10102000F8EE677A67EE887A02462148CDED057AB8
:101030000068CDF8188008F0C5FE93E703230693F7
:101040000023424605930068434605A9BEE70222F5
:10105000194903A807F025FF68B904990029B7D0FA
:101060004FF47A704FF47A72002381FB000105F08F
:1010700041FA0446ACE70222104903A807F011FF29
:10108000002808BF4FF0FF34A2E7631C3FF46AAFAB
:10109000ABE700BF9FB9000820000100443D0020DD
:1010A000FAED6B3DC01A00202000040078B900085A
:1010B000782B002081B900087BB900087EB90008B0
:1010C0001FB50B4BA02202930A4B0B49019301233E
:1010D0000A480093002309F019FA30B9582108484A
:1010E00005B05DF804EB07F0E6B905B05DF804FB68
:1010F000180400207004002084B90008290F00089B
:101100008FB900082DE9F04F4FF0FF346A4F6B4E56
:101110006B4D8DB02246386803A908F0F1FE012816
:10112000804640F0B7800222664904A807F0B9FE65
:101130008146002875D18923286807A9ADF8248045
:101140008DF800300796CDF820D000F093FE4FF0D8
:1011500002088246DFF884B100285CD10A2009F039
:1011600089FC01AB08930623286807A9ADF8243051
:10117000ADF81E8000F07EFECDF8188003460028F2
:1011800045D14FF07E5205921A46DBF8000005A9C2
:1011900008F018FE02224C4904A807F082FE30B184
:1011A00002224A4904A807F07CFE0028B2D164203C
:1011B00009F060FC0223ADF81E3001AB0893062352
:1011C000286807A9ADF8243000F054FE0346002833
:1011D000A0D1BDF804109FED3E7A49BA8AB207EE5D
:1011E000902AF8EE677ADFED3B6A67EE877A87EE42
:1011F000A67ADFED397A77EE677A024606903748AD
:1012000005A90068CDED057A08F0DCFD82E7002332
:1012100005935346B8E70023CDF8188005934B4655
:10122000B2E70222284904A807F03BFE60B9FD237B
:1012300007968DF80030CDF820D0ADF824802868CE
:1012400007A900F017FEA5E70222204904A807F02D
:1012500028FEA8B9039949B14FF47A704FF47A7215
:10126000002381FB000105F045F90446FD238DF8BC
:10127000003001230796CDF820D0ADF82430DEE70A
:101280000222174904A807F00CFE002808BF4FF0FF
:10129000FF347FE7631C3FF43DAFFD238DF8003042
:1012A0000123286807A90796CDF820D0ADF824308F
:1012B00000F0E0FD0A207BE7C41A0020880001004E
:1012C000443D002078B9000881B900087BB90008C6
:1012D00000002F4300FF7F4700003442782B00209E
:1012E0007EB900081FB50B4BA02202930A4B0B4995
:1012F000019301230A480093002309F007F930B94C
:101300005B21084805B05DF804EB07F0D4B805B0E0
:101310005DF804FBF00600204807002084B90008AF
:1013200005110008A2B900082DE9F041AAB000F0AB
:10133000F1F9564D564928600AA807F0F2FD0AA8AF
:1013400007F0E7FD0AA90246286801F0C5FB5149EC
:101350000AA807F0E6FD0AA807F0DBFD0AA9024685
:10136000286801F0B9FB00244B4E4C4FDFF8548144
:10137000012228680DF1070101F07CFB9DF8073080
:101380000A2B01D00D2B77D104F1A8030DEB030438
:1013900000230222314606A804F8903C07F081FDA4
:1013A0000446D8B9314603A807F0BBFD3C4802A962
:1013B00023464FF0FF320068029408F003FD3146E7
:1013C00004A807F0AEFD059423464FF0FF323548E0
:1013D00004A9006808F0F6FC0024C9E70322394696
:1013E00006A807F05EFD044628B92F4905A807F0B6
:1013F00098FD049417E00322414606A807F051FD2A
:10140000044608B92849DBE70322284906A807F063
:1014100048FD044668B9264905A807F082FD07A8DB
:1014200007F00AFC049023464FF0FF321C4804A941
:10143000CFE703221F4906A807F033FD044640B951
:101440001B4904A807F06DFD07A807F0F5FB059000
:10145000BAE70322184906A807F023FD044608B995
:101460001649C3E70322164906A807F01AFD0446E9
:101470000028B1D11149A3E70E2CADD004F1A80288
:101480006A4402F8903C013472E700BFC81A002099
:10149000B2B90008BDB9000878B90008F2B900086F
:1014A000C41A0020C01A002081B90008FAB9000847
:1014B0007BB90008FEB9000802BA00087EB900082E
:1014C00006BA0008F6B900081FB500240821144B1D
:1014D000144A0520009408F063FE134B082118609D
:1014E000124A134B0520009408F05AFE114B4FF49A
:1014F00080621860104B11490293114B11480193FF
:1015000001230093234609F001F830B967210E4802
:1015100004B0BDE8104006F0CEBF04B010BD00BF5F
:10152000701A0020313C0020C41A0020093C002021
:10153000201A0020C01A0020C809002084B9000821
:10154000200A0020291300080ABA000880B5A2B0BA
:1015500000F0E0F82E4C2F4E2F4D304F20604FF012
:10156000FF326946306808F0CBFC019B8BB90098CC
:1015700004F068FF02460B46294902A805F0BCFCAE
:1015800002A807F0C6FC02A90246206801F0A4FAEE
:10159000E5E7013B032BE2D8DFE803F002091E3048
:1015A000009804F04FFF0B4602461E49E5E7DDEDCB
:1015B000007AB7EE007AF4EE477AF1EE10FA04D131
:1015C000194902A807F0ADFCDAE7F5EE407AF1EE32
:1015D00010FAC4D11549F4E7DDED007AB7EE007AD0
:1015E000F4EE477AF1EE10FA01D11149E9E7F5EE90
:1015F000407AF1EE10FAB2D10E49E2E7DDED007A61
:10160000F5EE407AF1EE10FA0CBF39462946D8E7DC
:10161000242B0020782B002029BB000802BB0008E7
:101620001CBA00083EBA000859BA000885BA00087A
:10163000B6BA0008D9BA00081FB5002408210F4B1C
:101640000F4A0520009408F0ABFD0E4B4FF480626A
:1016500018600D4B0D4902930D4B0E480193012369
:101660000093234608F052FF30B960210A4804B0C5
:10167000BDE8104006F01FBF04B010BD282B0020AD
:10168000593C0020782B0020CC1A002084B9000897
:10169000241B00204D15000849BB000808B504486C
:1016A00009F0BDFEBDE80840024800F077BB00BF6E
:1016B00060C20008303D002008B5044806F00FFF66
:1016C000BDE80840024806F00ABF00BF70BB000832
:1016D00058BB0008014806F06ABF00BF88BB00087D
:1016E00018B1034B1860002070472520704700BFD9
:1016F0007C2B002010B5054C0549206801F03EF810
:101700002068BDE81040FFF7EBBF00BF743E00202B
:10171000483D0020014B1868704700BF7C2B00201B
:1017200008B5034809F07BFEBDE8084006F091BE0D
:1017300060C20008014809F072BE00BF60C2000824
:101740000348044A0449121A921006F0A7BE00BFCB
:101750007001000870010008303D002008B5154BED
:1017600083F30A8800F030F8FFF7EAFF124B1349C1
:101770008B4212D30020124B12498B4218D3FFF731
:1017800071FB186850F82240586840F82240013236
:1017900098688242F5D30C33EAE70022F8E71C6828
:1017A00044F8220001325C68A242F8D30833E4E72F
:1017B0000022F8E70000002080CA00088CCA000858
:1017C0008CCA00088CCA00084FF48041124B134A9F
:1017D00070B59A60D3F88820114D42F47002C3F8B6
:1017E0008820104A05F5005491664FF0FF322266BA
:1017F0000D4A62660222C3F8D020BFF34F8FBFF3B9
:101800006F8F4FF44036002003F094FF0020E66015
:1018100003F028FF2E6170BD00ED00E0000000081D
:101820000080004400900050F7FF3700014B186023
:10183000704700BF7C3E0020054B1860054B1B6FB6
:1018400003F00703032B01D107F00CBF704700BF63
:10185000843E00200080005030B5056887B0AB881A
:1018600004461E48ADF80C3009F0D9FD00220121D4
:1018700003A800F083F80DF10B0103A800F04AF96A
:101880009DF80B3083F001032B70AB79022B19D13B
:101890004FF0FF330022CDE904330094104B04A92C
:1018A00003A800F0FFF9049B009401330C4B0CD10A
:1018B000042205A903A800F05FF918B16F210948B7
:1018C00006F0F9FD002007B030BD012205A903A8EC
:1018D00000F052F90028F5D07E21F0E760C2000840
:1018E000F3840008A0BB00082DE9F04104460C2554
:1018F0004FF00108124E0CB314F001000BD0002081
:1019000024F0010405FB00625768002FF3D09168B2
:10191000C0B2B847EFE72246013020284FEA520212
:1019200001D0D307F8D508FA00F20F2824EA020400
:10193000E8D9103805FB0062B432E5E7BDE8F08174
:10194000E42B002008B50C4809F069FD192003F0CC
:10195000A3FE28B1192003F0EDFE192003F082FE4A
:101960001A2003F099FE28B11A2003F0E3FE1A2092
:1019700003F078FE002008BD60C200082DE9F041A8
:101980000E469046044638B993211A4806F093FD56
:1019900022252846BDE8F0810F290CD8037883B1B1
:1019A000012B03D0022B0CD0032B04D13F236278F0
:1019B000D340DB0708D497210E4806F07CFD212593
:1019C000E7E740F2FF33F2E70B4BD3F810532DB1AA
:1019D0009B21084806F06FFD0225DAE709F014FDA7
:1019E000074642462046314603F0C0FA384609F021
:1019F00006FDCEE704BC000800C0035038B504461D
:101A000028B91348E42106F056FD222038BD03789A
:101A100083B1012B03D0022B0CD0032B04D13F2325
:101A20006278D340DB0708D40948E82106F043FD7B
:101A30002120EBE740F2FF33F2E709F0E5FC054631
:101A4000204607F0E5FE284609F0D9FC0020DDE736
:101A500004BC000838B5044628B91448FC2106F037
:101A60002AFD222038BD03788BB1012B03D0022B35
:101A70000DD0032B04D13F236278D340DB0709D478
:101A80000A484FF4807106F016FD2120EAE740F283
:101A9000FF33F1E709F0B8FC0546204603F08AF968
:101AA000284609F0ACFC0020DCE700BF04BC0008BD
:101AB00070B50D46044600B131B9154840F22D11FC
:101AC00006F0F9FC222070BD03788BB1012B03D006
:101AD000022B0DD0032B04D13F236278D340DB07C8
:101AE00009D40B4840F2311106F0E5FC2120EAE769
:101AF00040F2FF33F1E709F087FC0646204603F089
:101B0000AFF92870304609F07AFC0020DBE700BF0F
:101B100004BC000870B50D46044600B131B9154843
:101B20004FF4A37106F0C7FC222070BD03788BB17F
:101B3000012B03D0022B0DD0032B04D13F2362785D
:101B4000D340DB0709D40B484FF4A57106F0B3FC72
:101B50002120EAE740F2FF33F1E709F055FC0646A1
:101B6000204603F051F92870304609F048FC002067
:101B7000DBE700BF04BC00082DE9F0410D46164626
:101B80009846044600B139B92F484FF4E07106F089
:101B900092FC2220BDE8F081027872B1012A19D0AE
:101BA000022A0AD0032A15D0FF2A0CD04FF4E27182
:101BB000254806F080FC2120ECE740F2FF336278F4
:101BC000D340DA07F2D5022E07D9042E05D04FF400
:101BD000E471EDE73F236278F2E709F015FC237822
:101BE0000746FF2B05D032462046296803F026FA27
:101BF00028602B68013309D12378FF2B06D1134BC2
:101C00006078D3F8241406F089FE286029684B1CFC
:101C100014D00C230E4A03FB0122069BC2F8048059
:101C200093602378FF2B04D001230A4A8B40C2F82B
:101C30002434384609F0E3FB0020ABE7384609F0CE
:101C4000DEFB2D20A6E700BF04BC000800C0035047
:101C5000E42B002000D003500F2810B5044606D90D
:101C60000D4840F2F11106F026FC212010BD09F0CC
:101C7000CBFB0123094AA340C2F82034C2F8243424
:101C80000C22074B02FB04330024C3E9014409F092
:101C9000B6FB2046EAE700BF04BC000800E00350A2
:101CA000E42B00202DE9F0410D4690461F460446E6
:101CB00000B139B926484FF40B7106F0FCFB222025
:101CC000BDE8F081017871B1012938D002290AD02C
:101CD000032934D0FF290CD01D4840F2312106F0F1
:101CE000EAFB2120ECE740F2FF336278D340DA07C9
:101CF000F2D509F089FB23780646FF2B05D0424632
:101D00002046296803F08AFA28602A68531C19D0F3
:101D10000C23104903FB0211069BC1F8B870C1F8EF
:101D2000BC302378FF2B05D00123103293400A4AA0
:101D3000C2F82434304609F062FB0020C0E73F239C
:101D40006278D3E7304609F05AFB2D20B8E700BF90
:101D500004BC0008E42B002000D0035008B503F0B9
:101D6000ABF8054B00F0553020F05020C3F82004AC
:101D7000BDE80840FFF7B8BD00E0035008B503F028
:101D80009BF8054B00F0AA3020F0A020C3F82004F7
:101D9000BDE80840FFF7A8BD00E0035070B5044659
:101DA00086B018B9AC212E4806F085FB2368B3F144
:101DB000B64F07D02B4A93424BD12B4809F02FFB4B
:101DC000012503E0294809F02AFB0025A388012208
:101DD000ADF80030E3880A216846ADF80430FFF71B
:101DE000CDFD01220A2101A8FFF7C8FD0A26684699
:101DF000FFF730FE642004F04BF96846FFF7FEFD64
:101E0000642004F045F9013EF1D10323184A02EBA6
:101E10000511C1F8E834607923794F3543EA00436E
:101E2000C1F8EC34E179A3792D0143EA0143535120
:101E300040F20113ADF80830E36820680493A3680A
:101E400002A90393237C8DF8143002F02BFD06B019
:101E500070BDD121024806B0BDE8704006F02BBB32
:101E60005DBC00080080065058C200085CC2000833
:101E700000C0035038B5054602F058FE044C012856
:101E800001D1013C00D138BD284602F03DFDF6E706
:101E9000E193040013B504460A4809F0C0FAA27899
:101EA0000421B2FA82F2237852098DF80430637863
:101EB0000DEB01008DF80530FFF760FD002002B04A
:101EC00010BD00BF60C200082DE9F04F9A46564B86
:101ED00085B01B7806460F461546DDF83C909DF808
:101EE00044B0DDF85080002B00F09780072A00F204
:101EF00096800E9B002B00F09280B9F1000F00F04D
:101F00008E80129BB3F5006F00F38980012803D106
:101F1000109B002B00F08380444B03EB05131B7BCD
:101F2000002B7ED0424C10220021684606F0CBFFE9
:101F300004EB45141022A7BB3946204606F0C3FF28
:101F400043F210036380BBF1000F03D1E37843F049
:101F50000303E370364A0E9B02EB451CCCE9019368
:101F6000129B6901581E9DF84C30C0F30A0003F023
:101F700003039B0643EA001E53582E48012E00EA35
:101F800003004EEA0003CDF800A0535017D0B8F17B
:101F9000000F2ED19CF8023068F304138CF8023045
:101FA00027E00021204606F08EFF4FF44473638043
:101FB000BBF1000FCED1E37843F03003C9E7132320
:101FC0000CF1100ECCF80C309CE80F008EE80F00DE
:101FD0006FF00301DCF81C20109B61F39F02012FBE
:101FE000CCF81C20CCF8143003D1CCF81890CCF8E5
:101FF000043000270D4A290102EB051342F8018045
:10200000159A28465A60694622469F605E7302F020
:1020100055FE384605B0BDE8F08F0748FAE7074897
:10202000F8E70748F6E700BF813C00204C2E00206F
:102030004C2D00200F80FFF3028000F0018000F0A3
:10204000078000F038B5124B05461B78DBB1E0B1D4
:1020500009F0DAF90F4A00231146147B54B92B60BA
:1020600001251A0101EB03131D738C5009F0C7F908
:10207000204638BD0133082B02F11002EDD109F0E2
:10208000BEF90548F5E70548F3E70548F1E700BF65
:10209000813C00204C2E0020048000F0028000F0E3
:1020A000018000F0154B13B51868002301908DF8DE
:1020B000043009F0A9F9124B1C7824B109F09FF9FA
:1020C000104802B010BD01221A7009F098F90E4BA9
:1020D00001A81C731C7783F82C4083F83C4083F8DC
:1020E0004C4083F85C4083F86C4083F87C400823C4
:1020F0008DF8073002F09AFD2046E2E7BABC0008EE
:10210000813C0020038000F04C2E00200A4A08B5D4
:1021100012785AB107280BD8084A02EB00131B7B30
:1021200043B1002102F062FD002008BD0448FCE735
:102130000448FAE70448F8E7813C00204C2E0020D0
:10214000028000F0018000F0078000F00A4A08B524
:1021500012785AB107280BD8084A02EB00131B7BF0
:1021600043B1012102F042FD002008BD0448FCE714
:102170000448FAE70448F8E7813C00204C2E002090
:10218000028000F0018000F0078000F0184B2DE97C
:10219000F0411F6D5B6D1F4000D5FEE70126002555
:1021A000144CDFF85880374218D02368C8F85060C4
:1021B000A3B1A168284601316268A1609847637B9A
:1021C000012B0BD150B90C4B03EB45131A7B60F379
:1021D00041021A731A7F60F341021A770135082D04
:1021E0004FEA460604F11004DDD1BDE8F08100BFDE
:1021F000000004504C2E00204C2D002000200450E4
:1022000038B504460D4609F0FFF8A3889BB223B900
:102210002B6009F0F4F8064838BD142263889BB29D
:1022200002FB034408342C6009F0E9F80020F3E7CE
:102230000B7000F038B141B1013AB2F5006F0448BB
:1022400038BF00207047034870470148704700BFFF
:10225000037000F0027000F0104930B50A78104B9E
:102260002AB9C3E90022C3E9022201220A700C49FB
:1022700000220C4654F8045B854208D00132042A3F
:10228000F8D1002251F8044B1CB943F82200002079
:1022900030BD0132042AF5D10248F9E7823C002022
:1022A000CC2E0020027000F0002313B51D4A52F816
:1022B000044B94F8211081420ED00133042BF6D147
:1022C00002B010BD0028FBD19DF80730002BF7D0DD
:1022D000A068FFF71BFFF3E794F83530022BEFD12E
:1022E000204606F048FA637E2076022BE8D194F867
:1022F000323003F0FF02002BE2D1A0680DF107019C
:102300008DF8072007F04EFA237E1BB194F8333086
:10231000002BD7D00023A06884F83330FFF716FFD6
:10232000CEE700BFCC2E002010B50446FFF7BAFE62
:10233000002104F10800FFF785FE014608B10448BA
:1023400010BD04F10C00FFF77DFE0028F8D0F6E781
:102350000E7000F0F8B5044616460F4609F054F822
:10236000A388E2889BB29A42054605D800233360D1
:1023700009F045F81748F8BD1422238807F1100C1E
:102380009BB202FB03433A460833174603CF674527
:10239000186059603A4603F10803F6D114223868F0
:1023A0001860238828469BB202FB0343083333603E
:1023B0002388E2889BB20133B3FBF2F102FB1133B5
:1023C0009BB22380A38801339BB2A38009F017F846
:1023D0000020D0E70A7000F07FB5012380F830308C
:1023E00090F836309BB903682433826B01328263E4
:1023F0000C4A04900392002202924A680192012240
:1024000000920A684169C06806F034F907E0022BBF
:1024100002D103683C33E8E7002380F8303007B08E
:102420005DF804FB612900087FB5012380F8313095
:1024300090F836309BB902683C32836B013383637A
:102440000C4B04900393002302934B6801930123E8
:1024500000930B680169806806F0F2F807E0022B30
:1024600002D102684432E8E7002380F8313007B037
:102470005DF804FB3D25000890F8363063B9012271
:1024800003685A619A69D207FCD504210379084A86
:10249000B9335B01D1507047022B07D10068836CC0
:1024A0009B074CBF0521092101F090BE704700BF7A
:1024B00000C0035090F8363053B9042103790A4A1A
:1024C00003F239135B01D150022203685A6170474D
:1024D000022B07D10068816C11F0020118BF0621A0
:1024E00001F074BE704700BF00C0035010B590F8F3
:1024F0003630044663B9042203685A619A69920728
:10250000FCD523790C4AB9335B011021995010BDD9
:10251000022BFCD10068836CDB074CBF0521062130
:1025200001F054FE237941F294425B0103F1A04390
:1025300003F57033E9E700BF00C003502DE9F34114
:10254000D06A01A91446FFF75BFE0546204607F056
:102550004FF9194B9D4228D0019D25B940F2A53174
:10256000164805F0A8FF00272F61AF6008F04CFF68
:10257000D5F80C800646B8F1000F04D0D5E9002349
:1025800039462046C047E06A01A906F00DF9E06A25
:1025900083889BB26BB101A9FFF732FE20460199F7
:1025A000FFF742FF304608F02AFF012002B0BDE8E5
:1025B000F08184F83130F5E70B7000F0BEBC000804
:1025C0002DE9F04104461746FFF734FE88460646DB
:1025D000E8B9152003F078F80546E26A93889BB2C3
:1025E00013B194F83230ABB194F83630BBB92368EC
:1025F0009D6915F002052CD0012384F8343047443E
:10260000B845206849D183699B06FCD56DB3304637
:10261000BDE8F081002DE1D0FFF7B8FDDDE7022B2A
:1026200012D123689D6C15F0020512D0012384F8A5
:10263000343047444745206836D142F22002836C4B
:1026400032EA0303FBD1E1E740F697111E4805F09B
:1026500032FF2046FFF74AFF012394F8365084F8F2
:102660003430002DCBD0022D1CD094F8363003B37B
:10267000022BCCD12068816C11F0010118BF092117
:1026800001F0A4FD42F29442102123795B0103F191
:10269000A04303F570339950B9E718F8011B06F011
:1026A00029F9ADE70025C4E718F8011B06F01DF96C
:1026B000C0E710212379054A03F239135B01D15099
:1026C000082223685A61A2E7BEBC000800C003507C
:1026D00010B5044680B190F832302BB906F04BF8B3
:1026E00010B9A068FFF712FD002094F832300133D2
:1026F000DBB284F8323010BD0048FCE7027000F015
:1027000010B50446A0B190F832309BB190F8323049
:10271000012B05D106F02FF810B9A068FFF716FDC0
:10272000002094F83230013BDBB284F8323010BD27
:102730000148FCE70148FAE7027000F0057000F07C
:1027400030B50025437F85B08DF8083090F82130F2
:10275000044604228DF80930039303A9064B009523
:1027600002A8FFF709FA4FF4007320462383A576E9
:1027700006F03DF805B030BDA92200082DE9F04172
:1027800004468EB06B4F06AE0D460FCF0FC697E8CE
:102790000F0086E80F0018220021684606F093FB20
:1027A000002C00F0C58025B9634E30460EB0BDE860
:1027B000F08164220021204606F085FB02232F6869
:1027C00084F8363027602B7C20462371FFF744FDC8
:1027D00006460028E9D12B7F84F83530AB682366A4
:1027E000564B9F4200F09680554B9F42DCD14FF4F0
:1027F00080135449544AC4E904230023616284F8D5
:102800003130D5E9091284F83030A1624F480B808D
:102810004B808B8084F83030E26213805380938049
:1028200084F8313084F8333008F0F9FD636ADFF85A
:102830002C81986808F0F3FD10212B7C08EB4312E3
:10284000C2F894142E7BA87B253346EA0041C2F8D7
:10285000AC14697BEA7B08EB431341EA02475F60F3
:10286000E676E077217784F820206B7F012163777B
:10287000AB7F204684F82130EB7FA37795F820309A
:1028800084F8223005F010FF064600288DD1AB6891
:10289000022608936B8A8DF82560ADF82830AB8A44
:1028A000CDF834D0ADF82630AB7D8DF82430AB694F
:1028B0000B930123ADF8063008F0A6FD2A7F0746EA
:1028C000032A2CD141F294412B7C08EB43135E5038
:1028D00095F82000E97F41EA004103F5A550016029
:1028E000A87F697F41EA004141F29C4019508DF870
:1028F000002006238DF818302B79286806A9A3B18B
:1029000001F0D4FE2046FFF70FFD0646384608F0DA
:1029100076FD4AE74FF470230D490E4A6BE7022A11
:10292000E7D12046FFF70CFFE3E701F091FEE9E76E
:10293000094E3AE738BD0008037000F00000015B63
:1029400000000A5078C200080100100060C20008B0
:1029500084C2000801000F00027000F000C00350A4
:10296000F7B5906A01A91446FFF74AFC05462046D0
:1029700006F03EFF3B4B9D4236D0019D25B940F20B
:10298000D121394805F097FD94F83610002939D146
:1029900023689A6C12F4007229D0344AA9602A6123
:1029A0004FF4007203F500539A6408F02DFDEF68B0
:1029B000064637B16A68AB682046D31A29692A6887
:1029C000B847A06A01A905F0EFFEA06A8588ADB2FC
:1029D000002D37D001A9FFF713FC20460199FFF71E
:1029E000FBFC304608F00BFD012003B0F0BD996CF4
:1029F000C80523D51E49AA6029614FF4807203F5EA
:102A00000053D1E7022919D12368DA6C12F400725D
:102A100009D0164A03F500532A610022AA604FF438
:102A20000072DA64C1E7D96CC90507D51049AA60FC
:102A300029614FF4807203F50053F2E700232B6104
:102A4000AB60B2E701232046237605F0D0FE94F870
:102A5000353084F83050032BC3D02046FFF72AFDD1
:102A6000BFE700BF0B7000F0BEBC00080D7000F0A7
:102A70000C7000F030B587B004461346FFF7DAFB60
:102A800030BBCDE901130393124B04906A46A06A50
:102A900001A90593FFF75EFCD0B9A26A93889BB2A7
:102AA000012BFBD82046FFF7E7FC94F83530032BC9
:102AB00004D000232046237605F099FE009D204691
:102AC0002946FFF789FC94F83030002BFBD12869A8
:102AD00007B030BD017000F030B587B00446134632
:102AE000FFF7A8FB40BBCDE901130393194B0490FA
:102AF000059394F836300BBB23689B6903F00203FF
:102B000013B92046FFF7F2FC6A46E06A01A9FFF715
:102B100021FC88B9E26A93889BB2012BFBD8009D07
:102B200020462946FFF780FC012384F8343094F8CE
:102B30003130002BFBD1286907B030BD022B02D108
:102B400023689B6CDAE740F6FB21034805F0B3FCF1
:102B5000D7E700BF017000F0BEBC0008044BD3F8FB
:102B60008420D206FBD4D3F88400C0F381107047D0
:102B70000040005038B5104B0546D3F800310C46E4
:102B800003F00303022B0BD0032B0DD0012B0FD12D
:102B900006F082FD032305B1286004B1236038BD2F
:102BA00006F0CCFD0923F6E706F07CFD0823F2E7EA
:102BB00001230020EFE700BF0080005038B5104B24
:102BC0000546D3F840310C4603F00303022B0BD02B
:102BD000032B0DD0012B0FD108F002FC0A2305B105
:102BE000286004B1236038BD06F0A8FD0923F6E78C
:102BF00008F0F9FB0C23F2E701230020EFE700BF08
:102C00000080005038B5104B0546D3F860310C46B3
:102C100003F00303022B0BD0032B0DD0012B0FD19C
:102C200008F0DEFB0A2305B1286004B1236038BD3B
:102C300006F084FD0923F6E708F0D5FB0C23F2E744
:102C400001230020EFE700BF0080005038B5104B93
:102C50000546D3F840320C4603F00303022B0BD099
:102C6000032B0DD0012B0FD108F0BAFB0A2305B1BD
:102C7000286004B1236038BD06F060FD0923F6E743
:102C800008F0B1FB0C23F2E701230020EFE700BFBF
:102C90000080005038B5124B0546D3F880300C4602
:102CA00003F00303022B0BD0032B0DD0012B0FD10C
:102CB00006F0B8FC0E2305B1286004B1236038BDCE
:102CC00006F0F4FC0723F6E706F0A6FC0623F2E77D
:102CD000044841F2142105F0EEFB00231846EAE710
:102CE0000080005058BD000838B51A4B0546D3F88F
:102CF00020010C4600F00700062821D8DFE800F08C
:102D000028040C1410181C0006F086FC052305B1DD
:102D1000286004B1236038BD06F0BEFC0323F6E74B
:102D200006F0C4FC0723F2E706F0B2FC0223EEE74C
:102D300006F072FC0623EAE706F0AEFC0423E6E7A1
:102D4000054841F2912105F0B6FB00231846DEE765
:102D50000123DCE70080005058BD000838B5194B4E
:102D60000546D3F828310C4603F00703013B052B39
:102D700020D8DFE803F003131B0F0B1706F04CFC01
:102D8000052305B1286004B1236038BD06F044FC7A
:102D90000623F6E706F08AFC0723F2E706F07CFC40
:102DA0000323EEE706F078FC0423EAE706F070FC64
:102DB0000223E6E7044841F2990105F07CFB002379
:102DC0001846DEE70080005058BD0008002337B5E4
:102DD0000193194B0546D3F820320C4603F0070344
:102DE000042B1FD8DFE803F025030F14190000217E
:102DF00001A8FFF7B3FF12230DB1019A2A6004B1B5
:102E0000236003B030BD06F051FC07230190F3E7C7
:102E100008F0E6FA0A230190EEE706F08FFC09239A
:102E20000190E9E741F25601044805F044FB002314
:102E3000E2E70123E0E700BF0080005058BD000832
:102E4000F7B50027144B0197D3F88041064604F0EC
:102E50000304022C0D4614D0032C0DD0012C14D1E8
:102E6000394601A8FFF740FF10240EB1019B3360E3
:102E700005B12C6003B0F0BD06F018FC07240190EA
:102E8000F3E706F005FC0190EFE741F2E631034875
:102E900005F011FB3C46E8E70080005058BD0008F3
:102EA00038B5164B0546D3F800020C4600F0070073
:102EB000042819D8DFE800F020030B0F130008F0F6
:102EC0008FFA0A2305B1286004B1236038BD06F0EB
:102ED00035FC0923F6E708F086FA0C23F2E706F042
:102EE000C1FB0F23800AEDE7054841F2A44105F03C
:102EF000E2FA00231846E5E70123E3E700800050EB
:102F000058BD000838B5164B0546D3F808020C46E4
:102F100000F00700042819D8DFE800F020030B0FA9
:102F2000130008F05DFA0A2305B1286004B123609C
:102F300038BD06F003FC0923F6E708F054FA0C2329
:102F4000F2E706F08FFB0F23800AEDE7054841F218
:102F5000DC4105F0B0FA00231846E5E70123E3E77A
:102F60000080005058BD0008002337B50193184B6E
:102F70000546D3F860320C4603F00703013B032BF0
:102F80001FD8DFE803F0020E1914002101A8FFF793
:102F9000ABFE10230DB1019A2A6004B1236003B087
:102FA00030BD002101A8FFF709FE1123F2E706F06A
:102FB0007DFB07230190EDE706F06AFB02230190F9
:102FC000E8E741F2FD01034805F075FA0023E1E767
:102FD0000080005058BD0008002337B50193184BFE
:102FE0000546D3F894320C4603F00703013B032B4C
:102FF0001FD8DFE803F0020E1914002101A8FFF723
:1030000073FE10230DB1019A2A6004B1236003B04E
:1030100030BD002101A8FFF7D1FD1123F2E706F032
:1030200045FB07230190EDE706F032FB02230190F8
:10303000E8E741F23011034805F03DFA0023E1E7EB
:103040000080005058BD000873B500240F4B019458
:10305000D3F87032064603F00303012B0D4607D068
:10306000022B11D041F25B11094805F024FA04E06B
:10307000214601A8FFF7A2FD11240EB1019B336088
:1030800005B12C6002B070BD1524F6E70080005039
:1030900058BD000808B5334B98424FD027D8324B63
:1030A000984245D017D8314B98423ED00AD838B113
:1030B0002F4B984239D041F2BB312E4805F0FBF935
:1030C000002034E02C4B98422FD02C4B9842F2D168
:1030D0002B4B586E2BE02B4B98422CD003F537131B
:1030E00003F5D8639842E6D1254B986F1FE0264B35
:1030F00098422FD00CD8254B984223D0244B98428D
:1031000024D0244B9842D6D11D4BD3F884000EE036
:10311000214B984222D003F5740303F510539842D3
:10312000C9D1174BD3F8980001E0154B986D08BD35
:10313000134B186FFBE7124B586FF8E7104BD3F89F
:103140008000F4E70E4BD3F88800F0E70C4BD3F87F
:103150008C00ECE70A4BD3F89000E8E7084BD3F873
:103160009400E4E780BA8C01405DC60080841E00B4
:1031700040420F0058BD000800093D00C0CF6A0062
:103180000080E00F0024F400007E560380D5430247
:10319000006CDC020048E8010090D003B0F5207F0D
:1031A00010B52ED009D8B0F5007F24D003D868B16F
:1031B000B0F5C07F0AD000241BE0B0F5607FFAD1E3
:1031C000124BD3F88040C4F3011412E00F4B1C6F74
:1031D000230B13F00E0FC4F303340AD0072C08D0CE
:1031E0000F2C06D0032C04D04FF42271084805F0B0
:1031F00062F9601C10BD054BD3F89040C4F3046421
:10320000F7E7024B1C6FC4F38024F2E70080005004
:1032100058BD00084FF4803238B5104B04469A660A
:1032200000200D46FFF7BAFF41F671320C4B6043A8
:10323000DC69DA635A6804F4803422F440125DB920
:103240000849884294BF00200120000502435A60CB
:103250000CB10022DA6338BD0349F2E70090005058
:1032600000000350005A6202002D310138B54309B5
:1032700004460D460ED140F235310D4805F01BF9DC
:10328000002304F01F0485B103F580530122A240FE
:103290001A6038BD012B04D0022B04D040F2433118
:1032A000EBE7044BEDE7044BEBE703F50053EDE7E9
:1032B00058BD00086480005068800050002130B57F
:1032C000B0F5807F85B00446CDE9001100F0D380D1
:1032D0003DD85E2833D85E2833D8DFE800F0483286
:1032E00032323232323232323232323232323232BE
:1032F000323232323232323232323232323248AD1D
:1033000048ADBDBDBDBDBDADC7516EDD51ADADADAF
:103310003232323232323232ADADAD81E7AD32329D
:103320003232323232323232323232BD484848E200
:103330005151EC9066C232323232329848008028C5
:103340006AD040F2A441604805F0B5F867E0B0F5F6
:10335000D06F00F0A18035D8B0F5607F77D01AD853
:10336000B0F5007F5ED005D8B0F5C07FE9D106F09A
:1033700079F953E0B0F5207F5ED0B0F5407FE0D121
:1033800006F070F904464FF42070FFF707FFB4FB16
:10339000F0F4640859E0B0F5B06F67D00AD8B0F522
:1033A000806F59D0B0F5A06FCBD100216846FFF7F0
:1033B0000DFD34E0B0F5C06FC3D100216846FFF7C2
:1033C000FDFB2CE0B0F5106F6BD00ED8B0F5086F98
:1033D00076D0B6D8B0F5E06F68D0B0F5F06FB0D168
:1033E00000216846FFF70EFC19E0B0F5406F38D0B9
:1033F0000AD8B0F5206F5ED0B0F5286FA1D10021BA
:103400006846FFF721FE0AE0B0F5486F99D1002128
:103410006846FFF7E1FD02E006F004F9009000982D
:1034200005B030BD06F0FEF805462046FFF7B6FEB3
:10343000B5FBF0F50095F2E706F014F904464FF4F9
:103440002070FFF7ABFEB4FBF0F40094E7E701A8AF
:10345000FFF720FC019DE8E700216846FFF744FCE8
:10346000DDE700216846FFF779FCD8E700216846D0
:10347000FFF7E6FCD3E74FF0E02302911B695B07FF
:1034800005D506F0EFF80290029B0093C7E703A969
:1034900002A8FFF793FBF7E700216846FFF700FD5E
:1034A000BDE700216846FFF72DFDB8E7002168461B
:1034B000FFF7CCFBB3E700216846FFF755FDAEE709
:1034C0006846FFF757FBAAE758BD000808B58020FB
:1034D000FFF7F4FE034B98429EBF4FF48032024B3D
:1034E0001A6708BD005A620200A000501FB50346CB
:1034F0000020B3F5807F019000F0C58063D85D2B7C
:1035000054D84C2B06D82D2B46D8232B2AD840F242
:103510008951A7E04D3B102BF9D801A252F823F0B6
:103520007D3600080F3500080F3500080F350008FC
:10353000273600080F3500080F350008D736000879
:1035400045360008EB350008CD3600080F35000879
:103550000F3500080F3500080F3500080F3500083B
:10356000E1360008243B092BD1D801A252F823F000
:103570007D3600087D3600087D3600087D3600085F
:103580007D3600080F3500086D3600080F3500083D
:1035900007360008B33600083D2B00F085803E2B2F
:1035A000B5D1002001A9FFF751FB63E0802BAED11C
:1035B0004E4B1B6F03F00703013B032B50D8DFE892
:1035C00003F04D46494BB3F5F06F6DD020D8B3F5FD
:1035D000B06F4BD00ED8B3F5607F73D097D3B3F5EF
:1035E000806F4BD0B3F5A06F91D1002001A9FFF7F8
:1035F000EDFB3FE0B3F5D06F5BD0B3F5E06FD0D01B
:10360000B3F5C06F83D1002001A9FFF7D7FA31E0ED
:10361000B3F5206F5FD00BD8B3F5086F4ED0B3F57C
:10362000106F7FF474AF002001A9FFF76BFC21E05D
:10363000B3F5406F4AD0B3F5486F51D0B3F5286F5A
:103640007FF465AF002001A9FFF7FEFC12E005231F
:1036500001930FE00323FBE70823F9E70223F7E7D1
:1036600040F2D641224804F026FF03E0002001A9E1
:10367000FFF7E6FB019805B05DF804FB002001A907
:10368000FFF732FBF6E74FF0E02302901B695B0780
:1036900005D505F0E7FF0D230393039BD8E703A9A6
:1036A00002A8FFF78BFAF8E7002001A9FFF7AAFAB2
:1036B000E0E7002001A9FFF7F3FBDBE701A9FFF733
:1036C00059FAD7E701A9FFF7E5FAD3E7002001A9E6
:1036D000FFF744FBCEE7002001A9FFF745FCC9E74F
:1036E000002001A9FFF778FCC4E700BF008000506C
:1036F00058BD00084FF48032074B0849586E03F557
:1037000080535A664B6A23F001034B62C3035CBFCC
:10371000034B5A66704700BF0080005000C007503E
:1037200000A0005038B5036804460F2B04D940F6BA
:103730008A317C4804F0BFFE63680F2B04D940F641
:103740008D31784804F0B7FEA3680F2B04D94FF4ED
:103750003961744804F0AFFE237B0F2B04D940F687
:103760009331704804F0A7FE637B0F2B04D940F619
:1037700096316C4804F09FFEA37B3F2B04D940F6A2
:103780009931684804F097FEE37B3F2B04D940F65B
:103790009C31644804F08FFE2369032B04D940F662
:1037A0009F31604804F087FE6369032B04D940F61B
:1037B000A2315C4804F07FFEE369032B04D940F694
:1037C000A531584804F077FE8020FFF78FFE0328CC
:1037D00000F083804FF48012534B4FF0A0615A6683
:1037E00045F60E02514BC3F88020514A91624FF4C6
:1037F000803102F5805291629A6DD203FCD4996DAA
:1038000011F08041FBD1D4E90002120542EA0062C6
:10381000E07B0243207B42EA0042607B42EA0032C6
:10382000A07B42EA80121A619869D4E90452120618
:1038300042EA856200F000400243A07EE57E02433A
:10384000207E42EA0042607E42EA00229A611A6AC1
:10385000E06922F00F0242EA8502364D00283DD190
:103860001A6294F82420996A94F82000D200294022
:1038700042EA40120A4394F8211042EA011242F44B
:1038800080329A622C49294A936D31EA0303FBD1B5
:103890004FF08071264881621369A56823F4700394
:1038A00043EA055313614FF00043836194F82230DB
:1038B0000BB9224B996294F823303BB94FF4803214
:1038C0001E4B9A62194A936D5B00FCD494F8253024
:1038D0001BB1164B1A4AC3F8802038BD024342F090
:1038E000080202281A6208D119614FF4085299613E
:1038F00014484FF47F4104F0B6FF0C4994F822308D
:103900008A6A94F820001B062A4043EA40131343B6
:1039100094F8242043EAC20394F8232043EA0243A4
:103920008B62D3E758BD0008009000500040005A59
:103930000050005AC7FFFEFE030001000060005A5D
:10394000F1A7FFFF3440005A014B93F90000704784
:103950006F400020436810B5072B044604D940F699
:10396000E6512A4804F0A7FDA368032B04D940F6CA
:10397000E851264804F09FFD2378032B04D940F634
:10398000EA51224804F097FD94F90130002B04DA43
:1039900040F6EC511D4804F08EFD4FF400011C4A26
:1039A000637851664FF4D151022002F5B83251626A
:1039B00018494F2B48604FF0010028BF4F2301F5F5
:1039C000805148601169C903FCD4217843EA01237E
:1039D0005361D4E901131B0143EA0123617B0B43CB
:1039E000217B43EA41039360E37BA17B1B0143EA14
:1039F0004113617C0B43217C43EA41035360A37C68
:103A000013B16FF4D153536210BD00BF58BD00080D
:103A10000090005000100250014B1880704700BF0A
:103A20006A400020014B1880704700BF68400020AA
:103A30004FF4800208B5184B5A660223174A5360A8
:103A4000936813F48033FBD1012822D105F024FEC2
:103A5000134B984215D003F5122303F5F8639842EF
:103A600013D0104B00EB8002400AB3FBF0F3520A74
:103A70000A49CA620B6301234B620022074B5A605A
:103A800008BD45F67A13084AF2E745F61A03074AD5
:103A9000EEE75362F1E700BF009000500040025093
:103AA00000F0490264666666D8B80500BBCF050021
:103AB000B0F5207F38B577D00ED8B0F5007F61D053
:103AC00003D890B3B0F5C07F2FD04FF44671BDE856
:103AD00038403D4804F0EFBCB0F5607FF5D13B4A7B
:103AE0004C1ED2F8FC5015F080751EBFD2F8FC3089
:103AF00023F08073C2F8FC30032C04D940F2F72184
:103B0000314804F0D8FC324AD2F8803023F0300338
:103B100043EA0413C2F8803035B12C4AD2F8FC30A5
:103B200043F08073C2F8FC3038BD4C1E012C0AD91A
:103B3000102903D8274BCB40DB0704D440F2CB211C
:103B4000214804F0B8FC04F09DFE04F0A9FE4FF4F7
:103B50008031214B1E4A1967136F23F4704343EAE7
:103B60000433136705F07EFD0446FEF7F7FFC0F14E
:103B70000201204604F08EFE00F048F8BDE838400F
:103B8000FFF7A4BC4C1E1F2C04D94FF443710E4800
:103B900004F091FC0E4AD2F8903023F0F85343EA37
:103BA0000463C2F89030BFE74C1E012C04D940F2E8
:103BB0001231054804F07FFC054A136F23F480633B
:103BC00043EA84231367AFE758BD000800ED00E027
:103BD00000800050100101000090005008B5012144
:103BE000022000F099F94FF42070FFF7D7FA054B47
:103BF000187004F047FE04F053FE4FF48032024B7D
:103C00001A6708BD833C00200090005008B54FF4AF
:103C1000C070FFF753FBBDE808400449884294BFD9
:103C2000012102214FF42070FFF742BF80F0FA0219
:103C300038B5044605F016FD0546FEF78FFFC0F1C6
:103C40000201284604F026FE0121002000F0B8F908
:103C50002CB1FFF7DBFFBDE83840FFF737BC034B63
:103C60004FF420701978FFF723FFF4E7833C00201E
:103C70002DE9F0410546FFF70DFA431E03330446D4
:103C800004D940F6E2113B4804F015FC4FF4C02281
:103C9000394B5A6603F598335A68012A04D13749DB
:103CA0004A605A689207FCD48020FFF71FFC052861
:103CB00007D104F0E7FD04F0F3FD4FF480322E4B02
:103CC0001A672F4B24F040749D4239D02D4B9D42F2
:103CD00039D005F0A1FC8542064603D901212846CA
:103CE00000F06EF9284FFB6813F0060FFBD1D7F8F0
:103CF0000880BC60BB68634013F4F81F26D12846D7
:103D0000FDF794FD8020FFF7F1FB052814D105F0A5
:103D1000A9FCA842044604D940F63B21154804F00A
:103D2000CAFBFEF71BFFC0F10201204604F0B2FD02
:103D3000FFF76CFFFFF7CAFBAE4213D2BDE8F0817C
:103D400044F00074C5E744F08074C2E740F62A21CD
:103D5000084804F0B0FB8020C7F80880FFF7C6FBD6
:103D6000052805D0BDE8F0410121002000F028B968
:103D70003546CCE758BD00080090005000E00150E7
:103D800040420F0080841E00000001504E4B70B571
:103D90009842054673D041D8A3F5B703A3F55863FD
:103DA000984265D033D8494B494E984251D017D8E4
:103DB000002877D041F2DE11464804F07CFB40F643
:103DC0008671444804F077FB4FF40022404B5A665A
:103DD0003E4B9D4276D000243F4A954236D05DE06E
:103DE0003D4B984227D03D4B9842E3D13C4BD3F812
:103DF000A040621E033224F040744CD940F6867114
:103E0000344804F058FB4FF400237366E4E7354B65
:103E10009842CFD1324BD3F8BC402CE0324B984281
:103E200031D0324B984232D0314B9842C2D12C4BD8
:103E3000D3F8C8401FE02A4BD3F8A040621E0332DB
:103E400024F04074DAD84FF40023736644F0807491
:103E500024E0234BD3F8A040621E033224F04074C8
:103E60002AD84FF400237366234643F0007415E00C
:103E70001B4BD3F8B840621E154E0332BBE7184BFC
:103E8000D3F8C040F7E7164BD3F8CC40F3E7144B18
:103E9000D3F8D040EFE74FF4002373664FF0B442FD
:103EA000946070BD40F686710A4804F004FB4FF43C
:103EB00000232C467366F1E740F68671054804F04E
:103EC000FAFACEE70023D0E7C0EA210140420F0012
:103ED0000090005058BD000880841E0000093D007D
:103EE0000080E00F0024F4000048E801005A62025C
:103EF00080BA8C01024A536B0342FCD1704700BF69
:103F000000400950034A0179D36E23F030030B437C
:103F1000D366704700400050F8B50446244BD3F8F0
:103F20008420D006FBD4D3F88430C3F381139C42A1
:103F30003CD005F077FB012C05460BD11D4B984278
:103F400004D940F29B711C4804F0B5FA01212846BF
:103F500004F0A0FC07F04FFA4FF00072174B074631
:103F60005A66204604F0A1FC4FF48063104E621E96
:103F700093403367736E9A0103D4D6F884309B065E
:103F80000AD5384607F032FA022C0FD12846BDE890
:103F9000F840002104F07EBCD6F884309906E9D5BB
:103FA00040F2B371044804F086FAE3E7F8BD00BFBD
:103FB00000400050005A6202AABD00080060005094
:103FC00010B50C4608B905F02DFB074B21461B78B0
:103FD0003BB1064B984204D80120BDE81040FFF7E2
:103FE0009BBF0220F9E700BF843C0020005A620218
:103FF0004FF0004238B5244B244C5A664AF6CD3374
:10400000656C014605F00105236428BB0120FFF71C
:1040100071FF6368DB0715D51D4B586008461D4BC3
:10402000226BD2070CD4984208D1072415B1174B44
:10403000194A1A6404F03AFC204638BD0130EFE713
:104040009842F2D00024F1E70132236B13F0080309
:1040500005D08A42F8D1E8E700220E49F5E78A4206
:10406000E3D020210A4A91620121A2F580525160D9
:104070000649084A886A800603D49342D5D00133A2
:10408000F8E79342DDE700BF009000500040095080
:104090000060095040420F003254FFFF4FF00042D1
:1040A00038B5164B01465A664AF6CD33144C154ABC
:1040B000656C236443780B205B0043F00103D363FA
:1040C000FFF718FF63688A7823F4F87343EA021352
:1040D0006360CA784B7943EA0223A3600A798B793B
:1040E00043EA022323610878FFF782FFEB0744BF0E
:1040F000054B236404F0DAFB012038BD009000502A
:1041000000400950004000503254FFFF0F2870B5A6
:10411000044605D940F67461124804F0CCF90F2426
:104120004FF00042104B11495D6E03F580535A6603
:104130004AF6CD334E6C80200B64FFF7DBFE0B6A32
:1041400023F00F0323430B62F30744BF084B0B64B8
:10415000002DA2BF4FF00042064B5A6604F0A6FBAA
:1041600070BD00BFAABD000800800050004009508B
:104170003254FFFF00A0005010B504F09CFB042354
:1041800000F5805100F500520B6113610B61136162
:104190000B6113610B611361202341F20201036182
:1041A0000023C360836041614FF4A0218361836574
:1041B00041620549C36103628362C362436303656D
:1041C000D164036310BD00BFFF3F0D0338B5174B2B
:1041D000044698420D4607D0154B984204D040F251
:1041E0006911144804F067F925B92046BDE8384044
:1041F00004F061BB012204F580535A6040F6FF7160
:10420000204605F00F0204F052FBA263782104F06F
:104210004EFB05F001036A0748BF43F00203A26C9E
:1042200002F003029A42FAD138BD00BF0000015BE0
:1042300000000A50FCBD0008F8B505460C461646BD
:1042400022B940F227216B4804F035F96A4B9D42B0
:1042500002D19CB956240DE0684B9D4247D040F2F4
:104260002A21644804F027F944B940F279316148C1
:1042700004F021F92046FFF721F80446AB68D8077F
:1042800045D5B44204D24FF40D715A4804F013F9E5
:10429000B4FBF6F46F68013CFF2C07F0010704D96A
:1042A0004FF40F71534804F006F924064FB3282148
:1042B000284604F0FCFAAB6C99071CD1AB6CDA070A
:1042C0001BD4AE6C16F0020619D140F249214948C0
:1042D00004F0F1F8284604F0EEFA2B69314623F099
:1042E0007F4323432B61BDE8F840FFF76FBF002CED
:1042F000C4D15724BEE70526ECE70926EAE70626DF
:10430000E8E72B6923F07F4323432B61F8BD6B68FB
:10431000012B04D04FF41771364804F0CCF8AB6D84
:10432000DB07AB6848BF760003F0E003402B42D0C8
:1043300009D893B1202B1AD040F29E21BDE8F84055
:104340002C4804F0B8B8602B42D0802BF4D106EB97
:104350004603A34247D801230DE0B6EB141F04D94E
:104360004FF42171234804F0A6F8102303E0B6EBC4
:10437000D40F1AD8082373436401B4FBF3F4204F1D
:10438000203CB7EBC40F4FEAC40604D240F2A92187
:10439000184804F090F828463E40012104F087FABE
:1043A0002E63BDE8F84004F082BA40F2892111483A
:1043B00004F081F8DEE70623B4FBF3F3B34201D344
:1043C0000623D8E740F28E210A4804F074F8F7E794
:1043D000B6EB940F01D80423CDE740F293210548B2
:1043E00004F069F8F7E74FF42671024804F063F827
:1043F000B1E700BFFCBD00080000015B00000A50EF
:10440000F8FF7F002DE9F0419846436804460E46C8
:1044100017461BB140F6FF7104F049FA2046FFF73A
:10442000ABFEF189737B62690B43318A22F44C52F3
:1044300022F00F020B4313436361A26896F818C081
:10444000337B22F0804222F0E2024CEA0303134362
:1044500072691343B268A3601AB9A36843F00043BA
:10446000A360F06904F58053002878D0857A017A3A
:104470006D04D4F808E045EA81556E490EEA010161
:104480000D43818801F4C0410D43417845EA81051F
:10449000417B45EAC105817B45EA0115817845EA02
:1044A0008125A560D4F80CE0D0E904152943624DBC
:1044B0000EEA05052943857941EA8521C57941EA56
:1044C0004521E16001785D4D012914D1E16841F099
:1044D0000401E160AC4200F0928059498C420CBF6B
:1044E00001214FF0FF31490101F1A04142F2944511
:1044F00001F5703114E003297BD1E16841F004013A
:10450000E160AC4279D04E498C420CBF01214FF0A2
:10451000FF3141F29445490101F1A04101F57031AB
:104520004FF0020E41F805E0417A996219B1E16855
:1045300041F40061E160C17A59B1E16841F40041A0
:10454000E1603E498C425CD1017B3E4D01F00F01A0
:104550006967616AC07B21F00301014361622FB189
:1045600097F82010002956D001211962B8F1000FE8
:104570002DD0BCF1000F02D04FF4004199652F49B6
:10458000B8F822508C4298F8211051D02C4884421F
:1045900013D10120112934BF4FF0010C4FF0020C50
:1045A000294FB5F5006F07F800C094BF4FF0010C1C
:1045B0004FF0020C254F07F800C0A06D294320F4EE
:1045C000F95020F01E000143A165012199650121E8
:1045D00059601AB120467168FFF72EFE20463178E7
:1045E000FFF7F4FDA36CDB4313F4405FFAD1BDE8A1
:1045F000F0810239012984D96CE7002189E7002183
:1046000071E70F498C4201BF017B0E4D01F00F0194
:10461000C5F880109DE7E06997F8221097F82150BF
:1046200020F009002943014341F00101D9619DE7D0
:104630000020AFE7E39BBDFFFFF9F0870000015BBF
:1046400000000A5000900350873C0020853C002069
:10465000134B70B5984205460C4606D0114B984254
:1046600003D07021104803F026FF1CB972210E48B8
:1046700003F021FF237B802B03D176210A4803F02E
:104680001AFF637B032B03D97921074803F013FF3B
:10469000002321462846BDE870401A46FFF7B2BE07
:1046A0000000015B00000A50FCBD00082B4B70B5F8
:1046B000984205460C4643D119B98C21284803F08D
:1046C000FAFE5620FEF712FF0C2807D0A0F10903CE
:1046D000012B03D9A0F11103012B3AD8637B032BE3
:1046E00003D9AD211E4803F0E6FE237B802B03D0C7
:1046F000AF211B4803F0DFFE6369B3F1804F03D0A5
:10470000B121174803F0D7FE238A23F400539BB24C
:10471000B3F5805F03D0B321114803F0CCFEA3684A
:10472000013BB3F5165F03D3B5210D4803F0C3FE7B
:10473000002321462846BDE870401A46FFF762BEB6
:104740008A21074803F0B7FE1CB98C21044803F006
:10475000B2FE9E21024803F0AEFEBFE70000015BFF
:10476000FCBD0008F8B506460F461546002A6AD07B
:1047700003F00304836823F44073836006F03BFE78
:10478000B26882EA042303F440735340B36006F036
:104790002DFE37B9B6F1B64F0DD12E20FEF78EFDA6
:1047A0000746B3689A0717D5012C1BD0022C27D0D7
:1047B00064B9264B17E0264B9E4201D12F20EDE72E
:1047C00040F22F11234803F076FEB3684FF4B27124
:1047D000204803F070FE08E0012C13D0022CE7D132
:1047E0001D4B00E01D4B9F42F0D91D4B1B5D6B43E1
:1047F0000AD140F27511BDE8F840164803F05BBEDF
:10480000184BF0E7184BEEE7A3EBC504013C3C4422
:10481000B4FBF3F4013C0CD540F27B110D4803F0DE
:104820004AFE4FF4BE710B4803F045FEB368B46115
:10483000F8BDB4F5007FF4D2B3689B07F7D5002C20
:1048400008BF0124F3E740F21511D4E780841E006D
:104850000080065051BE0008002D3101404B4C0035
:10486000A3BE0008809FD50040548900B0F1B64F28
:1048700038B504460D4607D0084B984204D040F2A4
:104880009511074803F017FE043425B104F5805450
:104890000123236038BD04F50054F9E70080065079
:1048A00051BE0008B0F1B64F38B504460D4607D0EA
:1048B000124B984204D04FF4D571114803F0FBFD20
:1048C0000023104A236404F50053DA636A7804F184
:1048D00008037AB903F5805302221A602046D5E90D
:1048E00001122B7BFFF73EFF20462978BDE83840B8
:1048F000FFF7BCBF03F50053EEE700BF0080065092
:1049000051BE0008FFFF1F00B0F1B64F70B50AD0CE
:10491000824B98421DD0824840F2012103F0CBFD2A
:104920006FF0030070BD7F4B9968C26B12F4C06FCB
:1049300015D091050FD5FD225A7009221A70002258
:10494000026493F90110012900D15A7093F9010012
:10495000E8E7754BE8E75605EFD5FE22ECE71C7853
:10496000082C00F2D680DFE814F009001F00450093
:10497000530070007E009C00A700CB004C880A8882
:10498000E5060AD5120A02F0060242F0F002012101
:1049900019704263C1600120C4E702F0FE02A10762
:1049A00048BF42F00102F2E7160608D5802100F563
:1049B0000052D1634FF608721A80022318E05506A0
:1049C000E9D5402400F50052D4634A88D40604D5C2
:1049D00002221A700B784363DDE796076AD5072237
:1049E0001A701B7901EBC3031B89012BD3D1082358
:1049F000C360D0E71506D9D45406CCD5402400F5C1
:104A00000052D4634A88920754D503221A708CE767
:104A10004C880A88E60643BF120A02F0060242F0FA
:104A2000F00202F0FE02650709D51C7942F001028E
:104A300001EBC4010989012904BF0821C1600421D7
:104A400019700123C3604263A5E71406AED4520671
:104A5000A1D5402400F50052D4634A88560729D5D1
:104A600007221A7097E71A795D8801EBC20426893C
:104A7000AE420FD800240132D2B21A715C804C8849
:104A80006507C2D4E40702D4012A7FF64EAF08229C
:104A90001A7092E76268691C5980525D426306226F
:104AA000DFE7160682D455067FF575AF402400F582
:104AB0000052D4630522A9E794067FF56CAF202647
:104AC0001A7900F5005401EBC2010A89456AE663D0
:104AD0005C88A24281BF4968661C5E800D5559887A
:104AE0008A42D4D90424012AC46004D0013A9142F4
:104AF00001D10822C2601A78092A3FF420AF4AE7A0
:104B0000D2057FF548AF4FF4807100F50052D163B4
:104B100013E74FF609321A8011E700BF00800650F4
:104B200051BE0008DC2E0020E82E0020B0F1B64F68
:104B300038B504460D4607D121B940F26A312648FE
:104B400003F0B9FC254B13E0254B98420DD040F201
:104B50006931214803F0AFFC25B940F26A311E48A3
:104B600003F0A9FC6FF0030038BD00292BD01D4BCA
:104B70002269D00744BF2022E2606A88910702D5EB
:104B800029890029EED0520702D52A8A002AE9D0C5
:104B90004FF480721A6000229D601A71C023E36096
:104BA0006369DB0515D4202204F50053DA630E4A4D
:104BB0002046DA634FF4FC6204F580531A64BDE8C2
:104BC0003840FFF7A1BE40F26A31034803F073FC9E
:104BD000CDE7636AE4E700BF51BE0008DC2E002089
:104BE00000800650E82E0020FFFF1F00072838B580
:104BF00004460D4603DD7721084803F05CFC1F2CBA
:104C000003D99121064803F056FC064A064B002DB5
:104C100008BF13460122A2401A6038BDA7BE000893
:104C2000FABE0008401004504020045010B504465D
:104C300018B991211F4803F03EFC23781B0613F09E
:104C4000604F03D092211B4803F035FCE3780F2B13
:104C500003D99521174803F02EFC01212020FEF7EF
:104C600005FB01212120FEF701FB0122124B15203B
:104C70005A60227812069A606178A27842EA01426C
:104C80009A61FF229A6200229A631A644FF00042EE
:104C90005A654FF0FF3203F500531A6500F04AFDE4
:104CA0001520E17800F054FDBDE81040152000F01B
:104CB000D9BC00BFA7BE000800000450F8B501260B
:104CC000C3B2072805460C46174606FA03F603DD6D
:104CD000DE21344803F0EFFB1CB9DF21314803F03B
:104CE000EAFB236823F47C1323F00F031BB1E221BA
:104CF0002C4803F0E0FBA37A1B0413F47C0F03D0D1
:104D0000E721284803F0D7FBE37A1B0513F07E6FF9
:104D100003D0E921234803F0CEFB237B5B0513F08E
:104D2000FE5F03D0EB211F4803F0C5FB1E4B27F0AD
:104D300003071E65AB00226803F1A04303F5882337
:104D40005A60302202FB05F0637B00F1A04000F5C1
:104D500080200366E37AA27A1B0543EA0243227BA2
:104D600043EA4253C365076706F04EFB0F4B227AB6
:104D70005E6502B11E64627A02B19E632279A379F4
:104D800043EA0243084A93616179E37943EA0143C4
:104D900006498B61064B56639E64BDE8F84006F0F9
:104DA0002EBB00BFA7BE0008002004500010045016
:104DB0000000045010B5044620B940F23A211048D2
:104DC00003F079FB2378C3B1012B03D0022B14D05D
:104DD000032B04D13F236278D340DB0704D440F295
:104DE0003D21074803F067FB0122637821789A4050
:104DF00030235943034B5A5010BD40F2FF33EAE7CA
:104E00004DBF000840E0035010B5044620B940F201
:104E10005A21124803F04FFB2378E3B1012B03D052
:104E2000022B18D0032B04D13F236278D340DB0739
:104E300004D440F25D21094803F03DFB3022237881
:104E4000534303F1A04303F57033586C6378D840A3
:104E500000F0010010BD40F2FF33E6E74DBF00084F
:104E600010B5044620B940F26E21124803F023FB2E
:104E70002378E3B1012B03D0022B18D0032B04D1EC
:104E80003F236278D340DB0704D440F27121094804
:104E900003F011FB30222378534303F1A04303F5C1
:104EA0007033186C6378D84000F0010010BD40F2F8
:104EB000FF33E6E74DBF0008034BD3F82424D3F8B3
:104EC00020041040704700BF00C0035010B50446D6
:104ED00020B94FF449711C4803F0EDFA23782BB93F
:104EE0006078053818BF4FF0FF3010BD012B08D196
:104EF0006378012B1CD0032B14BF4FF0FF3004202C
:104F0000F3E7022B09D16378A3B1052B14D0072B4B
:104F100014BF4FF0FF300820E7E7032B0ED1637872
:104F2000022B0ED0052B14BF4FF0FF300A20DCE718
:104F30000320DAE70620D8E70720D6E74FF0FF3056
:104F4000D3E70920D1E700BF4DBF0008064BDA6E5A
:104F500002F03002202A06D0DA6E22F0300208B1C8
:104F600042F01002DA667047004000502DE9F0412F
:104F7000037804460D46164613B3012B03D0022BCB
:104F80001ED0032B04D13F236278D340DB0703D428
:104F90005D21274803F08FFA264BD3F810331BB15D
:104FA0006021234803F087FA0F2D0CD8DFE805F0C5
:104FB00037323232323232323232323232323232CC
:104FC00040F2FF33E0E7B421194803F074FA4FF0E0
:104FD0000008204606B304F01BFC0F2167782378F5
:104FE000072F03EB430388BF083F4FEA0313124820
:104FF00095BFBF00BF0004330C3308FA07F2B94075
:10500000184403F07CFC85B9204656B1BDE8F04158
:1050100004F0FEBBA846DCE7FFF7CCFEDDE7A846C0
:10502000DBE7BDE8F041FFF7C5BEBDE8F08100BF9A
:10503000AABF000800C0035030C003502DE9F0475C
:10504000037806460C461546002B50D0012B03D0A2
:10505000022B4CD0032B04D13F237278D340DA07C4
:1050600004D44FF49C714A4803F025FA022D06D966
:10507000042D04D040F23911454803F01CFA454F85
:10508000D7F8103323B14FF49D71414803F013FA60
:10509000002C2FDB73786340032B04D94FF49F71EE
:1050A0003B4803F008FA0127072C05F005094FF0EB
:1050B0000308327805F0060507FA04F726DC4FEA04
:1050C000840A08FA0AF84146334802FA0AF203F061
:1050D00016FC7278414602F00302304802FA0AF2E6
:1050E00003F00DFCB9F1000F37D12D4B36E040F243
:1050F000FF33B2E7631C06D1D7F82414707803F0AD
:105100000DFC041ECFDA2046BDE8F087A4F1080AA2
:105110004FEA8A0A08FA0AF84146224802FA0AF2D5
:1051200003F0EDFB7278414602F003021E4802FADA
:105130000AF203F0E4FBB9F1000F14D01F2C0CDDD0
:1051400074211A4803F0B7F9194BC3F8107495B9D4
:105150007421164803F0AFF903E0154BC3F810743F
:105160006DB90F4B0CE01F2CBFDD74210F4803F00D
:10517000A2F90B4BE9E774210C4803F09CF90C4BA6
:10518000C3F814740123064AA340C2F82034BAE7D6
:10519000AABF000800C0035000C4035008C4035055
:1051A00000E0035004C403500CC4035006C00008C0
:1051B00000D0035070B5154E054630420C4604D061
:1051C00040F28911124803F076F9344204D04FF4CA
:1051D000C5710F4803F06FF90E4B2C40D3F8302403
:1051E000012022EA0502C3F83024D3F83024144306
:1051F000C3F83044D3F82C242A43C3F82C24FFF7F7
:10520000A5FE054BC3F8205470BD00BFFFFF00F0A2
:10521000AABF000800C0035000E00350F8B50378AF
:1052200005460F46164613B3012B03D0022B1ED0A2
:10523000032B04D13F236A78D340D80704D440F22B
:105240009B11174803F037F9164BD3F8103323B1ED
:105250004FF4CE71124803F02EF92846FFF736FEC0
:10526000791C044606D1421C08D12046F8BD40F204
:10527000FF33E0E7431CF8D0B8420ED128460321A3
:1052800086F00102FFF772FE012004F1100306FA16
:1052900003F19840FFF78EFFE7E74FF0FF34E4E7B4
:1052A000AABF000800C00350054B9A689107FCD4C0
:1052B0005A689207F9D4DA69002AF6D1704700BF1C
:1052C00000800A5010B5074C6368DB0704D44FF424
:1052D0009F71054803F0EFF804F0EEFA0223236112
:1052E00010BD00BF00800A5062C0000808B5FFF77B
:1052F000DBFF0122024B03F580514A601A6108BDB1
:1053000000800A50044B10B55C68012C03D1FFF7F4
:10531000D9FF024B5C6010BD00800A5000A00A500B
:1053200038B5074DFFF7C0FF6B680446012B03D16A
:10533000FFF7E8FFFFF7B8FF2378EB6038BD00BF49
:1053400000800A5038B505460C4604F0BFFABDB9D6
:105350006268237812B1127843EAC203627843EAA2
:105360004203A26812B1127843EA8213E27843EA58
:105370008203226912B1127843EA4223014A9364FC
:1053800038BD00BF00800A5030B58D488BB006F0A4
:1053900046F820B14FF44E718A4803F08CF86C4601
:1053A000894D0FCD0FC42B68884A2360FF238DF8E9
:1053B0000130D2F84C3113F4802340F0F580D2F85C
:1053C00050218DF801309DF801306C46FF2B08BF4D
:1053D000252368467E4D8DF80130FEF7BBFA32205A
:1053E000FEF71AFB0FCD0FC40FCD0FC495E80300D5
:1053F00084E80300754BD3F84C21120340F1B880C8
:10540000A3F5FE431C88B4F5807F28BF64248DF883
:105410001940FEF799FA044484F308046D488DF8A6
:105420001840FCF709FA6846FEF77CF93220FEF7CF
:10543000F9FA6948FEF71CFC6848FEF7A7FC6848C3
:1054400005F0EDFF20B140F2CB115E4803F033F8D8
:10545000644C0020FEF7ECFAFEF7C0FB236F00203F
:1054600023F0070343F003032367FEF7E1FB236FF9
:105470005D4923F4744323675C4BD3F8FC2012F09E
:10548000807279D1D4F8803023F0030343F0010314
:10549000C4F88030C1F88020524CD4F8203123F079
:1054A000070343F00203C4F82031D4F8283123F075
:1054B000070343F00203C4F82831D4F8803123F005
:1054C000030343F00103C4F88031D4F8403123F0E2
:1054D000030343F00203C4F84031D4F8603123F0F1
:1054E000030343F00203C4F86031D4F8403223F0E0
:1054F000030343F00203C4F84032D4F8003223F02F
:10550000070343F00203C4F80032D4F8083223F052
:10551000070343F00203C4F80832D4F8703223F0D2
:10552000030343F00103C4F87032D4F8203223F0AF
:10553000070343F00103C4F82032FEF7DBF84FF015
:10554000E0220020136943F004031361D4F86032B1
:1055500023F0070343F00103C4F86032D4F8943217
:1055600023F0070343F00103C4F894320BB030BDBD
:10557000D3F85041E4B24AE7D3F8FC2022F080721D
:10558000C3F8FC20D4F8802022F0030242F001028C
:10559000C4F880200022C1F88020D3F8FC2042F01B
:1055A0008072C3F8FC2077E74FF07E6393F89C206D
:1055B00093F99C30002BFFF606AF8DF8012002E72F
:1055C00050C2000892C100080CC200080080E00F21
:1055D00020C20008C017530200B4C404C0EA21016D
:1055E00054C20008008000500090005000ED00E020
:1055F00007B5094B18689A889B7900906846ADF802
:1056000004208DF80630FEF749FD0C20FEF77EFDE4
:10561000002003B05DF804FB48C2000813B5002465
:10562000064A6846536F43F00103536700948DF8B0
:105630000440FEF767FC204602B010BD0040005059
:105640000028ABBF00F16040054B00F5614000F061
:105650000F00ACBF90F80003185C0009704700BF52
:1056600014ED00E04C2810B5044608D80123610968
:10567000074A04F01F04A34042F8213010BD4FF444
:105680009871044802F017FF002CF7DBEEE700BF2B
:1056900000E100E090C200084B2810B5044604D990
:1056A00040F23B11064802F006FF064B621153F828
:1056B000220004F01F04E040C04300F0010010BDD0
:1056C00090C2000800E100E000F10C03572B10B578
:1056D000044604D940F24B11144802F0ECFEEFF3FB
:1056E0001083DB0702D50122104610BD2046FFF7CC
:1056F000D3FF02460028F6D160B2FFF7A1FF0146B2
:10570000EFF3118313B1B0EB131FECD2084B5B68BE
:10571000C3F30803002BE7D0103B58B2FFF790FF0C
:10572000814234BF00220122DEE700BF90C20008A0
:1057300000ED00E0002808DB01224309034900F0E6
:105740001F008240603341F82320704700E100E0F1
:1057500038B500F110035C2B04460D4604D94FF414
:10576000EF710E4802F0A7FE0F2D04D940F2DF11B1
:105770000A4802F0A0FE60B20028ACBF00F1604011
:10578000074B4FEA0515EDB2ABBF00F5614000F0E5
:105790000F0080F800531D5438BD00BF90C20008B0
:1057A00014ED00E010B505F02FFE0A4B1A786AB927
:1057B00001226FF004041A7005F021FE2046052135
:1057C0000134FFF7C5FF4C2CF8D110BDBDE81040E7
:1057D00005F015BE893C002007B5684600F05CFB6B
:1057E000DDE900010022034B03B05DF804EB00F09B
:1057F00089BB00BFF42E00202DE9F04F9B46531CBF
:1058000005460E46174687B035D170B308244FF0D1
:105810000008784BCDF8148083F80080109B002B93
:1058200000F0DF80C3F80080002E00F0DC806B68A1
:10583000B34240F2D88005F0E7FD073605AB26F00D
:1058400007063A46CDE9008382465B463146284644
:1058500003F02FF9059F814607B1F8B9504605F0CE
:10586000CEFD192007B0BDE8F08F40F2A7216248B5
:1058700002F021FECAE7531EB3F5007F01D21A429F
:1058800004D040F2A2215C4802F015FE25B940F296
:10589000A721594802F00FFE3C46B8E7B7F802804E
:1058A00029694FEAC802C0EBC8080139B8F1270FCF
:1058B00029617BD9BBF1000F51D1864206F108085E
:1058C00048D022463946284603F048F80446059059
:1058D000059B9844404603F0E8F8059906F10F004F
:1058E0004A88C308A2EBD002A8F80220CA88A8F808
:1058F0000430002A30D0D31A9BB201EBC202A8F8C0
:10590000063093808B88F608A380B8F804303A46B6
:10591000E380414600232846668003F015F9AB6812
:105920000833AB60237843F0010323702B69013304
:105930002B616288AB68504603EBC203EA68AB6038
:10594000934288BFEB6005F05AFD109B083400209D
:105950001C6087E73C46BBE7A8F80620D2E707EBC8
:1059600008042046039203F0A0F809F10701C908D2
:105970000598618008F10701C908A180C18899B123
:10598000C900039ACE1DB21A02EB0903C3F3CF0379
:105990000144E3808B80A38808F1FF384FEAD808E0
:1059A000A0F80280C380BAE7E180F4E7BBF1010F01
:1059B0001BD107F10803B3FBF4F204FB1233B3B1BC
:1059C00022463946284602F0C9FF044623783A4663
:1059D00043F00103237021460123284603F0B4F865
:1059E000A7E722203EE721203CE78642E8D13C465B
:1059F000ECE700BF704000200CC3000807B500931F
:105A000013460A4601460348FFF7F6FE03B05DF869
:105A100004FB00BFF42E002013460A46014601484D
:105A200002F0E3BFF42E00202DE9F74F0C460546A7
:105A300020B940F28531724802F03DFD002C00F0A3
:105A4000DC80D5E9056805F0DFFC14F8087C34F843
:105A500006CCFB07009002D5BCF1000F06D10098E0
:105A600005F0CDFC012003B0BDE8F08FAB68D5F8A0
:105A7000109034F804ECA3EBCC0B09F10103A4F172
:105A800008010CF10102C5F808B02B61BEF1000F4E
:105A900039D0A1EBCE03D888B3F802A001901878D2
:105AA00007F00207C00723D41FBB0198A0EB0A0729
:105AB000012F28D10CF10202ABF108075244C5F8BE
:105AC0001090AF6034F802ECBEF1000F1DD114F855
:105AD000081C24F806EC6EF3000104F8081C013AD7
